:1000000000000120750300005D0300008916000058
:1000100061030000630300006503000000000000AE
:100020000000000000000000000000006703000066
:1000300069030000000000006B0300006D03000076
:10004000AD2200006F030000152900006F030000BF
:100050006F030000352700006F0300006F030000EE
:100060006F0300006F0300006F0300006F030000C8
:100070006F0300006F0300006F0300006F030000B8
:100080006F0300006F0300006F0300006F030000A8
:100090006F0300006F0300006F0300006F03000098
:1000A0006F0300006F0300006F030000D92A0000F7
:1000B0006F0300006F03000000000000000000005C
:1000C0006F0300006F0300006F0300006F03000068
:1000D0006F0300006F0300006F03000000000000CA
:1000E0000000000000000000000000000000000010
:1000F0000000000000000000000000000000000000
:1001000000000000000000000000000000000000EF
:1001100000000000000000000000000000000000DF
:1001200000000000000000000000000000000000CF
:1001300000000000000000000000000000000000BF
:1001400000000000000000000000000000000000AF
:10015000000000000000000000000000000000009F
:10016000000000000000000000000000000000008F
:10017000000000000000000000000000000000007F
:10018000000000000000000000000000000000006F
:10019000000000000000000000000000000000005F
:1001A000000000000000000000000000000000004F
:1001B000000000000000000000000000000000003F
:1001C000000000000000000000000000000000002F
:1001D000000000000000000000000000000000001F
:1001E000000000000000000000000000000000000F
:1001F00000000000000000000000000000000000FF
:10020000354936480A1A02D0072291438D463449AF
:1002100034480A1A06D00722914381F30988022242
:1002200082F3148830483149314A00F044F83148AB
:100230003149324A00F03FF831483249324A00F041
:100240003AF832483249334A00F035F832483349F7
:10025000334A00F030F833483349344A00F02BF881
:1002600033483449344A00F026F8344834490022EF
:1002700000F02CF833483449002200F027F83348C6
:100280003349091A082902DB002202604160314A21
:1002900090471F481F49884205D00268043003B4C4
:1002A000904703BCF7E700208646EC46002000217B
:1002B000294A9047FEE7884207D0521A05D00378B2
:1002C00001300B700131013AF9D17047884202D0F8
:1002D00002700130FAE770470000012000E00020C2
:1002E000000001200000012024560000140000201E
:1002F00058000020D0030000D0030000E8480000B0
:10030000245600001400002014000020784900004A
:1003100078490000784900007849000078490000D9
:100320007849000078490000784900002456000010
:100330006856000058000020580000205800002097
:10034000580E0020580E0020580E0020580E002095
:10035000582E00209D03000015340000FEE7FEE744
:10036000FEE7FEE7FEE7FEE7FEE7FEE7FEE7FEE765
:1003700000F002B8FFF7FCBF0F484FF007018843B9
:1003800085460E4880470E48016841F470010160BF
:10039000BFF34F8FBFF36F8FFFF732BF09480A4992
:1003A0000A4A884207D0521A05D0037801300B70F0
:1003B0000131013AF9D170470000012011350000E8
:1003C00088ED00E0644900000000002014000020D7
:1003D000F0B595B01C46164608460D4601F00CFED9
:1003E0001A9B0D93CDE9086400242346082205A931
:1003F00028460A948DF82C400C9401F01AFE079BB5
:100400000293069B03939DF814308DF8114003F07E
:100410000302012A1DD1BDF81440059EC3F3C20397
:10042000C4F383148DF81030A20008230EA92846C7
:1004300001F0FFFDC6F3952608AB0093224602AB00
:100440000EA9304600F0D0FB284601F0D9FD15B0CA
:10045000F0BD022AF8D1BDF81640C3F3C203A409C7
:100460008DF810300827082C264628BF08263B4662
:1004700032460EA9284601F0DCFDA41B08AB02AAF7
:1004800031460EA8374400F013FC002CEBD1DBE71B
:100490007047000007B5044B0093044A4023FFF760
:1004A00097FF03B05DF804FBF10400005900002041
:1004B00030B50C4D0FCD89B06C460FC495E80F00D8
:1004C00084E80F000623002269460748009301F0E4
:1004D0006DFE08B100F046FC044B00221A7009B012
:1004E00030BD00BF784900001400002058000020F3
:1004F00038B50D4B0D4D002018700D4804782D5D5A
:10050000D2B21C4665B1043002F03AFF08B100F0E7
:1005100029FC084B1A7812B12378002BFBD038BD88
:100520000C3002F0FFFCF1E799000020E806002003
:10053000140000205800002008B50848084A037835
:10054000D35C33B1043002F0A5FEBDE80840FFF7EC
:10055000AFBF0C3002F082FCF7E700BF14000020B0
:10056000E8060020FFF7A4BF08B5FFF7FBFF042152
:10057000034800F0A7FA034B01225A7108BD00BFDF
:100580004049000028000020037813F0040216D030
:1005900003F00303012B03D0022B09D00120704785
:1005A0000A6800880232C0F3831002440A60F5E74B
:1005B0000B684288023303EB92130B60EEE71046A0
:1005C000704700002DE9F04F044685B0851C0020DF
:1005D0000F46904600F074FC454806683E60D0E93E
:1005E0000132134401339B1B824600F21C4600F586
:1005F000836900F21447AB421AD30022B8F1000F0E
:100600006FD0052363F3070264F38912DAF8001050
:10061000DAF808300B4003330D444AF82320002059
:10062000CAF8005000F04EFC012005B0BDE8F08F84
:100630000121304601F02BF9484601F03EF93846D9
:1006400001F03BF9DAF80400DAF808B0009000EAAB
:100650000B0003300AEB80006946FFF795FF009B13
:1006600050BB0BEA03020AEB820203F1020CD268D0
:100670000192013303EA0B0B0AEB8B0B02F003022E
:10068000012ACDF800C0DBF80C1022D0022A16D0C7
:100690008346384601F014F910B1009BCAF80430C3
:1006A0005946304601F0F3F8DAE901231344DAF849
:1006B000002001339B1A9EE70BEA0300C9E7BDF84F
:1006C00006309B0903334FEA114B0CEB9303009365
:1006D000DFE7BDF80430C3F383134FEA114B6344E3
:1006E000F5E7062363F3070264F39F528EE700BF2A
:1006F0006C0100200B4B0C48FF2210B59A600022C1
:10070000C3F81824C3E90022C3F81424012283F893
:10071000202401F02AFC044610B9044801F093FC9F
:10072000204610BD6C01002050490000B84900006F
:1007300030B50A4C71B10A4A0A49121BD20800238B
:100740009A4201D1002030BD31F82350854202D0B9
:100750000133F5E7034654F83300F4E7E8480000B6
:100760004049000014000020094B013903EBC00090
:10077000032909D8DFE801F00A02040604207047C3
:100780000079704740797047002070470220704719
:10079000E8480000034BD3E90030C31A58425841DF
:1007A000704700BF6C0100202DE9F04385B0FFF7D2
:1007B000F1FF0646002840F0F7807C4DC5F818048C
:1007C000BFF34F8F6868AC6800902040033005EBA2
:1007D00080006946FFF7D8FE009B18B1D5F81824B1
:1007E000002A5FD004EA0302991C013305EB820260
:1007F000234005EB8303D268DB68029302F0030316
:10080000022B0192009162D1BDF8063068484FEA90
:100810009318B8F1500FC14628BF4FF0500969F343
:100820008F1309F10801ADF8063001F0B6FB074659
:10083000002800F0A48001F0DFFB01A900230822BA
:10084000384601F0ECFB009924EA01060136B600B7
:10085000B14535D95FFA89F97EB3F6B2A9EB06093D
:10086000214003315FFA89F4B146524E05EB810114
:1008700008234A46384601F0D2FB36B109F1080395
:1008800022463146384601F0CAFB009B08F10308B6
:1008900003EB98030093D5F81834002B4BD1D5F80F
:1008A00010445BE02A689A4204D86A60304605B07A
:1008B000BDE8F08304EA030088E73E493446D7E701
:1008C0002140033108234A4605EB8101DAE7012B79
:1008D00055D1BDF804303648C3F38311062928BF2B
:1008E000062161F3891302318900ADF8043001F06B
:1008F00054FB0746002842D001F07EFB002308226B
:1009000001A9384601F08BFB0026BDF80420C2F394
:100910008312B300964203F10803BCD200994A1C2B
:1009200021400331009205EB81010422384601F099
:1009300076FB0136E9E7384601F062FBFFF72AFF54
:1009400080F00100C6B2B1E7E3685B7923B12368A8
:1009500039461B6820469847E3681C68002CF3D191
:10096000384601F04DFB204600F0AAFAD5F81834BD
:100970000BB9009B6B60002000F0A4FADEE7D5F80D
:10098000104454B90C4B0D480D49C01AC00800045E
:1009900040F0020000F06EF8D0E7236820469B6824
:1009A0009847E3681C68ECE700267FE76C010020AD
:1009B0005049000078010020E84800001849000074
:1009C000C44900002DE9F74F284C80460F46924657
:1009D00001A9012218469B46D4F80890FFF7F2FDC2
:1009E00080B3019D0026A91C5E4506EB010233D1B0
:1009F00000211F4800F02BFF80F310006A1C02EA60
:100A0000090204EB8202000405EA0903033340EA09
:100A10001840D06014F8232068F3C50204F823209E
:100A200034F8232066F3891224F8232054F8232075
:100A300067F39F2244F8232002F0F80242F00102FB
:100A400004F8232094F820341BB1FFF7ADFE0028F2
:100A5000FBD103B0BDE8F08F09EA020204EB820289
:100A60005AF82630D3600136BEE700BF6C01002083
:100A70008805002000231A46FFF7A4BF07B501230D
:100A8000019201AAFFF79EFF03B05DF804FB1FB5BA
:100A9000CDE90123069B039301AA0323FFF792FFED
:100AA00005B05DF804FB1FB5CDE90023069B02935A
:100AB000079B03936A460423FFF784FF05B05DF8A4
:100AC00004FB000030B50F49D1F810240023144670
:100AD0003CB9C468237152B9C1F8100422601846A9
:100AE00030BDE46825799D4206D02468F0E7D268DD
:100AF000116821601060F2E701330A2BE7D14FF053
:100B0000FF33ECE76C010020094A38B50123D2F825
:100B1000104482F820341D4604B938BDE3685D7185
:100B2000236820465B689847E3681C68F4E700BFC9
:100B30006C010020037A052B10B50C460FD0437AC8
:100B400023B1084A0849204600F014FF074920460F
:100B500000F010FF2046BDE8104000F000BF002A62
:100B6000F8D0F3E70F4A0000144A0000344A0000AE
:100B7000C38873B504460D4633B1144A0092144934
:100B8000144A284600F0F6FE217A05291CD0637A23
:100B90004BB1A088FFF7E8FD0F4B104953F8202018
:100BA000284600F0E7FE227A0D4BA08853F8226019
:100BB0000021FFF7BDFD0B4903463246284602B02F
:100BC000BDE8704000F0D6BE02B070BD0F4A000014
:100BD0001F4A0000174A0000DC490000144A0000C8
:100BE000444A0000374A00002DE9F04385B01F4613
:100BF0000C9D002306460C46904695F80C902B73EE
:100C000029463846FFF7B4FFB8F1060F09D8DFE8E8
:100C100008F00412181F283340003146284600F01F
:100C2000A9FE002229463846FFF784FF85F80C907C
:100C300005B0BDE8F08322683146284600F09AFEF0
:100C4000EFE7D4E900233146284600F093FEE8E7B9
:100C5000A36800933146D4E90023284600F08AFEB9
:100C6000DFE7E3680193A36800933146D4E90023EA
:100C7000284600F07FFED4E723690293E3680193DE
:100C8000A36800933146D4E90023284600F072FEA1
:100C9000C7E76369039323690293E3680193A36839
:100CA00000933146D4E90023284600F063FEB8E7FC
:100CB00008292DE9F84F80460E4617461C463AD8BB
:100CC000002593F80C901D7319461046FFF750FF4E
:100CD000DFF884A0DFF884B0AE422ED918F80520E2
:100CE0005946204600F046FE0135082DF4D118493A
:100CF000DFF86CB0204600F03DFE4FF0000A56458C
:100D000020D918F80A507E2D03D8284603F020FD7C
:100D100000B92E252A465946204600F02BFE0AF13E
:100D2000010ABAF1080FEAD1012221463846FFF73D
:100D300001FF84F80C90BDE8F88F5146204600F082
:100D400019FED1E70349204600F014FEE7E700BF93
:100D50000A4A0000084A0000064A0000004A000053
:100D60000C4A00001FB50021039001AA44F20100C3
:100D7000CDE9011100F004F805B05DF804FB0000B6
:100D800010B572B6FFF7C0FEFFF70EFD0028FBD1CD
:100D9000104B114C1149E41AE408240444F00100FA
:100DA000FFF768FE0E4B1B68DB0700D500BE0D4940
:100DB00044F00200FFF75EFEBFF34F8F0A490B4B72
:100DC000CA6802F4E0621343CB60BFF34F8F00BFE9
:100DD000FDE700BFE848000018490000A34A0000F2
:100DE000F0ED00E0AF4A000000ED00E00400FA057D
:100DF0004B1C30B5DB00044612F003009BB20DD152
:100E0000074D2A601A44074B1A60074B1870074BAE
:100E10001870074B1C80074B198030BD0720FCE77A
:100E2000300600202C06002028060020380600206E
:100E30003406002036060020F8B5124C124D264626
:100E400022782B789A4200D1F8BD23780F48104AB7
:100E5000078812680F48DBB219B202EBC10C0068B8
:100E600052F83120BCF8041003FB070090470A4AEF
:100E700023781288DBB29A4286BF0133DBB20023AB
:100E80003370DDE7380600202806002034060020F5
:100E9000300600202C0600203606002072B6024ADA
:100EA00013680133136070473C060020034A13683F
:100EB000013B136003B962B6704700BF3C060020D7
:100EC000FFF7ECBFFFF7F2BF70B5064D06460024F2
:100ED00055F8043B0BB1304698470134042CF7D148
:100EE00070BD00BF4C0600200B4A0C4B51881420EB
:100EF00000FB0131CB6833B904204968107001222E
:100F0000074800F087BF05230649137002238B8032
:100F1000012200230968F3E7640600207C06002014
:100F200000000020B806002007B500230549009303
:100F3000054A09680548082300F0D6FE03B05DF8AD
:100F400004FB00BFB8060020C84A000000000020D3
:100F500007B50023009301460823034A034800F025
:100F6000C3FE03B05DF804FBC04A0000000000208F
:100F700013B500230C46009301460423074A084892
:100F800000F0B2FE38B9074B142202FB04340123EF
:100F9000237402B010BD48F20D60FAE7BC4A0000AD
:100FA000000000207C06002037B50A480A4B426842
:100FB0009C88196853880325033305709BB2002071
:100FC00000909B0001EB8401044800F08DFE03B00B
:100FD00030BD00BF64060020B806002000000020DD
:100FE0004388033300EB830399420BD382884FF687
:100FF000FF739A4208D0038833B18068431C58427B
:10100000584170470220704701207047154A142349
:1010100003FB002070B50B6844680D4604F580564C
:10102000ABB15C88033403EB8404B4420DD2236873
:1010300001330AD031462046FFF7D2FF01280BD0FA
:1010400010F0FF0F05D00228EFD1002003E0083494
:10105000EBE72C60012070BD6388033304EB83044D
:10106000E3E700BF7C060020436873B504460D46E5
:101070006BB3244AD1688B4229D31269934226D894
:1010800013F0030023D1204A2189128991421ED1F5
:1010900021689A6891421AD11C4A51688B4203D93F
:1010A00001F580518B420DD3926993420CD902F520
:1010B0008052934208D201232B80B0FA80F040097D
:1010C00002B070BD0346F7E748F20960F5E7002378
:1010D0002B801E46019601A92888FFF797FF30B99B
:1010E0002B8801339BB2012B2B80F3D9E8E7019BBE
:1010F000226899689142EED16360034B1B8923817A
:10110000DEE700BF00000020640600207C0600200F
:101110002DE9F8431C461D4B1B7806460F46154625
:1011200073B382B37CB3DFF86C804FF01409A388EB
:10113000012B02D948F2096020E009FB03F318F8FB
:1011400003302BB92146A088FFF760FF20B920604B
:10115000A3880133A380EAE723681EB19988328807
:101160009142EFD11FB119883A889142EAD19A6829
:10117000C5E90023064B1B892B810020BDE8F883BD
:1011800048F20160FAE748F20460F7E75C060020E5
:10119000640600207C06002008B5074B191D5888FE
:1011A000FFF734FF18B1BDE80840FFF7FDBEBDE80A
:1011B0000840FFF799BE00BF640600202DE9F04FFC
:1011C000A34FDFF8B09289B00646B8463B6823B912
:1011D0004946A04800F000FB3860D8F80050297854
:1011E0004B1E052B00F2FE80DFE813F006006000C6
:1011F0006000F200F20064012EB1974B00225A60A9
:101200004FF40644F0E02B79032B1DD8DFE803F000
:1012100015022B3691490B78022B08461AD00B7D0C
:10122000022B4FF0010317D114225343C2180020A0
:10123000C8545068FFF78CFE03E001232B71FFF7C1
:1012400073FE002800F0BE80834B00225A6048F2F3
:101250000D64C9E00023E7E77F4A13700023536061
:1012600041F61D54C0E07E497E48002302222B71C6
:101270008A800122096800F0CDFDE2E7784C002663
:101280002E712068754DFFF763FE774BD4F800C0D0
:101290005A8814235343EA18EE5451682160A188F8
:1012A000C2F804C011810222A280CAE7B5F814A0D6
:1012B000AA7DDFF8A8B1AEB1022AEB8806D91421C5
:1012C00001FB0AB1DA1C088902440A81142202FBDC
:1012D0000ABAC3F57F43BAF80A20FD331344AAF8CB
:1012E0000A308DE7142303FB0AB318895C6804EB0A
:1012F0008004062A69D8DFE802F0274E36441D5ADA
:10130000040041F61D54AA7DEB88022A06D9142157
:1013100001FB0AB1DA1C088902440A81142202FB8B
:101320000ABAC3F57F43BAF80A20FD331344AAF87A
:101330000A3059E04D484E4900234360AB690360D1
:10134000FFF792FE002874D00223AB7500230093B0
:101350000423EA182146434800F0C6FC002831D097
:1013600048F20D64CFE72B69002B14BF0323012340
:10137000AB750023009305F10C02042304F108016E
:10138000E9E70123AB750022EB8800929B002A69F4
:1013900004F10C01DFE703290CBF05230623AB751D
:1013A00000230093042305F10802E118D3E7062384
:1013B000AB752F4B19882D4B5868FFF7D9FD0446A4
:1013C0000028A0D109B0BDE8F08F48F20E649AE77A
:1013D000002E7FF415AF2B79012B4DD0EBB1022BF2
:1013E0003FF43EAF48F20E641422002103A803F03C
:1013F00018FA41F61D539C4208BF0024D8F800306B
:1014000004941A78023A042A00F20881DFE812F004
:10141000E900F50018012001270102232B710DF1CD
:101420000A01EB68039303A8CDE90466FFF71CFEED
:1014300010B948F20964D7E70498BDF80A10838808
:10144000EB8003882B81FFF793FD044629E000BF62
:1014500078060020A40600205C0600207C06002000
:10146000B80600200000002064060020400600208E
:10147000C006002074060020DFF800A203AA53462D
:101480003146A81DFFF744FE044668B9BAF80410B7
:101490000498FFF76DFD044648F209639C423FF44F
:1014A000DFAE002CA0D18DE708223146504603F074
:1014B000B8F9F1E7002E7FF4A3AE6B4B1A7BAAB10B
:1014C0001E731A78013A062A8CD801A151F822F02D
:1014D000771500009D150000BB150000C115000028
:1014E000E5130000C7150000D91500001A78072A77
:1014F000E7D801A151F822F019150000C31400002B
:10150000C31400003F1500005315000073150000C0
:10151000731500003B1500001A89544901321A81E5
:1015200000225A801A730A78B2FA82F252099A7229
:101530000A7DB2FA82F25209DA72012207E04C49BE
:1015400058688A884088033202448A8002221A70CE
:10155000B7E7464C5A884649142505FB02420868FD
:10156000546850608888108102228A800C600622AC
:10157000EDE70722EBE79A7A32B9DA7A8AB90022E4
:101580001A705A805A606BE6384900229A72CA680B
:10159000002AF2D1097C0029EFD05A80FFF7FCFD28
:1015A00053E70022DA72314A116A0029E7D192F832
:1015B0002420002AE3D00122EFE7FFF7F5FC44E7FF
:1015C000FFF792FC41E7294A5B88142101FB0323C2
:1015D0005868FFF7BDFC38E700225A60FFF7A4FC0B
:1015E00033E701228DF80C201A89ADF818209A886B
:1015F000DB68ADF81A20059310E002228DF80C206C
:101600001A89ADF818209A88ADF81A20DA689B7DFF
:1016100005929A1F534253418DF81C3003A8FFF7DF
:1016200053FC002649461348C8F8006000F0FFF854
:101630000121114800F036F900287FF4C7ADC1E65A
:1016400003228DF80C20DA88ADF818201A89CFE72C
:101650000422DB888DF80C20ADF81830DEE7052376
:101660008DF80C30DAE700BF640600207C0600200D
:10167000B8060020A4060020B4060020C4060020FE
:101680004068FFF79BBD00001EF0040F1CBFEFF386
:1016900009800AE0EFF308800549064A884201D82C
:1016A000904202D88D464FF00000034B18470000CF
:1016B0000000012000E00020E1160000BFF34F8F82
:1016C0000549064BCA6802F4E0621343CB60BFF3DE
:1016D0004F8F00BFFDE700BF00ED00E00400FA05FA
:1016E0002DE9F3470546FFF70FFAFFF75DF80028ED
:1016F000FBD12D4B2D4C9F6A2D4BE41AE40824049A
:1017000044F00104002D49D0AA692A492046FFF778
:10171000B5F9EB680193AB6800932749D5E900233D
:101720002046FFF7C0F9EB6900932449D5E904236B
:101730002046FFF7ACF91C4BDB6A990703D520491B
:101740002046FFF797F9DFF88890DFF888A0002699
:101750004FF0010808FA06F33B4206D059F826205C
:101760001AB151462046FFF789F901361A2EF1D1F8
:101770003A0605D50C4B13495A6B2046FFF77EF904
:101780003B0405D5084B10499A6B2046FFF776F9C4
:101790002846FFF793FF02B0BDE8F0870B492046CB
:1017A000FFF768F9C7E700BF00ED00E02849000037
:1017B000E8480000D04A0000E54A00001A4B00004B
:1017C000754B0000C44B0000E44B0000424B00008E
:1017D000004C0000B94B000037B550E8023F1FFA3B
:1017E000A3F5C488A54202BFBFF32F8F00220DE0EE
:1017F000C48925448489A54228BF2D1BC3EA054519
:1018000040E80254002CE8D14FF001028DF803208B
:101810000193019B9DF803200B6002F0FF0322B1AE
:101820004B880068184403B030BD1846FBE70A88AF
:101830004B889A4209D150E8022FC2EA224240E87E
:101840000223002BF7D1012070470020704750E899
:10185000002F0B4640E8003C9CF0000FF7D11046EB
:10186000704750E8003F43EA010240E8002C9CF03A
:10187000000FF6D11046704750E8002F02EA01032E
:1018800040E8003C9CF0000FF6D11046704750E84D
:10189000003F03EB010240E8002C9CF0000FF6D162
:1018A0001046704750E8003FA3EB010240E8002CCF
:1018B0009CF0000FF6D1104670470121FFF7D1BF11
:1018C0000021FFF7D9BF10B590B1D0E9012301681D
:1018D0009B1ADBB20A60013BDBB2FF2B026802D12C
:1018E0000020107110BD11684C1C14600B70F2E7E1
:1018F0000E20F7E738B504460020FFF7E1FA22682A
:1019000063681168994213D9481E106011F8015C90
:10191000E368218A01FB0535A36811791B1ADBB244
:10192000994200D213710020FFF7CCFA284638BD47
:101930000025F8E738B5054600200C46FFF7C0FA49
:101940002A681368591C1160E968641A298AB4FB73
:10195000F1F41C700020BDE83840FFF7B3BA82688C
:1019600010B504462AB1436901680069984700230D
:10197000A36010BD0EB403B5039921B104AB01AA55
:10198000019300F075F802B05DF804EB03B0704706
:101990000A2938B504460D4602D10D21FFF7F8FF9C
:1019A000A3682268591CA160D554D4E901329A4237
:1019B00004D32046BDE83840FFF7D1BF38BD000052
:1019C0002DE9F84F9946DDE90A43174682468846D5
:1019D0000A460126BA420FD24E4538BF4E4613F092
:1019E000010B01D164B900240125B9F1010F1AD905
:1019F00009F1FF397D43F8E7B2FBF7F20136E9E779
:101A00009B070ED5B9F1000F0CBF30252025A6424B
:101A1000EAD2013C29465046FFF7BAFF002CF6D126
:101A2000E1E72025F3E7B8FBF5F39F42E2D9DFF8C1
:101A30003C90B8FBF5F3504619F8031005FB1388EA
:101A4000FFF7A6FFB5FBF7F3BD4207D2BBF1000FCE
:101A500002D00CB1A64203D3BDE8F88F1D46E8E7DB
:101A600020215046013CFFF793FFF2E72851000088
:101A70002DE9F74F054617468846002900F03081CA
:101A800018F8011B49B92B7B002B00F0298128464F
:101A900003B0BDE8F04FFFF762BF252940F0C080DA
:101AA000002698F800302D2B424608F1010823D07B
:101AB000302B24D02B2B25D000242A2B02F101011E
:101AC00023D13B681A1D1B683A601C440A461378F0
:101AD0002E2B26D101324FF00009104610F8011BC1
:101AE000A1F1300CBCF1090F1DD80A2303FB091327
:101AF000A3F130090246F0E746F00106D1E746F0CF
:101B00000206CEE746F00406CBE711F8013CA3F14C
:101B100030000928DBD80A2202FB0434303C0A4694
:101B2000CBE74FF0000912F8011B01F0FB00682819
:101B30009046F8D069290ED04AD8582964D006D8E2
:101B400025296DD098F80030002B99D19BE76329A7
:101B500062D06429F6D13A68D2F800A0111D8AEA51
:101B6000EA723960A2EBEA724FF0010B092A5BDCE2
:101B7000CB4538BFCB462CB1BAF1000F01DB720761
:101B800000D5013CB30702D5B9F1000F04D0F0072E
:101B900002D4002C4ED10024BAF1000F52DACAF15F
:101BA000000A2D212846FFF7F3FE06F00302022A61
:101BB00005D1B9F1000F02D1002C47D10024CDE9A5
:101BC00000464B460A2251462846FFF7F9FEB9E780
:101BD00073294CD014D87029B4D13B681A1D3A60CF
:101BE000302128461C68FFF7D3FE78212846FFF7EE
:101BF000CFFE00220823CDE9003221461022E3E780
:101C000075292BD078299DD139680A1D3A60CDE914
:101C100000464B46102228E03B681A1D19783A60AE
:101C20002846FFF7B5FE8DE70A230BF1010BB2FB47
:101C3000F3F29BE7A345AFD220212846013CFFF7F2
:101C4000A7FEA6E77107B0D52B21ABE7A345B6D217
:101C500030212846013CFFF79BFEADE73968CDE90E
:101C600000460A1D3A604B460A220968ACE73B6809
:101C70001A1D3A6016F00106D3F800A020D1BAF17F
:101C8000000F03D0504602F0FFFD0646B44200D9D3
:101C9000C4B90AF1FF3A1EE028460136FFF778FE84
:101CA0001AF806100029F7D1A642BFF44BAF002C5A
:101CB0003FF448AF20212846013CFFF769FEF3E7D7
:101CC0000026EDE720212846013CFFF761FEDDE715
:101CD0002846FFF75DFE1AF8011F0029F8D131E709
:101CE00003B0BDE8F08F00002DE9F34188B93D4B0A
:101CF0003D483E4AC01AC0080E243D4B00940004E3
:101D00003C4940F00100FEF7C2FE204602B0BDE8AB
:101D1000F0814AB9334B3448374AC01AC0080E2400
:101D200000040094324BEBE7D0F800C0BCF1000F88
:101D300009D12C4B2C48314AC01AC0080824000491
:101D400000942B4BDCE74BB9264B27482C4AC01A92
:101D5000C008092400040094254BD1E74768D7F850
:101D60000480B3FBF8F708FB17374FB11D4B1E4833
:101D7000244AC01AC0080924000400941C4BBFE781
:101D80008F0709D0174B18481F4AC01AC0081024E3
:101D900000040094164BB3E712F0030F09D0114B67
:101DA00011481A4AC01AC008102400040094104BAD
:101DB000A6E7C768B9420BD34C1E05691C44AC4268
:101DC00006D8DCF80C40A44602B0BDE8F0416047FC
:101DD000044B05480E4AC01AC008102400040094A1
:101DE000034B8DE7E848000038490000D35100005C
:101DF00038510000D85100005552000049520000EF
:101E0000085200005B520000855200009D52000005
:101E1000C0520000F7B580B92A4B2B482B4AC01A94
:101E2000C0080E242A4B009400042A4940F0010007
:101E3000FEF72DFE204603B0F0BDD0F800C0BCF187
:101E4000000F09D11F4B2048234AC01AC00808249C
:101E5000000400941E4BE8E74AB91A4B1A481F4A7F
:101E6000C01AC008092400040094194BDDE7476834
:101E7000D7F800E00EF1FF370F4209D0114B12489E
:101E8000174AC01AC008102400040094104BCCE775
:101E9000C768B9420CD34C1E05690EFB0244AC4224
:101EA00006D8DCF81040A44603B0BDE8F040604717
:101EB000044B05480B4AC01AC008102400040094C3
:101EC000034BB2E7E848000038490000D351000056
:101ED0004B510000D8510000495200000852000048
:101EE0005E510000845100002DE9F047B0F80690E3
:101EF0004479D2F800A09DF8208009FB04F4043C4A
:101F000006460AEB0300A0420F4688BFA4EB030A73
:101F1000191DC2F800A0B1FBF9F509FB15114DB967
:101F2000A9EB0104544528BF5446BAF1000F04D16F
:101F3000BDE8F0873668013DF1E704317B19701880
:101F40002246B8F1000F0ED001461846AAEB040A4B
:101F500002F03EFCD145254436684C464FF0000166
:101F600028BF5446E1E71946F0E7FFF7ACBCF8B5E7
:101F700046790146721E0546002393422D6803D31D
:101F80000024A64202D8F8BD0133F6E70F682846C0
:101F9000FFF7D0FC01343946F3E72DE9F843068A10
:101FA000CD1C0746FFF7A6FC043E35440446B5FBAE
:101FB000F6F5F0B14FF48073EDB28380C680013D39
:101FC000076081464FF00008A84512D23846FFF757
:101FD00091FC064648B163790133637108F1010849
:101FE000C9F8000007608146EEE72046FFF7BFFF13
:101FF00034462046BDE8F88301210430FFF747BC92
:1020000010B5012104460430FFF74CFC10F0FF0F1F
:1020100004D12046BDE81040FFF7A9BF10BD1FB591
:1020200003920022009203AAFFF75EFF05B05DF85D
:1020300004FB1FB503920122009203AAFFF754FF8D
:1020400005B05DF804FB836800225A609A60C3E91A
:102050000422DA601A60704738B5074C051E04F197
:10206000080318BF1C4623682BB11A6822605B68FE
:1020700028469847F7E738BDD406002020B9054B1D
:1020800001225A70FFF7E8BF012802D1014A90707F
:10209000F8E77047CC06002038B5094C23786BB9B7
:1020A00008486360A3602361E36000F0BBF8054665
:1020B00000F0C4F801232370284638BD8525FBE7CE
:1020C000CC0600207D20000038B5134C637805460F
:1020D00003F0FF0073B115B16B6800209847002032
:1020E000FEF7EEFE6368013363600020BDE8384010
:1020F000FEF7E8BEFEF7E4FE25B1A26813463BB941
:102100002A60A5606368002BECD100F0A9F8E9E72C
:102110009D42F7D01B68F2E7CC06002038B5084C8A
:102120000020FEF7CDFE6368013B6360656815B96A
:1021300000F0A8F865700020BDE83840FEF7C2BE88
:10214000CC0600201FB503788DF80030436801935A
:1021500083688DF80830C3680393054A054B6846C9
:1021600053F8213052F82110984705B05DF804FB70
:10217000E0060020E40600201FB503788DF800304B
:102180004368019383688DF80830C3680393054A58
:10219000054B684653F8213052F82110984705B096
:1021A0005DF804FBE0060020E4060020F0B5184BC3
:1021B000077891F81DE043F82720164B16460A6968
:1021C00043F82720144B03F807E00C4684460FCC55
:1021D00089B06D460FC594E80F0085E80F0004979D
:1021E000BEF1000F0AD0002E0C4A694608BF3246E5
:1021F0000CF1040000F088FF09B0F0BD002E084A81
:10220000694608BF32460CF10C0000F06DFDF3E7A3
:10221000E4060020E0060020E8060020452100003A
:1022200079210000044A137923B9012110609180BB
:102230001846704785207047EC060020074B1A6847
:10224000D2075FBFC02283F8002301221A604FF03B
:1022500080430122C3F81825704700BF00E100E069
:10226000074B00221A6082B01B680193019B4FF05C
:1022700080430122C3F804231A6002B0704700BFF4
:1022800000010040074B01221A604FF08042D2F853
:102290000C3403F00113B3F1011FF8D0024B0022FC
:1022A0005A71704704000040EC060020154B07B53A
:1022B0001A687AB100221A601B680093009B4FF0E5
:1022C00080430122C3F808230F4B587910B95A7183
:1022D0001B6898470D4B1A6882B100221A601B6870
:1022E0000193019B4FF080430222C3F80823064B61
:1022F0001B68012003B05DF804EB184703B05DF8DC
:1023000004FB00BF00010040EC0600200401004077
:10231000C02910B525D0B9B180290AD143780478F5
:1023200082781B0243EA044313430F4A0330C2F886
:102330009835437802781B0243EA024382781343BC
:10234000094A0330C2F894350368074A1BBAC2F839
:102350009035D2F8A03523F0C0030B43C2F8A03566
:1023600010BD4021E5E700BF00500040054B0D22A5
:10237000C3F80424044A01211160044AC3F8042369
:10238000704700BF00500040085000408200080025
:10239000034BD3F83C0410F0030018BF0120704732
:1023A00000500040F0B5B0F5A07FA5B070D1FFF7A8
:1023B000EFFF04463A48002C6ED183680133072BA7
:1023C000836065D904230093CDE901440394354D1E
:1023D00000F044FB344B6C724FF48052C3F8082574
:1023E000D3F80825D3F89005D3F8A01511F0C00153
:1023F0001FFA82FC4ED08029D3F8944501BFD3F850
:1024000098358DF812301A0C8DF8102009BF1A0A71
:1024100004AA8DF811200DF11302230C1370230A66
:1024200053709470D31C020E1A70020C5A70020A78
:102430001D4C9A70D8701D4BD4F8A475D4F8046361
:1024400000221A601A6801221A6004A8C4F808C59C
:10245000FFF75EFFD4F8A43507F0600723F06003B0
:102460003B43C4F8A4350323C4F80C35D4F8A03595
:1024700023F01F0343F00403C4F8A0354FF48F6327
:10248000C4F80463C4F808336B680BB16846984716
:1024900025B0F0BD04ABC6E700238360F8E700BFBA
:1024A00030000020F406002000500040FC5F004097
:1024B0000288084B4168C3F81015C2F30802C3F83C
:1024C0001425054A126802F48C62C3F80423012221
:1024D000DA61704700500040F40600200368DBB169
:1024E0000E4A4068C2F810059BB2C3F30800DB0037
:1024F000C3F30B039BB2C2F81405C2F81C35084B9A
:10250000C2F80C151B6803F01803C2F80433054B1E
:1025100001221A60002070470920704700500040D7
:10252000F40600200C50004000F1804000F5A0406F
:102530000123036070470000292812D10C4B1B684F
:1025400013F0010F14BF0B4A0B4A012313600B4B0E
:102550004FF48052C3F808254FF48F62C3F8082364
:10256000704700F1804000F5A04001230360EEE7D2
:1025700020540040285000402450004000500040AB
:102580000278012A08B511D053B21BB1022A1AD021
:10259000002008BD4268B2F5803F20D811494FF6AF
:1025A000FF70824294BFCA60C860F1E701790329D5
:1025B00015D80D4AD2F8A43523F0600343EA41133D
:1025C000C2F8A435E4E7037A4068043BDBB2062B8B
:1025D00096BF064A4021D15CFFF79AFED8E7072054
:1025E000D7E700BFF4060020005000400053000071
:1025F0000A2970B5024630D84FF49263CB40DB43D2
:1026000013F0010029D14FF080540429D4F850541C
:10261000D4F85434D4F8584415704FEA15264FEACC
:1026200015459570DDB25670D57001D1002070BD92
:102630001E0A16710A294FEA13464FEA13635671B0
:10264000937105D1230AD471240C13725472EEE7EE
:10265000882DEBD19923D370E9E70920E7E7000043
:102660002DE9FF41264D2A7A002A47D103C885E883
:1026700003002449244F0323C1F80C35D1F8A035B9
:1026800023F01F0343F00403C1F8A0351F4B2021A2
:102690004FF0C008C3F8801183F805831960042344
:1026A000CDE9022202A98DF80830194A06233846DE
:1026B0008DF80B3000F05CF90446D8B93B68D3F8CC
:1026C000102501264FF4C861D2B2334621FA02F236
:1026D00000960146384600F0EAF9072102A8FFF704
:1026E00087FF4146044602A8FFF712FE4FF48053CD
:1026F0002E72EB60204604B0BDE8F0810824F9E7B3
:10270000F4060020005000403000002000E100E00E
:10271000A5230000024A136823F0010313607047E9
:102720009C550040024A136843F001031360704750
:102730009C5500407FB56D4B1A68EAB16C4AD2F8DF
:102740000423920718D500221A60BFF34F8F694CFB
:10275000637A03F0FF067BB9674D284600F08AF9DB
:10276000284600F06DF90123637202230093636829
:10277000AE600BB168469847604C614D2368002BF2
:1027800031D05B4AD2F804335B062CD5002121609E
:10279000BFF34F8F402301910093D2F8103503937C
:1027A000D2F824355748C3F30B03103BC3F3CC03D3
:1027B0000293036873B1D2F804335E050AD5D2F8E8
:1027C0000C3403F00D0301930160BFF34F8F0D2311
:1027D000C2F80C34474B5B680BB16846984700233E
:1027E0002B60BFF34F8F484E3368ABB1404AD2F8ED
:1027F0000433D90610D500233360BFF34F8FCDE9E2
:1028000001330393102300931823C2F80833394B84
:102810005B680BB1684698473C490B6843B3344A40
:10282000D2F804331B0323D500230B60BFF34F8F73
:102830002360BFF34F8F41F8243CBFF34F8F2B60D1
:10284000BFF34F8F3360BFF34F8F2A498889C2F897
:1028500008050D20C2F80C04C2F80404CDE90133C8
:1028600003934FF4002300934B680BB168469847DD
:1028700027490B68F3B11E4AD2F80433180619D55C
:102880000023D2F804040B60BFF34F8FCDE901336E
:102890000393C1074FF08003009307D50123C2F8CB
:1028A0000434144B5B680BB168469847104B0D22FB
:1028B000C3F804242B68BBB10D4BD3F804231207D3
:1028C00012D500222A60BFF34F8F0A4A52685AB1CC
:1028D00008210091D3F810150291D3F81C35C3F3E9
:1028E000C80301936846904704B070BD045100408E
:1028F00000500040F4060020300000201851004035
:102900000C51004028510040105100404C510040F3
:102910001C510040014B1B68184700BF04070020F2
:1029200038B50B4B98420D4601D0002038BD002031
:10293000FEF7C6FA074B1C7914B901221D601A7103
:102940000020FEF7BFFA002CEFD01120EEE700BF09
:102950000020004004070020034B984201BF034BB6
:1029600000221A601A7170470020004004070020FE
:10297000F7B506792F4D0C237343EF183C7A002CE2
:1029800055D1EA504B687B60477903682246D0B244
:10299000874243D81A0B54B2C878002CA8BF04F160
:1029A0006047D2B2BABF02F00F0C234F07F5614760
:1029B0004FEA4010C0B2B4BF07F80C0087F800031C
:1029C0006409012002F01F021C4F00FA02F247F8CE
:1029D00024204A78D3F8044502F0030224F00304CB
:1029E0002243C3F80425D3F808458A7824F0030469
:1029F00002F003022243C3F80825D3F810450A78F1
:102A000024F00F0402F00F022243C3F810250C2318
:102A100003FB06552872002003B0F0BD900000F5BE
:102A2000A07001321C50185801900198AFE708209F
:102A3000F2E700BF0C07002014ED00E000E100E029
:102A4000036801221A600379034A0C2101FB032366
:102A500002221A72704700BF0C0700200368044965
:102A600001221A6103790C2000FB03131A727047CC
:102A70000C07002003680122DA60704737B54FF475
:102A800080348C4000687BB18B0003F5A073002577
:102A9000C550C3580193019BC0F8044301F5A871C8
:102AA00040F8212003B030BDC0F80843F6E770B409
:102AB000046840F20116D4F800528E4025EA06055B
:102AC000C4F80052D4F800522B43C4F800329DF8E9
:102AD0000C3070BCFFF7D2BF2DE9F341104C114F01
:102AE000114E00254FF48038236883B1D7F80433A2
:102AF00008FA05F21A420AD00023236023680193E2
:102B000004F5A040019B80B2D6E900319847013519
:102B1000062D04F10404E7D102B0BDE8F08100BF46
:102B200040B1014000B001400C0700200023435099
:102B300082B043580193019B02B070470A4610B51A
:102B40004FF48E71FFF7F2FF136A9168C95C136A44
:102B500001331362C0F81C1510BD8B690A4610B50D
:102B60004FF4847123B9FFF7E1FFD0F8183510BD99
:102B7000FFF7DCFF536AD168D0F81805C854536AD0
:102B800001335362F3E700001FB501238DF80030D5
:102B9000044BCDE90110D3E900126846904705B017
:102BA0005DF804FB1807002030B54D4AD2F8043315
:102BB00013F4007F85B015464FD0D2F82431002B96
:102BC0004BD04FF492711046FFF7B0FF4FF40173F2
:102BD000C2F80833434B93F8291009B90121516019
:102BE0003F4902228DF80020D1F88024C1F88024CA
:102BF00003929A690292DA6801920022C3E90622DE
:102C00006846D3E9001290473548D0F81C315BB1D3
:102C100034494A690B6A9A420A464BD991F82830DE
:102C2000002B47D1FFF78AFF2D4AD2F8443193B1E8
:102C30004FF4A2711046FFF779FF2A4B93F8291041
:102C400009B1012111609A692AB100229A61586A7A
:102C5000D968FFF799FF05B030BDD5F804335B079D
:102C6000D2D5D5F80831002BCED01E4C1C482146B9
:102C7000FFF773FF636AA2699A422346C4D1E269EF
:102C8000E1684AB12369E3600023606AA261E361FD
:102C90006362FFF779FFB7E794F829200AB90122A8
:102CA0006A600F4A4FF40170C2F8080300229A616B
:102CB000586AEEE74FF48E710948FFF737FF536902
:102CC000002BB1D051690291002391688DF800303A
:102CD000019153616846D2E900139847A4E700BF09
:102CE00000200040180700202DE9F843564F0479D2
:102CF00091462C2202FB0472064692F82A200D46C9
:102D0000002A40F09A8051490068FFF709FE80468A
:102D1000002840F0958029683368481C0BD04FF09C
:102D2000A04001228A40C0F8082501F5E0724FF06A
:102D3000030C40F822C06868421C1FBF00F5E07217
:102D40004FF0A04C4FF0000E4CF822E0AA6995F825
:102D500014C0C3F824256A7DBCF1010F4CEA0202BD
:102D6000C3F86C25C3F81405C3F80C151DD1AA6867
:102D7000511C1FBF02F5E0714FF0A0404FF0000C56
:102D800040F821C0E968481C0BD04FF0A04C01204E
:102D90008840CCF8080501F5E0704FF0030E4CF8C0
:102DA00020E0C3F80815C3F810252C236343FA1854
:102DB000C2F804902A69FA50B9F1000F2AD04FF4F2
:102DC0008E7130682D7FFFF7B1FE30684FF4A2712D
:102DD000FFF7ACFE32681E4BC2F80433120B51B23F
:102DE0000029A8BF01F160404FEA4513BABF194856
:102DF00002F00F0500F56140DBB2B4BF435580F827
:102E0000003302F01F02012303FA02F24909124BB8
:102E100043F8212033680422C3F800252C2303FB48
:102E200004730022C3E9062283F829205A61012293
:102E300083F82A204046BDE8F8834FF00808F9E7F8
:102E40004FF01108F6E700BF18070020A92B00007B
:102E50008000020014ED00E000E100E0F8B5047924
:102E600000682D4D0023C0F800352C2303FB0453CC
:102E70005B6873B1294BC0F80833020B53B20121D0
:102E80005B0902F01F0201FA02F22033244941F8E3
:102E90002320D0F80C65D0F81415D0F80835D0F8F8
:102EA00010254FF0FF37BE42C0F8147518BF06F565
:102EB000E076C0F80C75C0F80875C0F810751EBF34
:102EC0004FF0A0474FF0020C47F826C04E1C1FBF22
:102ED0004FF0A04601F5E071022746F82170511C21
:102EE0001FBF4FF0A04102F5E072022641F82260B8
:102EF0005A1C1FBF03F5E0734FF0A042022142F8B5
:102F00002310FFF729FD2C2303FB0454002384F82E
:102F10002A306360F8BD00BF180700208402020059
:102F200000E100E02DE9F84F224F06794FF02C091F
:102F300009FB067480466569002D38D16261A16085
:102F400025624FF48E71006884F82850FFF7EEFD7B
:102F5000D8F80000012383602146FFF7EFFD636886
:102F6000A1469BB9D8F800A0D4F814B0236A9B45B9
:102F700012D8D8F80020D2F81C31002BFBD0012346
:102F8000D3602C2303FB067300225A612846BDE858
:102F9000F88F94F8283043B9DAF81C31002BF8D0B8
:102FA00049465046FFF7CAFDE0E70F25E9E711253E
:102FB000ECE700BF180700200023435082B04358BD
:102FC0000193019B02B070471FB501238DF80030BB
:102FD000044BCDE90110D3E900126846904705B0D3
:102FE0005DF804FB440700207FB5454AD2F8246110
:102FF000002E63D010464FF49271FFF7DDFF0223DD
:103000008DF80030D2F88034C2F880340393D2F8BF
:103010003C3502933B4BDA6801920022C3E9062259
:103020006846D3E900129047354AD2F844317BB163
:103030004FF4A2711046FFF7BFFF324B996939B1C7
:103040000021C3E90611D968D2F83C05FFF7BCFF9F
:103050002B4AD2F82031B3B14FF490711046FFF7EC
:10306000ABFF0123D360274B596961B1D2F84C15EE
:103070000291002299688DF8002001915A616846FA
:10308000D3E9001290471E4AD2F85831A3B14FF449
:10309000AC711046FFF790FF1A4B596961B1D2F835
:1030A0004C150291002299688DF8002001915A6117
:1030B0006846D3E90012904704B070BDD2F81031D1
:1030C000002BB1D04FF488711046FFF775FF0D4B00
:1030D000D2F83C0599698842A6D1DC69D96864B107
:1030E000D2F8005225F02005C2F800521A699C61FE
:1030F000DA60DE61FFF768FF96E79C61FAE700BFE0
:1031000000200040440700202DE9F8435C4F067979
:103110009146242202FB0672044692F820200D46B6
:10312000002A40F0A78057490068FFF7F9FB804666
:10313000002840F0A28029682368481C0BD04FF07B
:10314000A04001228A40C0F8082501F5E0724FF046
:10315000030C40F822C06868421C1FBF00F5E072F3
:103160004FF0A04C4FF0000E4CF822E0AA6995F801
:1031700014C0C3F824256A7DBCF1010F4CEA020299
:10318000C3F86C25C3F80C15C3F814051DD1AA6843
:10319000511C1FBF02F5E0714FF0A0404FF0000C32
:1031A00040F821C0E968481C0BD04FF0A04C01202A
:1031B0008840CCF8080501F5E0704FF0030E4CF89C
:1031C00020E0C3F80815C3F8102524237343FA1828
:1031D000C2F804902A69FA50B9F1000F39D04FF4BF
:1031E000887120682D7FFFF7E7FE4FF4907120680B
:1031F000FFF7E2FE4FF492712068FFF7DDFE4FF417
:10320000A2712068FFF7D8FE20684FF4AC71FFF779
:10321000D3FE22681C4BC2F80433120B51B20029B2
:10322000A8BF01F160404FEA4513BABF174802F04A
:103230000F0500F56140DBB2B4BF435580F80033A1
:1032400002F01F02012303FA02F24909104B43F86E
:10325000212023680822C3F80025242303FB0673DA
:103260000022C3E906225A61012283F82020404649
:10327000BDE8F8834FF00808F9E74FF01108F6E7CA
:1032800044070020E92F00001003420014ED00E085
:1032900000E100E0F8B5374D0479242303FB045323
:1032A00006465B68006873B1334BC0F80833020B05
:1032B00053B201215B0902F01F0201FA02F220332E
:1032C0002E4941F82320D0F80032012223F02003B8
:1032D000C0F800324FF4AC714260FFF76DFE306809
:1032E000C260D0F85831002BFBD00023C0F8003565
:1032F000D0F80C65D0F81415D0F80835D0F81025A2
:103300004FF0FF37BE42C0F80C7518BF06F5E076E7
:10331000C0F81475C0F80875C0F810751EBF4FF0DE
:10332000A0474FF0020C47F826C04E1C1FBF4FF0BD
:10333000A04601F5E071022746F82170511C1FBF1D
:103340004FF0A04102F5E072022641F822605A1CBB
:103350001FBF03F5E0734FF0A042022142F8231093
:10336000FFF7FAFA242303FB0454002384F82030E7
:103370006360F8BD440700201003420000E100E054
:1033800001F06043B3F1005F2DE9F041074638D109
:103390001E4B0679242505FB063598466C69002CE2
:1033A00031D16A61A96000684FF49071FFF704FEA3
:1033B0004FF4AC713868FFF7FFFD3B686A69A96894
:1033C000C3F84415C3F8482501229A606A68AAB96F
:1033D000D3F82021D3F858411AB9002CF8D00F2483
:1033E00007E0002CFBD10122DA60D3F85821002A33
:1033F000FBD0242303FB0686002373612046BDE82F
:10340000F0811024FAE71124F8E700BF44070020F8
:1034100070470000002108B50846FDF76BF908B1B8
:10342000FDF7A0FCFDF7A0F8164A04210020FDF7E7
:10343000DFFC08B1FDF796FC0021134800F0A4FB67
:1034400008B1FDF78FFC4FF48061104800F0B4F92B
:1034500008B1FDF787FC0E4B0E480F49C01AC00893
:10346000000440F00300FDF705FB00F0C7FB08B1C6
:10347000FDF778FCFDF7E0FCFDF796F90028FBD19D
:1034800020BFF7E7680700201134000090070020F4
:10349000E848000018490000215300000C4B1B783D
:1034A000062B10D10B4B1B681A070CD10A4B18685E
:1034B00000F0F003302B08D000F0E000A0F1400352
:1034C000584258417047002070470120704700BFA4
:1034D000E00F00F0E40F00F0E80F00F0094B1B785C
:1034E000062B0CD1084B1B681A0708D1074B18682C
:1034F00000F0F000A0F1300358425841704700201E
:10350000704700BFE00F00F0E40F00F0E80F00F09C
:1035100008B5FFF7C3FF28B17D4B7E4A1B68C3F394
:1035200004231360FFF7DAFF10B17B4B7B4A1A606C
:10353000FFF7B4FF28B17A4B7A4A1B68C3F34233D2
:103540001360FFF7CBFF20B1774AD36823F0807375
:10355000D360FFF7A3FF40B14FF080430022C3F8D0
:103560000C21C3F81021C3F83825FFF7B7FF10B1BD
:103570006E4B03221A60FFF7B1FF40B16C4B05227E
:103580001A6001229A6700229A603F225A60694BB2
:103590001B78062B50D1684B1B6819074CD1674B21
:1035A0001B6803F0F003502B46D14FF08052644B60
:1035B000D2F80414C3F82015D2F80814C3F824155F
:1035C000D2F80C14C3F82815D2F81014C3F82C152F
:1035D000D2F81414C3F83015D2F81814C3F83415FF
:1035E000D2F81C14C3F84015D2F82014C3F84415BF
:1035F000D2F82414C3F84815D2F82814C3F84C158F
:10360000D2F82C14C3F85015D2F83014C3F854155E
:10361000D2F83414C3F86015D2F83814C3F864151E
:10362000D2F83C14C3F86815D2F84014C3F86C15EE
:10363000D2F84424C3F87025FFF730FF28B1414B7E
:10364000414A1B6803F04F031360FFF727FF48B19F
:103650004FF08043D3F80024D20744BF6FF001023B
:10366000C3F80024394B1B68062B08D1384B1B6864
:10367000062B01BF374A136843F480631360364A50
:10368000D2F8883043F47003C2F88830BFF34F8F0C
:10369000BFF36F8F4FF01023D3F80022002A03DB13
:1036A000D3F80432002B2FDA2C4B0122C3F8042567
:1036B000D3F80024002AFBD04FF010221521C2F8C5
:1036C0000012D3F80024002AFBD04FF0102315225B
:1036D000C3F80422214B1A46D3F800140029FBD06A
:1036E0000021C3F80415D2F80034002BFBD0BFF33F
:1036F0004F8F19491A4BCA6802F4E0621343CB603A
:10370000BFF34F8F00BFFDE7164B174A1A6008BD85
:10371000240300104035014074C007400DF0ADBADD
:10372000440200103C050040F0ED00E0A005004020
:1037300010560040E00F00F0E40F00F0E80F00F03A
:1037400000C0004058020010E40E0040300100109C
:10375000340100103C17004000ED00E000E00140A3
:103760000400FA053C0000200090D00308B9FEF7E1
:10377000DBBE7047074B084A10B500245A601C6036
:10378000FEF78AFC852803D0A04218BF032010BD95
:103790002046FCE7900B00206D3700000368022BE9
:1037A00002D0042B03D070470248FEF78DBCFEF711
:1037B000B5BC00BF900B00204FF6F073994208D8BB
:1037C00001B130B1114B1A78022A00D01AB9082081
:1037D00070470C207047012AF9D130B4DC681962B7
:1037E0000D0A1861986183F83920E572D968186A62
:1037F000087393F839001A70DB6818B9FF229A73BE
:1038000030BC704700209873FAE700BFA80B002077
:1038100070B51B4CE26A0D2A0ED0636A194D013354
:1038200002D0E26A072A12D0606B17492B460022A9
:10383000BDE8704000F06ABB1449A06A00F08DFF3B
:103840000028EAD1E26A6062072A114DECD11149E1
:10385000A06A00F082FF70B9E26A0D4D6062072A2B
:10386000E2D10D49A06A00F078FF0028DCD10123E5
:103870006362074DD8E7636A0133D5D0E26AEEE7A9
:10388000A80B002054530000705300007453000034
:1038900058530000845300008C530000F0B5254CB1
:1038A000E26A042A83B002D9636A012B08D0224B52
:1038B000606B2249002203B0BDE8F04000F026BB57
:1038C00094F83930002BF2D0A16A206A8B78CD7839
:1038D0000E7905EB0325AB198342E8D8053AB242CD
:1038E00011D0276B012FE2D120690531284400F067
:1038F0006FFFE36A124A053B2B4493601773C2E9DA
:10390000006503B0F0BD20690531284400F060FF78
:10391000012D0CDC2269A0681178537865680022BB
:1039200003EB012300920421A847064BC0E7054B97
:10393000BEE700BFA80B00205C53000070530000DE
:10394000980B00205853000070B51C4C1C4D20698A
:10395000AB68D4E90A12184482B000F039FFD4E908
:103960000B12AB68012A0B44AB6022D0D5E90012E0
:103970009B1A8B420ED0134D11481022002100F0EB
:1039800050FF606B10492B46002202B0BDE870402A
:1039900000F0BCBA012A0ED82269A06811785378C9
:1039A00066680A4D002203EB012300920421B04710
:1039B000E2E702B070BD054DDEE700BFA80B0020B6
:1039C000980B00205C530000705300005853000017
:1039D000F0B5364C2378022B83B001D003B0F0BD94
:1039E0002369F3B1324B1B7B3BBBE36A012B0ED93E
:1039F000A26A107830B95178A42928D0B0292BD0E8
:103A0000D6291FD0606B2B4B2B49002204E0606B42
:103A1000002BF7D128491A4603B0BDE8F04000F06A
:103A200075BAA369002BDDD1216BA068D4E90A2304
:103A3000009164680621A047D0E703B0BDE8F040DC
:103A4000FFF782BF03B0BDE8F040FFF727BF03B028
:103A5000BDE8F040FFF7DCBE042B14D9656A967808
:103A6000D378127904EB850103EB0623C9699E180C
:103A70008E4208D804EB8501012D4969194406D00E
:103A80000E4B606BC8E702460B490D4BF9E7A56981
:103A90002F786D7805EB0725AB4203D2AE4234BFD9
:103AA0000020012084F83800044BEAE7A80B00202E
:103AB000980B00205453000070530000585300002E
:103AC0005C53000070B52E4C82B08442069D01D03C
:103AD00002B070BD0139C4E90A2325630529F7D86E
:103AE00001A353F821F000BF633B0000433B0000FB
:103AF000D13A0000D13A00000B3B0000013B00002E
:103B000002B0BDE87040FFF763BF94F838304BB1A6
:103B10000025D4E901602B4600952A460321B047D1
:103B200084F838502369002BD2D1A369002BCFD160
:103B3000216BA068D4E90A23069164680521A44694
:103B40000BE065684FF0FF336362002DC0D00023A7
:103B5000A06806931A460221AC4602B0BDE8704048
:103B6000604710220021074800F05BFE6568002DC9
:103B7000AED00023A06806931A460121ECE700BFEF
:103B8000A80B0020980B002070B32DE9F041174CD2
:103B90002578022D25D025BBDFF85C8006460F4630
:103BA00001231349237040460F2200F011FE4FF00D
:103BB0000F0C4FF0FF3304F134022046C4F80C80A0
:103BC000C4F814802561A561256284F83950C4E9E0
:103BD0000167C4F81CC063620649BDE8F04100F00B
:103BE0002BBA0820BDE8F08107207047A80B002001
:103BF00060530000C53A0000000D002008B5074AD8
:103C00001378022B00D00BB9082008BD012BFBD183
:103C10000223137000F06AF9002008BDA80B0020F1
:103C200070B50446FFF7BAFD2368102B4AD007D9B8
:103C3000802B22D0B3F5002F34D0402B26D070BD7E
:103C4000042B59D0082BFAD14F4B1B78002BF6D000
:103C5000A268137803F0F703C22B02D14B4B01216A
:103C600019704B4B1D68002DE9D04A4963680868FC
:103C7000AC460421BDE8704060472379002BDED1BB
:103C8000454A11780029DAD0137070BD6368002BA3
:103C900041D03D4B1B78002B5BD12920BDE8704003
:103CA000FEF74ABC3D48FEF703FC394B1C682CB1BB
:103CB000384A0023106819461A46A047324B0022A2
:103CC0001A7070BD314C2378002B3ED0FEF722FDD8
:103CD0002820FEF731FC2C4A0023237013702C4B54
:103CE0001C68002CABD02B4A00231068A4461A464F
:103CF0000321BDE870406047FEF70CFD244B1C68B3
:103D0000002C9CD0234A00231068A4461A460121A7
:103D1000BDE8704060471C4D2B78FBB9204B1A78EA
:103D2000E02A1FD01B78502B26D02920FEF704FC58
:103D3000174B1D68002D82D0164AA3681068184AD8
:103D4000AC460221BDE8704060471448FEF7B0FB66
:103D5000C5E71248BDE87040FEF7AABB0F48FEF762
:103D6000A7FBE5E75A7802F00F020F2ADAD0FEF738
:103D7000D9FC01232B70DBE7074B012228201A70A6
:103D8000FEF7DAFBD4E700BFFC0C0020E40B0020B8
:103D9000E80B0020EC0B0020FB0C00209C530000E3
:103DA000F00B0020F0B5194B194A1A4D1A4E044673
:103DB0000F4693E8030087B0146001AC84E8030069
:103DC0002A783760012303A88DF810208DF80C3075
:103DD000FEF7D6FB70B9114E9DF8102037788DF89C
:103DE0000C004FF48053BB4003A804932A70FEF7E5
:103DF000C7FB08B107B0F0BD3770FFF7BBFC002868
:103E0000F8D12046FEF72CFCF4E700BF94530000E5
:103E1000E80B002041000020EC0B002040000020B7
:103E200010B5012884B013460BD0022804D0032813
:103E300028D0002004B010BD012A14D0092004B0FD
:103E400010BD012AFAD10C784FF48053A340002210
:103E500001A802938DF80420FEF792FB0028E9D117
:103E60001E4B1C70E6E70A788DF8082001A88DF833
:103E70000430FEF785FB0028DCD1194B9DF80820A3
:103E80001A70D7E7012A18D00A2AD7D84FF49260BF
:103E9000D040C007D2D5134C1348227000F098FCD4
:103EA0002278114B8DF80C2001A802228DF80420F5
:103EB0000293FEF765FB04B010BD0A780A2ABDD84C
:103EC0004FF49263D340DC07B8D5064C0648227005
:103ED0000A21FEF78DFB0028E2D0ABE7400000206E
:103EE00041000020FA0C0020F00C0020FEF73EBA42
:103EF00000B5002A83B0CDE9001014BF02210321D0
:103F00006846FEF7EBFA03B05DF804FBF8B5484CE1
:103F1000844201D00720F8BD0029FBD04FF6F07095
:103F20008242F7D8D4F8400108B10820F8BD94F8CF
:103F300022010028F9D013B1C4F844310223207FB4
:103F4000C4F83C3194F82951C4F8401100F0010341
:103F500043F002030020C4F834216377C4F8380129
:103F6000002D40D101262569AD1BAA428ABF43F02E
:103F7000100315466377002D3CD12846A919DD06AC
:103F80001ED4D4F83C71DFB12569A94244D2D4F8DB
:103F900044C1C7F1020663181CF806605E777B1EF9
:103FA000C4F83C314E1CDBB3B5423BD9C3F102032C
:103FB00026441CF803307377023FC4F83C71023189
:103FC00090426161C4F8380105D3D4F83C3113B98B
:103FD000012384F8263194F82421C2B1012384F806
:103FE00025310020F8BD43F0080320796377A077DE
:103FF0000226B8E706F11D002A46204400F0E8FB3F
:10400000D4F83801637FD4F834212844B6E709484E
:10401000BDE8F840FFF76CBF43F010036377CFE7CC
:104020003146CDE7637F43F0100331466377C7E73E
:10403000100D00202D0D0020F0B5194C83B094F820
:10404000273104258DF807503BBB32B315460F4688
:10405000064619464FF4A472204600F0E2FB02A97E
:104060004FF4807011F8013DA371012202232060FA
:10407000E37110462C60C4F82C71C4F83061FFF76E
:10408000CFFE58B921460748FFF78CFEB0FA80F3FF
:104090005B0984F8273103B0F0BD072003B0F0BD01
:1040A000100D002025430000F8B5037F90F829216A
:1040B000D0F8387103F0010343F00203044643775C
:1040C0000AB1002F52D001262269D4F83401921B84
:1040D000C51BAA4203D243F0100363771546002D97
:1040E0004BD1DA0605EB060102D4D4F83C21EAB93B
:1040F0003D448542C4F83851616102D3D4F83C3163
:104100003BB194F824215AB1012384F825310020D1
:10411000F8BD94F82421012384F82631002AF3D134
:1041200004F11D00BDE8F840FFF7E2BE26698E42AB
:1041300032D9D4F844E1C2F1020C63181EF80CC065
:1041400083F81DC0531EC4F83C3101F1010C3BB390
:10415000664527D9C3F10203A4441EF803308CF846
:104160001D30023AC4F83C210231C1E743F0080394
:104170000279437782770226A6E7D4F8401106F148
:104180001D00394420442A4600F022FB637FD4F806
:104190003871D4F83401A4E743F010036377A7E73C
:1041A0006146A5E7637F43F01003614663779FE7AD
:1041B0000368102B12D0182B29D0202B29D0282BA4
:1041C00029D0302B29D0402B29D0602B2BD0802B0D
:1041D0002BD0B3F5807F24D003207047002130B46A
:1041E0008479C279034641F07001817742EA041272
:1041F00080250224052180F82020C57780F8214001
:1042000003F81D1F0022184630BCFFF771BE0121C4
:10421000E5E70221E3E70321E1E70421DFE70521E8
:10422000DDE70821DBE70621D9E70721D7E700BF53
:1042300010B4837990F829110122C3F10703F22405
:1042400002FA03F380F81F41DBB2A1B1FA2102792F
:1042500080F81F1180F820210321022202443B2B09
:1042600028BF3B2382F81F3100F21F1001225DF8A6
:10427000044BFFF73DBE0221F0E700BF037F90F83B
:10428000292103F0010363F05D03DBB243774AB1F8
:104290000279827743F00803437702211D30002220
:1042A000FFF726BE01211D300022FFF721BE00BF0F
:1042B00090F824311BB1002380F8243170478368C3
:1042C0000279197809071ED412BBC22380F829216C
:1042D0004377012110B5002204461D30FFF708FE88
:1042E00000230122227784F8243184F8253184F8D0
:1042F0002331A4F82831A380C4F84031C4F8343104
:10430000C4F8383110BD5B7803F00F03934200D03E
:1043100070470121CA2280F8291183774277022150
:10432000D8E700BF70B5B84C844282B001D002B06B
:1043300070BD0429FBD8DFE801F08F71321903004A
:10434000117801F0F701F22916BF002301210021A5
:10435000A36184F82411137803F0F603A3F1120388
:10436000B3FA83F35B0984F82331E0E7A569002DF4
:10437000DDD194F82631002BD9D0D4F83431D4F8DB
:104380004021D4F830010095D4F82C610521B047C4
:10439000C4F8405184F8225184F82651C7E7C4E993
:1043A0000223002BC3D0002AC1D0117801F0F00005
:1043B0009028BCD0D028BAD08E075AD594F82801BE
:1043C000002800F08580480640F1868001F0F70360
:1043D000C22B00F0BA80F22BA9D194F82431002B23
:1043E000A5D00E07237940F10081517801F00F012B
:1043F00099429CD1012384F82931137813F0080FD6
:1044000014BF02230123E118D25C91F81F319A42B4
:1044100000F01481002384F8243188E7D4F82C516B
:1044200000230122227784F8243184F8253184F88E
:104430002331A4F82831A380C4F84031C4F83431C2
:10444000C4F83831002D3FF472AFD4F83001009336
:104450001A460221A8476AE7D4F82C51002D3FF4F0
:1044600066AF0023D4F8300100931A460121A84713
:104470005DE7E0297FF45BAF94F82831002B7FF4EF
:1044800056AF0123237784F8283153785F491B09FD
:1044900051F82330023B2361537803F00F031A1CB9
:1044A00018BF01220F2B237184F8292147D1002343
:1044B00084F8243184F8253184F82331A4F8283194
:1044C000A380C4F84031C4F83431C4F838312EE741
:1044D000E0297FF42CAFD4E701F0E60002283AD0BF
:1044E000A2287FF424AF0D07207972D5517801F00E
:1044F0000F0188427FF41BAF012184F82911127843
:1045000012F0080F14BF022101218B427FF40FAF7C
:1045100002F0010112F01002237F6CD18B4279D19D
:10452000A369002B40F09380616900293FF4FFAE3E
:104530001A46374802B0BDE87040FFF7D9BC324890
:1045400002B0BDE87040FFF733BE2F4802B0BDE8AF
:104550007040FFF7ADBE94F8240100287FF45AAFF5
:104560000E0720793BD5517801F00F0188427FF486
:10457000DEAE012184F82911117894F8230111F09D
:10458000080F14BF02250125002853D1480704D580
:10459000505D6179884208BF0135217F81F00101BA
:1045A000217710784140C9073FF5C1AE10F01006E1
:1045B00053D001215B1B2A440091D4F82C51D4F82C
:1045C00030010621A847104802B0BDE87040FFF74F
:1045D00055BE00287FF4ABAE84F829018FE7002890
:1045E0007FF4A5AE84F82901C6E7002B7FF49FAEC7
:1045F00084F8293101E78B42E5D1A2699AB9616952
:1046000000293FF494AE94E7100D0020A45300005D
:104610002D0D00201F4883F00103237702B0BDE871
:104620007040FFF741BD012311461B4884F8243137
:1046300000227FE7002384F8233178E694F82531BF
:10464000EBB9144802B0BDE87040FFF7F1BD194660
:104650000123114884F824316CE70E48FFF7E8FD88
:10466000D4E9022301215B1B2A4484F8221100961D
:10467000D4F82C51D4F830010621A84757E600227F
:1046800061690648FFF734FC002384F8253184F87B
:1046900024314CE6100D00202F0E00202D0D00209F
:1046A0007F2805D8034B185C034B5B5C18407047B0
:1046B00000207047E453000064540000A0F161033F
:1046C000192B98BF20387047A0F14103192B98BFD0
:1046D000203070477F2805D8034B185C034B5B5C88
:1046E0001840704700207047E453000064540000F5
:1046F000A0F16103192B98BF20387047A0F1410346
:10470000192B98BF203070477F299ABF0170012074
:104710006FF02E0070475AB10A787F2A0AD800B18C
:104720000260002119605960501A18BF01207047BB
:10473000002070476FF02E007047000008B5034B53
:104740005B689B681B68984708BD00BF4400002059
:1047500008B50921FFF7F2FF08BD002A36D070B472
:1047600013460F2A1AD940EA010212F0030F01D0B2
:104770005A1E15E004680A689442F9D1043B041DEE
:104780000A1D114620460434043206680D68AE4204
:10479000EED120461146043B042BF2D85A1E10D00D
:1047A00004780B789C420CD1431C4C1C02441846E4
:1047B0002146934205D00133013406780D78AE428C
:1047C000F5D000780B78C01A70BC70470020704795
:1047D000844640EA010313F0030F18D18446202ACF
:1047E0000BD32DE9F007B1E8F807A0E8F807A2F12C
:1047F0002002202AF7D2BDE8F007042A07D351F897
:10480000043B40F8043BA2F10402042AF7D2002A38
:1048100005D011F8013B00F8013B013AF9D160469F
:1048200070478446002A2DD010F0030F04D000F802
:10483000011B013A26D0F7E7C9B241EA012141EA5A
:104840000141202A12D3A2F120022DE9F0030B46E8
:104850000C460D460E460F4688468946A0E8FA03E8
:10486000203AFBD2BDE8F00320320BD0042A05D356
:1048700040F8041B043A05D0042AF9D200F8011BC1
:10488000013AFBD16046704700F1010110F0030FBF
:1048900011D010F8012B002A23D010F0030F0AD0FA
:1048A00010F8012B002A1CD010F0030F03D010F8D1
:1048B000012B002A15D02DE970004FF001324FF086
:1048C000803350F8044BA4EB020525EA04051D4093
:1048D00000D1F6E7A0F1040070BC10F8012B002A0B
:0848E000FBD1A0EB01007047C1
:1048E800FA5200000000000007530000000000001A
:1048F8000C530000000000001053000000000000EE
:1049080016530000000000001B53000000000000C8
:10491800D549000000000303F45200000000000025
:104928001E51000000000303485300000000030369
:08493800E75200000000030338
:104940009849000000000000A44900002800002051
:104950009C000020640100206C010020A4000020C5
:04496000180000003B
:1049640000000000000000008116000000000000AC
:04497400000000003F
:10497800FFFFFFFFFFFFFFFFFFFFFFFFFFFFFFFF3F
:1049880000000000000000000000D6010601000041
:1049980095040000390500009104000075617274E7
:1049A8005F6C6F675F6261636B656E640000000037
:1049B800900500207F000000100600204261636B14
:1049C800656E647320666C757368656400617070E9
:1049D800000000000F4A0000584A0000174A000073
:1049E800604A0000684A0000704A0000784A0000E7
:1049F800804A0000884A00002025303278002020B4
:104A080020007C002563001B5B306D002573001BB4
:104A18005B313B33316D0025734C6F6773206472D3
:104A28006F70706564202825642925730D0A003C81
:104A380025733E2025733A20000000000000000086
:104A4800A94A0000904A0000984A00009D4A0000C8
:104A58001B5B313B33306D001B5B313B33326D00E8
:104A68001B5B313B33336D001B5B313B33346D00D3
:104A78001B5B313B33356D001B5B313B33366D00BF
:104A88001B5B313B33376D007761726E696E67006F
:104A9800696E666F00646562756700466174616C73
:104AA800206572726F720053797374656D20726538
:104AB800736574000000FFFFDEC0ADDEFE011EF16D
:104AC800DEC0ADDEFF011EF148415244204641558B
:104AD8004C542061742030782530385800202052FA
:104AE800303A2020307825303858202052313A206A
:104AF80020307825303858202052323A202030781B
:104B080025303858202052333A2020307825303844
:104B1800580020205231323A203078253038582039
:104B2800204C523A202030782530385820205053D5
:104B3800523A2030782530385800537461636B201E
:104B480076696F6C6174696F6E3A20737461636B18
:104B580020706F696E746572206F7574736964650F
:104B680020737461636B20617265612E0043617507
:104B780073653A204275734661756C74206F6E20B8
:104B88006120766563746F72207461626C6520724F
:104B980065616420647572696E6720657863657005
:104BA80074696F6E2070726F63657373696E672EB8
:104BB8000043617573653A2025732E004D656D4D70
:104BC800616E616765204661756C7420416464722A
:104BD8006573733A20307825303858004275732051
:104BE8004661756C7420416464726573733A203051
:104BF8007825303858000000684C0000A84C0000A8
:104C080000000000014D00004A4D0000934D0000D7
:104C18000000000000000000DC4D0000F24D000024
:104C28005D4E0000C84E0000094F00004A4F0000CA
:104C38000000000000000000684C00008D4F0000DC
:104C4800E64F00006D50000000000000000000006A
:104C58000000000000000000A1500000D350000038
:104C68005468652070726F636573736F7220686132
:104C78007320617474656D7074656420746F206549
:104C880078656375746520616E20756E6465666904
:104C98006E656420696E737472756374696F6E00F3
:104CA8005468652070726F636573736F72206174E6
:104CB80074656D707465642061206C6F6164206F29
:104CC800722073746F72652061742061206C6F6349
:104CD8006174696F6E207468617420646F657320F5
:104CE8006E6F74207065726D697420746865206FCA
:104CF8007065726174696F6E00556E737461636B71
:104D080020666F7220616E20657863657074696FC4
:104D18006E2072657475726E2068617320636175A8
:104D2800736564206F6E65206F72206D6F726520E9
:104D38006163636573732076696F6C6174696F6E04
:104D48007300537461636B696E6720666F722061CC
:104D58006E20657863657074696F6E20656E747215
:104D6800792068617320636175736564206F6E656F
:104D7800206F72206D6F72652061636365737320A5
:104D880076696F6C6174696F6E730041204D656D53
:104D98004D616E616765206661756C74206F636331
:104DA800757272656420647572696E6720666C6FCF
:104DB8006174696E672D706F696E74206C617A79A1
:104DC800207374617465207072657365727661749E
:104DD800696F6E00496E737472756374696F6E20C3
:104DE800627573206572726F72004461746120622B
:104DF8007573206572726F72202850432076616C3B
:104E0800756520737461636B656420666F722074C6
:104E1800686520657863657074696F6E2072657463
:104E280075726E20706F696E747320746F20746869
:104E38006520696E737472756374696F6E20746827
:104E480061742063617573656420746865206661A8
:104E5800756C7429004461746120627573206572F1
:104E6800726F72202872657475726E206164647244
:104E780065737320696E2074686520737461636B51
:104E8800206672616D65206973206E6F742072658B
:104E98006C6174656420746F2074686520696E7332
:104EA8007472756374696F6E2074686174206361CD
:104EB8007573656420746865206572726F72290065
:104EC800556E737461636B20666F7220616E206526
:104ED8007863657074696F6E2072657475726E2080
:104EE80068617320636175736564206F6E65206FF8
:104EF80072206D6F7265204275734661756C7473AC
:104F080000537461636B696E6720666F7220616E0F
:104F180020657863657074696F6E20656E74727948
:104F28002068617320636175736564206F6E652006
:104F38006F72206D6F7265204275734661756C746F
:104F480073004120627573206661756C74206F630D
:104F580063757272656420647572696E6720666C29
:104F68006F6174696E672D706F696E74206C617AF9
:104F780079207374617465207072657365727661E7
:104F880074696F6E005468652070726F636573731F
:104F98006F722068617320617474656D70746564E4
:104FA80020746F206578656375746520616E20696B
:104FB8006E737472756374696F6E2074686174209F
:104FC8006D616B657320696C6C6567616C207573C6
:104FD80065206F66207468652045505352005468F8
:104FE800652070726F636573736F722068617320D8
:104FF800617474656D7074656420616E20696C6C91
:105008006567616C206C6F6164206F66204558434A
:105018005F52455455524E20746F20746865205075
:10502800432C206173206120726573756C74206F46
:105038006620616E20696E76616C696420636F6EAC
:10504800746578742C206F7220616E20696E7661A9
:105058006C6964204558435F52455455524E20763A
:10506800616C7565005468652070726F6365737351
:105078006F722068617320617474656D7074656403
:1050880020746F20616363657373206120636F70A0
:10509800726F636573736F72005468652070726F06
:1050A800636573736F7220686173206D6164652036
:1050B800616E20756E616C69676E6564206D656DE3
:1050C8006F7279206163636573730054686520703B
:1050D800726F636573736F7220686173206578659A
:1050E800637574656420616E2053444956206F725D
:1050F800205544495620696E737472756374696FDC
:105108006E207769746820612064697669736F72AC
:10511800206F66203000686172646661756C740087
:1051280030313233343536373839414243444546D5
:105138006E72665F6673746F726167655F777269B6
:105148007465006E72665F6673746F726167655F1F
:10515800657261736500616464725F69735F706131
:1051680067655F616C69676E656428705F66732C3C
:1051780020706167655F61646472290061646472AC
:105188005F69735F77697468696E5F626F756E6473
:105198007328705F66732C20706167655F61646453
:1051A800722C20286C656E202A20705F66732D3E55
:1051B800705F666C6173685F696E666F2D3E6572BD
:1051C8006173655F756E6974292900705F66730085
:1051D800257320636865636B206661696C6564206C
:1051E800696E202573282920776974682076616C98
:1051F800756520307825782E00705F6465737400BB
:105208006C656E00616464725F69735F616C696785
:105218006E65643332287372632900616464725F57
:1052280069735F77697468696E5F626F756E6473BE
:1052380028705F66732C207372632C206C656E294E
:1052480000705F66732D3E705F61706900705F73F8
:1052580072630021286C656E202520705F66732DAF
:105268003E705F666C6173685F696E666F2D3E7035
:10527800726F6772616D5F756E697429006164642D
:10528800725F69735F616C69676E65643332286445
:105298006573742900616464725F69735F616C6926
:1052A800676E65643332282875696E7433325F74AB
:1052B80029705F7372632900616464725F69735F48
:1052C80077697468696E5F626F756E647328705F62
:1052D80066732C20646573742C206C656E29006ECF
:1052E80072665F6673746F7261676500636C6F6383
:1052F8006B00434C4F434B00004040404040804EC1
:10530800464354005052530054494D4552005541AC
:105318005254005541525445005772697461626C89
:1053280065204E444546206D657373616765206549
:1053380078616D706C6520737461727465642E0099
:105348006E6465665F66696C655F6D006A82000001
:10535800900000006B000000000F2000F800F80427
:1053680006E10400000000000000000000A40400A2
:1053780007D27600008501010000000000A4000C9F
:1053880002E1030000A4000C02E10400580400003C
:10539800213C000000010000F00B0020100000007C
:1053A8001800000020000000280000003000000065
:1053B80040000000600000008000000000010000C4
:1053C80000000000000000000000000000000000D5
:1053D8000000000000000000000000002020202045
:1053E800202020202068282828282020202020204D
:1053F80020202020202020202020202048101010AD
:1054080010101010101010101010101084848484C4
:105418008484848484841010101010101081818179
:1054280081818101010101010101010101010101E4
:105438000101010101010110101010101082828277
:1054480082828202020202020202020202020202B4
:1054580002020202020202101010102000070320AC
:105468000417020108571040800000001856000079
:10547800DC540000F055000053756E004D6F6E004F
:105488005475650057656400546875004672690074
:1054980053617400000000004A616E0046656200B6
:1054A8004D617200417072004D6179004A756E005D
:1054B8004A756C0041756700536570004F6374004E
:1054C8004E6F76004465630000000000414D0050B7
:1054D8004D00000014560000105600001056000041
:1054E800105600001056000010560000105600001C
:1054F800105600001056000010560000FFFFFFFF76
:10550800FFFFFFFFFFFFFFFFFFFF000050550000F8
:10551800805400008C550000A0540000D4540000B2
:1055280034550000E455000040550000256D2F2536
:10553800642F25790000000025612025622025655B
:10554800202554202559000053756E646179004D5B
:105558006F6E64617900547565736461790057658D
:10556800646E6573646179005468757273646179F7
:105578000046726964617900536174757264617977
:10558800000000004A616E756172790046656272BA
:1055980075617279004D6172636800417072696C5F
:1055A800004D6179004A756E65004A756C79004155
:1055B80075677573740053657074656D6265720004
:1055C8004F63746F626572004E6F76656D626572C7
:1055D80000446563656D62657200000025483A25E0
:1055E8004D3A255300000000A1460000BD460000CA
:1055F800C9460000D5460000F1460000FD460000FF
:105608000947000017470000000000002E000000B6
:0C56180043000000504F534958000000B0
:1056240000000000002000400000000000200040B6
:105634000000000000000000FF00000000B0014076
:1056440000060000000000000090D00304010000E8
:105654007454000074540000745400007454000026
:04566400745400007A
:040000030000037581
:00000001FF
