:1000000000000120750300005D030000352C000096
:1000100061030000630300006503000000000000AE
:100020000000000000000000000000006703000066
:1000300069030000000000006B0300006D03000076
:10004000C54900006F030000195A00006F0300004B
:100050006F0300009D5700006F0300006F03000056
:100060006F0300006F0300006F0300006F030000C8
:100070006F0300006F0300006F0300006F030000B8
:100080006F0300006F0300006F0300006F030000A8
:100090006F0300006F0300006F0300006F03000098
:1000A0006F0300006F0300006F0300006162000037
:1000B0006F0300006F03000000000000000000005C
:1000C0006F0300006F0300006F0300006F03000068
:1000D0006F0300006F0300006F03000000000000CA
:1000E0000000000000000000000000000000000010
:1000F0000000000000000000000000000000000000
:1001000000000000000000000000000000000000EF
:1001100000000000000000000000000000000000DF
:1001200000000000000000000000000000000000CF
:1001300000000000000000000000000000000000BF
:1001400000000000000000000000000000000000AF
:10015000000000000000000000000000000000009F
:10016000000000000000000000000000000000008F
:10017000000000000000000000000000000000007F
:10018000000000000000000000000000000000006F
:10019000000000000000000000000000000000005F
:1001A000000000000000000000000000000000004F
:1001B000000000000000000000000000000000003F
:1001C000000000000000000000000000000000002F
:1001D000000000000000000000000000000000001F
:1001E000000000000000000000000000000000000F
:1001F00000000000000000000000000000000000FF
:10020000354936480A1A02D0072291438D463449AF
:1002100034480A1A06D00722914381F30988022242
:1002200082F3148830483149314A00F044F83148AB
:100230003149324A00F03FF831483249324A00F041
:100240003AF832483249334A00F035F832483349F7
:10025000334A00F030F833483349344A00F02BF881
:1002600033483449344A00F026F8344834490022EF
:1002700000F02CF833483449002200F027F83348C6
:100280003349091A082902DB002202604160314A21
:1002900090471F481F49884205D00268043003B4C4
:1002A000904703BCF7E700208646EC46002000217B
:1002B000294A9047FEE7884207D0521A05D00378B2
:1002C00001300B700131013AF9D17047884202D0F8
:1002D00002700130FAE770470000012000E00020C2
:1002E0000000012000000120B8AF00001400002031
:1002F000F8000020D0030000D0030000C8950000E3
:10030000B8AF000014000020140000205896000030
:100310005896000058960000589600005896000025
:10032000589600005896000058960000B8AF00009C
:100330009CB00000F8000020F8000020F800002029
:10034000140F0020140F0020140F0020140F0020A1
:10035000142F00209D030000AD7C0000FEE7FEE7A7
:10036000FEE7FEE7FEE7FEE7FEE7FEE7FEE7FEE765
:1003700000F002B8FFF7FCBF0F484FF007018843B9
:1003800085460E4880470E48016841F470010160BF
:10039000BFF34F8FBFF36F8FFFF732BF09480A4992
:1003A0000A4A884207D0521A05D0037801300B70F0
:1003B0000131013AF9D1704700000120B97D0000F8
:1003C00088ED00E0449600000000002014000020AA
:1003D00080B5A0B002AFF860B9607A603B60B868E1
:1003E00003F0D8FD7B68FB643B683B6500237B65BD
:1003F000002387F858300023FB65D7F880303B6630
:1004000000237B6707F134017B6F0822B86803F093
:100410009FFE08237B67FB6B3B643B8FA7F8443050
:100420007B8FA7F84630002387F8493097F834309F
:1004300003F00303DBB2012B29D17B6BC3F39523BC
:10044000FB6697F83430C3F3C203DBB287F8483059
:10045000BB8EC3F38313DBB2BB66BB6E9A0007F19E
:100460001C017B6FB86803F073FEBB6E9B007A6F54
:1004700013447B6707F1400207F11C0107F14C03AD
:1004800000931346BA6EF86E01F026F832E097F842
:10049000343003F00303DBB2022B2BD1FB8EC3F30A
:1004A00089139BB23B6797F83430C3F3C203DBB2C6
:1004B00087F848303B6F082B28BF08237B6607F17D
:1004C00014017B6F7A6EB86803F042FE7A6F7B6E20
:1004D00013447B673A6F7B6ED31A3B6707F14C037B
:1004E00007F1400207F11400796E01F097F83B6FB5
:1004F000002BDFD1B86803F05DFD00BF7837BD4643
:1005000080BD000080B582B000AF78607B681B784A
:100510001A460D4B9B5C002B05D07B6804331846B4
:1005200007F058F90BE07B681B781A46064B9B5C7A
:10053000002B04D17B680C33184606F0A1FA00BFEB
:100540000837BD4680BD00BFA407002080B586B037
:1005500000AFF860B9601346FB7100237B61FB6854
:100560001B781A46104B9B5C002B08D0FB680433A9
:10057000FA79B968184607F083F978610EE0FB68EC
:100580001B781A46084B9B5C002B07D1FB680C3389
:10059000FA79B968184606F0EBFA78617B69184673
:1005A0001837BD4680BD00BFA407002080B483B0CB
:1005B00000AF78603960044B01221A7000BF0C371D
:1005C000BD465DF8047B704738010020B0B58CB0A3
:1005D00000AF0346FB711B4B07F108041D460FCD0E
:1005E0000FC495E80F0084E80F000623BB604FF0AE
:1005F000FF33FB604FF0FF333B614FF0FF337B6114
:100600004FF0EB733B62FB79002B01D00E4A00E008
:10061000002207F1080319460C4803F0A9FFF8620D
:10062000FB6ABB62BB6A002B04D0094A4321B86A4B
:1006300001F0B6F8074AFB79137000BF3037BD46AA
:10064000B0BD00BFA8960000AD050000140000205A
:10065000589600003901002080B582B000AF002319
:10066000FB71FB791846FFF7B1FF00BF0837BD46A5
:1006700080BD000080B588B000AFF860B9607A60D6
:100680007B68FB77124B00221A70FB7F1A46B96811
:100690001048FFF75BFFB861BB697B617B69002B8A
:1006A00004D00D4A5321786901F07AF800BF0B4B52
:1006B0001B78002B07D0064B1B78DBB283F00103BD
:1006C000DBB2002BF3D100BF2037BD4680BD00BF99
:1006D0003801002014000020589600003901002045
:1006E00080B584B002AF78603960064B0093402338
:1006F000054A39687868FFF76BFE00BF0837BD46CA
:1007000080BD00BF75060000F800002080B483B0F3
:1007100000AF786000BF0C37BD465DF8047B7047C2
:1007200080B582B000AF78600448FFF7EBFE002090
:10073000FFF74CFF00BF0837BD4680BD1400002006
:1007400080B483B000AF78607B68DB6801225A71A7
:1007500000BF0C37BD465DF8047B704780B582B0A2
:1007600000AF4FF0FF337B60FFF776FF04210948AD
:1007700000F0C4FD78607B68002B03DA064948204E
:1007800002F06CFB0348FFF7DBFF00BF0837BD46F4
:1007900080BD00BF20960000E896000080B582B0C2
:1007A00000AF786039607B681B681B6839687868BF
:1007B000984700BF0837BD4680BD80B582B000AF06
:1007C00078607B681B685B687868984700BF08376B
:1007D000BD4680BD80B582B000AF78607B681B6885
:1007E0009B687868984700BF0837BD4680BD80B4D5
:1007F00083B000AF78600B46FB707B68DB68FA78EB
:100800001A7100BF0C37BD465DF8047B704780B499
:1008100083B000AF78607B68DB681B7918460C37C3
:10082000BD465DF8047B704780B483B000AF78604C
:100830007B68DB6801225A7100BF0C37BD465DF84A
:10084000047B704780B483B000AF78607B68DB685E
:100850005B7918460C37BD465DF8047B7047000095
:1008600080B584B000AF78603960154BFF229A6084
:10087000134B00221A60124B00225A60104B0022C8
:10088000C3F818240E4B0022C3F814240C4B012289
:1008900083F820240B4803F0E4FAF860FB68002B8F
:1008A00001D0FB6808E0084803F074FC074A084BD5
:1008B000D31ADB08BB60002318461037BD4680BD45
:1008C000A4020020309600003C9700002096000013
:1008D000C895000080B400AF044A054BD31ADB086A
:1008E0001846BD465DF8047B704700BF20960000A7
:1008F000C895000080B586B000AF78600B46FB70ED
:10090000FB78002B1FD0FFF7E5FF386100237B61E8
:1009100013E07B699B000E4A1344FB60FB681B8855
:100920001A467B681B689A4204D17B687A691A6010
:10093000002309E07B6901337B617A693B699A4254
:10094000E7D3052300E0002318461837BD4680BDD5
:100950001400002080B584B000AF78600B46FB70B7
:10096000FA783B1D11461846FFF7C4FF0346002BDB
:1009700007D17B68DB00054A1344FB60FB681B68FA
:1009800000E0002318461037BD4680BDC895000022
:1009900080B485B000AF78600B46FB707B68DB00ED
:1009A000144A1344BB60FB78013B032B18D801A207
:1009B00052F823F0C5090000CB090000D10900005E
:1009C000D90900000223FB730DE00423FB730AE046
:1009D000BB681B79FB7306E0BB685B79FB7302E0C5
:1009E0000023FB7300BFFB7B18461437BD465DF840
:1009F000047B7047C895000080B485B000AF786074
:100A000039600023FB737B681B7803F00403DBB2BF
:100A1000002B23D07B681B78C3F30103DBB2012BCF
:100A200002D0022B0CD017E03B681B687A68128852
:100A3000C2F38312D2B213449A1C3B681A600BE0D3
:100A40003B681B687A685288C2F3891292B21344D9
:100A50009A1C3B681A6000BF0123FB73FB7B18469E
:100A60001437BD465DF8047B7047000080B58AB03E
:100A700000AF0023FB843A4802F0F4FA394802F050
:100A8000F1FA394B5B683B61374B9B68BB613A6954
:100A9000BB69134002339B00334A134404333B6267
:100AA00007F110031946386AFFF7A6FF0346002B2B
:100AB00009D03A69BB69134002339B002A4A1344A8
:100AC00004333B62ECE700BF0023FB6111E03B69AC
:100AD0005A1C3A61BA691340FA699200391D0A44F6
:100AE000214902339B000B445B681360FB690133AF
:100AF000FB61FB69012BEAD93B79C3F30103DBB24C
:100B0000012B0DD0022B16D17B89FB84FB88C3F30C
:100B100089139BB203339A083B6913443B6110E08D
:100B20007B89FB84BB88C3F38313DBB21A463B6922
:100B300013443B6105E00D494FF4BF7002F08EF99C
:100B400000BF084802F09BFA78617B69002B02D055
:100B50003B69054A5360FB8C18462837BD4680BD6B
:100B6000BC060020B8060020A40200204C9700001C
:100B700080B584B000AF0021074802F0F7F9F860B3
:100B8000FB68BB60BB6883F310037B607B6818461F
:100B90001037BD4680BD00BFC006002080B588B0BC
:100BA00000AFF860B9607A603B60FB681B0CFB61CA
:100BB000FFF7DEFFB861FFF78DFE0246FB69934247
:100BC00004D3224940F2A31002F048F9BB6919048A
:100BD0003B685A1CBB6A1340FA690A431C4902333A
:100BE0009B000B445A603A68BB6A134002339B0077
:100BF000174A134404337B61FB6803F00703D9B23F
:100C00007A69137861F3C50313707B6803F00F03EF
:100C1000D9B27A69138861F389131380BB68C3F36F
:100C200015017A69136861F39F2313607A69137859
:100C3000012161F3010313707A6913786FF3820362
:100C4000137000BF2037BD4680BD00BF4C97000029
:100C5000A402002080B58AB000AFF860B9601346E6
:100C6000FB71FB6802333B620123FB77002000F03D
:100C70001FFF374B1A68BB681A60354B9A68344BB4
:100C80005968334B1B68CB1A134401337B6214E061
:100C90000121304802F0B4F9FFF7E8FEB861B96904
:100CA0002C4802F0ADF92A4B9A68294B5968284B19
:100CB0001B68CB1A134401337B623A6A7B6A9A42FF
:100CC000E6D8FB7F002B3BD000233B61FB79002B58
:100CD00011D03B7C012262F301033B743B7C43F067
:100CE00004033B74FB6803F00F03DAB23B8A62F340
:100CF00089133B8210E03B7C022262F301033B74C8
:100D00003B7C43F004033B74FB68C3F309039AB2D2
:100D10007B8A62F38F137B820D4B1A680C4B9B68A6
:100D2000134002339B000A4A134404337B613A693F
:100D30007B691A60064B1A683B6A1344044A1360C5
:100D4000002000F0CBFEFB7F18462837BD4680BD53
:100D5000A4020020C006002080B58AB002AFF8606F
:100D6000B9607A603B60204B9B687B6107F11003A0
:100D7000012219463868FFF76DFF0346002B24D087
:100D80003B690233FB610023BB6111E0BB699B003F
:100D90007A681A44FB69591CF96179690B40126839
:100DA000114902339B000B445A60BB690133BB619C
:100DB000BA693B689A42E9D33A697B690093134662
:100DC0003A68B968F868FFF7E9FE074B93F82034F2
:100DD000002B05D000BF00F0A1F80346002BFAD18C
:100DE00000BF2037BD4680BDA402002080B582B080
:100DF00000AF786039600023002239687868FFF717
:100E0000ABFF00BF0837BD4680BD80B586B000AFE0
:100E1000F860B9607A607B687B6107F11402012396
:100E2000B968F868FFF798FF00BF1837BD4680BD66
:100E300080B586B000AFF860B9607A603B607B68CF
:100E40003B613B687B6107F110020223B968F868D7
:100E5000FFF782FF00BF1837BD4680BD80B588B060
:100E600000AFF860B9607A603B607B687B613B688B
:100E7000BB61BB6AFB6107F114020323B968F86820
:100E8000FFF76AFF00BF2037BD4680BD80B588B040
:100E900000AFF860B9607A603B607B683B613B689B
:100EA0007B61BB6ABB61FB6AFB6107F11002042333
:100EB000B968F868FFF750FF00BF2037BD4680BD16
:100EC00080B58AB000AFF860B9607A603B607B683B
:100ED0007B613B68BB613B6BFB617B6B3B62BB6BCC
:100EE0007B6207F114020523B968F868FFF734FF45
:100EF00000BF2837BD4680BD80B400AF064B5A689E
:100F0000054B1B689A420CBF01230023DBB2184635
:100F1000BD465DF8047B7047A402002080B598B000
:100F200000AFFFF7E9FF0346002B01D00023A7E144
:100F3000934B0022C3F81824BFF34F8F904B5B688C
:100F40003B618F4B9B683B643A693B6C13400233B7
:100F50009B008B4A134404337B640023FB6500230E
:100F6000BB650023FB6307F110031946786CFFF79C
:100F700043FD0346002B19D0814BD3F81834002BC6
:100F800014D17F4B1A683B699A4205D87C4B1B6889
:100F90007B4A5360002373E13A693B6C1340023390
:100FA0009B00774A134404337B64DCE700237B65B2
:100FB00011E03B695A1C3A613A6C13407A6D920019
:100FC000391D0A446E4902339B000B445B68136071
:100FD0007B6D01337B657B6D012BEAD93B7903F097
:100FE0000303DBB2022B40F09580FB88C3F3891327
:100FF0009BB2BB63FB88C3F389139BB2502B28BF02
:1010000050239BB27B637B6BC3F309039AB2FB88CB
:1010100062F38F13FB807B6B08333B633B79C3F335
:10102000C203DBB2FB63396B564802F026FFF8655A
:10103000FB6D002B00F0C780F86D02F0ABFF391D8F
:10104000BB6D0822F86D03F063F8BB6D0833BB6518
:101050003B69DA433B6C134001339B00FB627A6BC4
:10106000FB6A9A4240D9FB6A002B08D03A693B6C74
:10107000134002339B00424A1344043300E0424BC6
:10108000BB62FB6A002B02D0FB6ADBB201E07B6B28
:10109000DBB287F82730FB6A002B01D03A4B00E027
:1010A00000233B62FB6A002B06D07B6BDAB2FB6A43
:1010B000DBB2D31ADBB200E00023FB7797F82720DE
:1010C000BB6DB96AF86D03F023F897F82730BA6D55
:1010D0001344BB653B6A002B15D0FA7FBB6D396AA0
:1010E000F86D03F015F80EE03A693B6C13400233DB
:1010F0009B00234A13440433BB61BB6D7A6BB9690F
:10110000F86D03F005F8BB6B03339A083B69134491
:101110003B6158E03B7903F00303DBB2012B52D172
:10112000BB88C3F38313DBB2062B28BF0623DAB2D6
:10113000BB8862F38913BB80BB88C3F38313DBB224
:1011400002337B613B79C3F3C203DBB2FB637B6990
:101150009B0019460B4802F090FEF865FB6D002BD2
:1011600031D0F86D02F016FF391DBB6D0822F86D05
:1011700002F0CEFFBB6D0833BB6500237B651AE030
:10118000A402002030960000B00200203B695A1CE7
:101190003A613A6C134002339B003B4A1344191DD9
:1011A000BB6D0422F86D02F0B3FFBB6D0433BB6569
:1011B0007B6D01337B65BB88C3F38313DBB21A46B7
:1011C0007B6D9342E2D3FB6D002B39D02E4BD3F8CD
:1011D00010343B652C4BD3F81834002B1BD0F86D22
:1011E00002F0E8FE46E0002387F84F30386DFFF745
:1011F00029FB0346002B02D0012387F84F3097F8D4
:101200004F30002B03D0F96D386DFFF7C7FA3B6DF7
:10121000DB681B683B653B6D002BE4D1F86D02F089
:10122000C9FE002000F044FC174BD3F81834002B03
:1012300002D13B69144A5360002000F04FFC19E0D2
:10124000114BD3F81034BB6406E0B86CFFF7C2FA58
:10125000BB6CDB681B68BB64BB6C002BF5D10B4A15
:101260000B4BD31ADB081B0443F002030949184651
:10127000FFF7BCFDFFF740FE034683F00103DBB23E
:1012800018466037BD4680BDA4020020F8950000D6
:10129000C89500009897000080B584B000AF002387
:1012A000FB6020E0144BD3F81034BB600123FB71CA
:1012B0000EE0B868FFF7ABFA03461A46FB689342A4
:1012C00002D10023FB7106E0BB68DB681B68BB60D2
:1012D000BB68002BEDD1FB79002B01D0FB6807E048
:1012E000FB680133FB60FB68092BDBDD4FF0FF334C
:1012F00018461037BD4680BDA402002080B584B0DA
:1013000000AF78600B46FB70FFF7C6FFF860FB6824
:10131000B3F1FF3F01D1FB6822E0FB68DBB2194665
:101320007868FFF764FA104BD3F81034002B08D11B
:101330000D4A7B68C2F810347B68DB6800221A60B3
:101340000DE0094BD3F81034DA687B68DB6812686B
:101350001A60054BD3F81034DB687A681A60FB68B2
:1013600018461037BD4680BDA402002080B582B06B
:1013700000AF0D4BD3F810347B600B4B012283F888
:10138000202409E07868FFF74FFA7868FFF715FA2C
:101390007B68DB681B687B607B68002BF2D100BF39
:1013A0000837BD4680BD00BFA402002080B483B0D2
:1013B00000AF7860396000BF0C37BD465DF8047B34
:1013C0007047000090B585B002AF786039607B68E7
:1013D000DB88002B0AD07B68DB881A461F4B009302
:1013E00013461F4A1F49386801F076FF7B681B7A55
:1013F000052B2ED07B685B7A002B12D07B689B88F4
:101400001A467B681B7A19461046FFF7C1FA034655
:101410001A46154B53F822301A461449386801F021
:101420005BFF7B681B6819463868FFF7BFFF7B6866
:101430001B7A1A460E4B53F822407B689B8800218A
:101440001846FFF787FA034622460A49386801F032
:1014500043FF00BF0C37BD4690BD00BFCC970000D6
:10146000DC97000014980000440000202C98000035
:10147000300000203098000080B584B000AFF860E4
:10148000B9601346FB71FB681B7A052B0FD0FB6814
:101490005B7A002B06D00D4B1B681A460C49B868C6
:1014A00001F01AFF0B49B86801F016FF06E0FB795E
:1014B000002B03D00749B86801F00EFFB86801F0AF
:1014C000E9FE00BF1037BD4680BD00BF44000020CC
:1014D0002C9800003C980000B0B58AB004AFF860CA
:1014E000B9607A603B60BB6A1B7BFB75BB6A0022FC
:1014F0001A73B96A3868FFF765FF7B68062B7FD8D7
:1015000001A252F823F000BF251500002F1500009E
:101510003F150000531500007115000099150000DB
:10152000C9150000F968B86A01F0D6FE69E0BB6829
:101530001B681A46F968B86A01F0CEFE61E0BB6824
:101540001A68BB6804331B68F968B86A01F0C4FE06
:1015500057E0BB681A68BB6804331968BB68083376
:101560001B6800930B46F968B86A01F0B5FE48E0C5
:10157000BB681968BB6804331868BB6808331B680C
:10158000BA680C3212680192009303460A46F96861
:10159000B86A01F0A1FE34E0BB681868BB68043388
:1015A0001C68BB6808331B68BA680C321268B968DB
:1015B0001031096802910192009323460246F968AE
:1015C000B86A01F089FE1CE0BB681C68BB68043384
:1015D0001D68BB6808331B68BA680C321268B968AA
:1015E00010310968B86814300068039002910192C4
:1015F00000932B462246F968B86A01F06DFE00E0C0
:1016000000BF0022B96A3868FFF736FFBB6AFA7D6F
:101610001A7300BF1837BD46B0BD00BF80B586B095
:1016200000AFF860B9607A603B60BB68082B5AD89D
:101630003B681B7BFB743B6800221A73396878682F
:10164000FFF7C0FE00237B6114E07A69BB689A4211
:1016500009D2FA687B6913441B781A462449386812
:1016600001F03AFE03E02349386801F035FE7B695A
:1016700001337B617B69072BE7D91F49386801F08B
:101680002BFE00237B6122E07A69BB689A4217D265
:10169000FA687B6913441B78BB74BB7C7E2B08D82B
:1016A000BB7C184607F0C4FE0346002B01D0BB7C70
:1016B00000E02E231A461149386801F00DFE03E0C0
:1016C0000F49386801F008FE7B6901337B617B6953
:1016D000072BD9D9012239687868FFF7CDFE3B681E
:1016E000FA7C1A7300E000BF1837BD4680BD00BF0A
:1016F00040980000489800004C9800005098000066
:101700005498000080B487B000AFF860B9607A6088
:101710000123FB75FB7D214AFB6813601F4ABB68F0
:1017200053601E4A7B689360FB6844F20102934257
:1017300013D0FB6844F20202934221D17B68174A1E
:10174000D360164BDB681B881A46144B9A61134B07
:10175000DB685B68114AD36112E07B680F4A136152
:101760000E4B1B699B680D4A53610C4B1B691B6830
:101770000A4A9361094B1B695B68084AD36100BF41
:1017800072B600BFFB7DDBB2002BFBD162B600BF9F
:101790001C37BD465DF8047B704700BFC8060020BB
:1017A00000B583B002900091019244F201007146AD
:1017B0006A4600F003F803B000BD00BFB0B58AB0C0
:1017C00004AFF860B9607A6072B6FFF7CFFD00BF72
:1017D000FFF7A4FB0346002BFAD1FB6844F2010299
:1017E000934216D0FB6844F2020293423ED17B68DA
:1017F0007B612D4A2D4BD31ADB081B0443F00100FB
:101800007B695B681A467B691B882949FFF710FBD7
:1018100039E07B683B61244A244BD31ADB081B0464
:1018200043F001043B699D683B699B68184602F0E0
:10183000D3FC034618463B695B6819463B691B6845
:10184000BA6802920193009103462A46194920463C
:10185000FFF736FB144A154BD31ADB081B0443F081
:10186000010315491846FFF7C1FA0CE00E4A0F4B69
:10187000D31ADB081B0443F00103BA680F4918466A
:10188000FFF7C3FA00BF0E4B1B6803F00103002BE8
:1018900000D000BE7A68B968F868FFF733FF00BF70
:1018A0001837BD46B0BD00BFF8950000C8950000D0
:1018B00058980000749800009C980000B0980000B0
:1018C000F0ED00E080B483B000AF78607B6803F097
:1018D0000303002B0CBF01230023DBB218460C3797
:1018E000BD465DF8047B704780B483B000AF03460B
:1018F000FB71FB799AB2074B1B889A4203D2FB79A2
:101900000133DBB200E0002318460C37BD465DF81A
:10191000047B7047F406002080B483B000AF094B0D
:101920001B78FB71084B1B78DBB2FA799A420CBF2B
:1019300001230023DBB218460C37BD465DF8047B5B
:10194000704700BFF0060020F106002080B584B08B
:1019500000AF03463A60FB800B46BB80BB88013377
:101960009BB2DB00FB813868FFF7ACFF034683F0D6
:101970000103DBB2002B01D0072314E00C4A3B68C3
:101980001360FB893A6813440A4A13600A4B002229
:101990001A700A4B00221A70094AFB881380094A00
:1019A000BB881380002318461037BD4680BD00BF9A
:1019B000E8060020EC060020F1060020F0060020DA
:1019C000F2060020F406002080B400AF0023184681
:1019D000BD465DF8047B704780B584B000AF29E058
:1019E0001D4B1B78DBB2FB811C4B1B68FA891C4921
:1019F000098801FB02F21344BB601A4B1A68FB8989
:101A0000DB0013449B88FB80164B1A68FB89DB00C4
:101A100013441B683B60FA883B681146B8689847D6
:101A20000D4B1B78DBB21846FFF75EFF03461A46E4
:101A3000094B1A70FFF7C8FF034683F00103DBB2BE
:101A4000002B04D0FFF768FF0346002BC8D000BF6F
:101A50001037BD4680BD00BFF0060020EC06002018
:101A6000F2060020E806002080B400AF72B6054BF5
:101A70001B680133034A136000BFBD465DF8047B59
:101A8000704700BFF806002080B400AF074B1B680A
:101A9000013B064A1360054B1B68002B00D162B660
:101AA00000BFBD465DF8047B704700BFF80600200C
:101AB00080B582B000AF786000F026F80346012BB5
:101AC00003D00549432001F0C9F9FFF7CDFF00BF5E
:101AD0000837BD4680BD00BFC898000080B582B001
:101AE00000AF0346FB7100F00FF80346012B03D053
:101AF0000449512001F0B2F9FFF7C6FF00BF0837D3
:101B0000BD4680BDC898000080B485B000AFEFF33B
:101B100005837B607B68C3F30803FB60FB68002BD5
:101B20000DD1EFF314833B603B68BB60BB6803F0EF
:101B30000103002B0CBF01230023DBB200E00123D3
:101B400018461437BD465DF8047B704780B483B0F7
:101B500000AF78607B6803F00303002B0CBF012308
:101B60000023DBB218460C37BD465DF8047B704796
:101B700080B584B000AF78600023FB600EE00B4AB4
:101B8000FB6852F82330002B05D0084AFB6852F856
:101B9000233078689847FB680133FB60FB68032BB0
:101BA000EDD900BF1037BD4680BD00BF080700203B
:101BB00080B483B000AF786039607B681B78013BEC
:101BC000052B61D801A252F823F000BFE51B0000ED
:101BD000ED1B0000131C0000451C0000651C0000EC
:101BE000811C00003B6800221A704EE03B68012215
:101BF0001A707B681A893B689A817B689A883B686F
:101C0000DA817B68DA683B689A603B6800221A7464
:101C10003BE03B6802221A707B681A893B689A8114
:101C20007B689A883B68DA817B68DA683B689A60EF
:101C30007B689B7D062B0CBF01230023DAB23B6837
:101C40001A7422E03B6803221A707B68DA883B68CA
:101C50009A817B681A893B68DA817B68DA683B681D
:101C60009A6012E03B6804221A707B68DA883B684D
:101C70009A813B680022DA813B6800229A6004E086
:101C80003B6805221A7000E000BF00BF0C37BD465C
:101C90005DF8047B704700BF80B485B000AF78600A
:101CA00039607B68FB60FA683B689A4206D2FB6841
:101CB0001B68B3F1FF3F01D0012300E0002303F0D4
:101CC0000103DBB218461437BD465DF8047B70474C
:101CD00080B483B000AF78607B685B8803339B007F
:101CE0007A68134418460C37BD465DF8047B70478C
:101CF00080B582B000AF786039607868FFF7E8FFA0
:101D000002463B68934201D2022311E07B689B8824
:101D10004FF6FF72934208D07B681B88002B04D0DB
:101D20007B689B68B3F1FF3F01D1012300E00023F2
:101D300018460837BD4680BD80B582B000AF7860D8
:101D40007B68002B13D00E4BDB681A467B689342EE
:101D50000DD30B4B1B691A467B68934207D87868F2
:101D6000FFF7F4FE0346002B01D0012300E000231F
:101D700003F00103DBB218460837BD4680BD00BF43
:101D80000000002080B485B000AF7860396048F270
:101D90000963FB6000237B8122E07A8915491346A1
:101DA0009B0013449B000B4404331B683A689A421F
:101DB00013D97A890F4913469B0013449B000B44A7
:101DC00004331B6803F580533A689A4205D2002316
:101DD000FB607B687A891A8005E07B8901337B810F
:101DE0007B89012BD9D9FB6818461437BD465DF8AD
:101DF000047B70472807002080B483B000AF786070
:101E000039603B689B7D022B09D97B681A893B6846
:101E1000DB8813449BB203339AB27B681A817B68D8
:101E20005A893B68DB88D31A9BB2033B9AB27B6822
:101E30005A8100BF0C37BD465DF8047B7047000037
:101E400080B582B002AF074B1B6819460023009390
:101E50000823054A054801F03FFE03461846BD46E3
:101E600080BD00BF500700205099000000000020F6
:101E700080B584B002AF78607968002300930823AE
:101E8000044A054801F028FE034618460837BD46B7
:101E900080BD00BF589900000000002080B584B0CC
:101EA00000AF03463960FB80FA88224913469B0045
:101EB00013449B000B4404331B6803F58053BB6041
:101EC0003B681B68FB60FB68002B04D0F868FFF7D9
:101ED000FFFEF86022E0FA88164913469B0013447F
:101EE0009B000B4404331B680833FB6016E0B968A1
:101EF000F868FFF7FDFE0346012B08D0022B0BD03C
:101F0000002B0BD13B68FA681A6001230EE0F868D9
:101F1000FFF7DEFEF86001E0002307E0B968F8682B
:101F2000FFF7BAFE0346002BE1D100231846103715
:101F3000BD4680BD2807002080B584B000AF786022
:101F400039607B685B681846FFF7F6FE0346002B96
:101F500019D07B681A89254B1B899A4213D17B685B
:101F60001A687B685B689B689A420CD17B685B68E7
:101F700019463868FFF706FF0346002B0CBF012304
:101F80000023DBB22DE03B6800221A8024E000230E
:101F9000BB6010E0BB68FB60FB689A687B681B68ED
:101FA0009A4208D1BA687B685A60104B1A897B68DC
:101FB0001A81012315E03B681B8807F108021146CE
:101FC0001846FFF76BFF0346002BE3D13B681B88E5
:101FD00001339AB23B681A803B681B88012BD6D923
:101FE000002318461037BD4680BD00BF58070020AB
:101FF00080B586B000AFF860B9607A603B60324B64
:102000001B78DBB283F00103DBB2002B02D048F275
:10201000016355E07B68002B02D03B68002B49D15F
:1020200048F204634CE03B689B881946274A0B46FC
:102030009B000B449B0013441B78002B33D124E0FE
:102040003B681B687B61FB68002B06D07B699A8824
:10205000FB681B889A4200D017E0BB68002B06D0B3
:102060007B691A88BB681B889A4200D00DE07B69A7
:102070009A687B681A603B681A687B685A60144BE0
:102080001A897B681A8100231AE03B689B883A68AA
:1020900011461846FFF702FF0346002BD0D13B68DC
:1020A00000221A6000E000BF3B689B8801339AB2AF
:1020B0003B689A803B689B88012BB4D948F209633E
:1020C00018461837BD4680BDFC06002028070020B2
:1020D0005807002080B582B000AF7860044B796863
:1020E000184600F014FF034618460837BD4680BD69
:1020F0001807002080B582B000AF7860044B796883
:10210000184600F01EFF00BF0837BD4680BD00BF67
:102110001807002080B500AF0A4B1B68002B04D1C4
:1021200009494FF4247000F099FE0121054800F0A0
:1021300080FF0346002B14BF01230023DBB21846A7
:1021400080BD00BF040700201499000080B586B050
:1021500002AF786039607B6802229A7539687B68C3
:102160001A1D002300930423074801F0B5FCF86012
:10217000FB68002B01D1002301E048F20D631846F3
:102180001037BD4680BD00BF0000002080B586B07E
:1021900002AF786039607B681B69002B01D0032295
:1021A00000E001227B689A753B68083319467B681A
:1021B00003F10C02002300930423074801F08CFC78
:1021C000F860FB68002B01D1002301E048F20D63A9
:1021D00018461037BD4680BD0000002080B586B08F
:1021E00002AF786039607B681B78032B01D1052230
:1021F00000E006227B689A753B68043319467B68C9
:1022000003F10802002300930423074801F064FC53
:10221000F860FB68002B01D1002301E048F20D6358
:1022200018461037BD4680BD0000002080B586B03E
:1022300002AF78600B467B8079680023009304230B
:102240000C4A0D4801F048FCF860FB68002B02D0F6
:1022500048F20D630AE07A88084913469B0013444C
:102260009B000B44103301221A70002318461037CC
:10227000BD4680BD609900000000002028070020B6
:1022800080B588B000AF786007F1080300221A60BB
:102290005A609A607B68DB68BB6007F1160207F141
:1022A000080311461846FFF747FE0346002B11D0DE
:1022B000FB68BB61BB699A887B68DA80BB691A8856
:1022C0007B681A81FB68FA8A11461846FFF7AEFF51
:1022D000F86102E048F20963FB61FB6918462037A8
:1022E000BD4680BD80B586B000AF78607B68981D24
:1022F00007F108020D4B0021FFF77AFE78617B6938
:10230000002B08D1FA68094B9B8819461046FFF745
:102310008DFF786104E008220021044807F0F1F8FD
:102320007B6918461837BD4680BD00BF680700208E
:1023300080B586B002AF786039607B6801229A75FB
:102340003B680C3318467B681A697B68DB88990008
:10235000002300930B460146074801F0BDFBF860DF
:10236000FB68002B01D1002301E048F20D63184601
:102370001037BD4680BD00BF0000002080B483B090
:1023800000AF164B1B8901339AB2144B1A81134BC1
:1023900000225A80114B00221A730023FB8014E0A4
:1023A000FA880F4913469B0013449B000B441A788C
:1023B000FB88002A0CBF01220022D1B2074A134435
:1023C0000A469A72FB880133FB80FB88012BE7D910
:1023D00000BF0C37BD465DF8047B704758070020EE
:1023E0002807002080B485B000AF78600023FB731D
:1023F0000023BB8129E0BB89194A13449B7A002B37
:1024000020D0BB89164A134400229A72BA89154912
:1024100013469B0013449B000B440C331B68002B9A
:1024200010D1BA890F4913469B0013449B000B44FB
:1024300010331B78002B05D07B68BA891A800123E2
:10244000FB7305E0BB890133BB81BB89012BD2D96A
:10245000FB7B18461437BD465DF8047B704700BF10
:10246000580700202807002080B500AF084B052240
:102470001A70084B02229A80064B1B6819460023EB
:102480000122054801F00CFC0346184680BD00BF40
:1024900058070020500700200000002080B582B0BF
:1024A00000AF154B5B887B807A88144913469B00EC
:1024B00013449B000B440C331B68002B13D10E4BB1
:1024C00004221A707A880D4913469B0013449B001E
:1024D0000B4404331B68194600230122084801F00D
:1024E000DFFB786002E0FFF7BFFF78607B6818468B
:1024F0000837BD4680BD00BF5807002028070020D0
:102500000000002080B586B002AF104B5B68FB6016
:102510000F4B1A680E4B9B889B001344BB60FB68F3
:102520005B880333FB80094B03221A70B968074BA1
:102530005A68FB889800002300930346054801F081
:10254000CBFA034618461037BD4680BD5807002019
:10255000500700200000002080B582B000AF0A4B79
:102560005B880A491846FFF799FC0346002B03D005
:10257000FFF7C8FF786002E0FFF790FF78607B68A4
:1025800018460837BD4680BD580700205C0700206C
:1025900080B500AF094B06221A70084B5B881946BC
:1025A000074A0B469B000B449B00134404331B68F3
:1025B0001846FFF75DFC0346184680BD580700200B
:1025C0002807002080B500AF054B07221A70044B86
:1025D00000225A60FFF734FC0346184680BD00BF56
:1025E0005807002080B500AF0C48FFF7FBFE0346FC
:1025F00083F00103DBB2002B0BD0094B00221A70D1
:10260000074B00225A80064B00225A6041F61D53A8
:1026100002E0FFF7A1FF0346184680BD5A070020DD
:102620005807002080B483B000AF0A4B5B687B6022
:102630007B685B8803337B80074B9A887B881344D5
:102640009AB2054B9A8000BF0C37BD465DF8047BFB
:10265000704700BF580700205007002080B483B0A7
:1026600000AF194B1B687B60184B5B881946184AF2
:102670000B469B000B449B00134404331B68124A17
:102680001360124B5B881946114A0B469B000B44A2
:102690009B00134404337A681A600C4B5B8819461C
:1026A000094B98880A4A0B469B000B449B00134435
:1026B000083302461A80044B02229A8000BF0C376E
:1026C000BD465DF8047B7047500700205807002086
:1026D0002807002080B500AF1A4B1B78072B2DD898
:1026E00001A252F823F000BF092700003D27000097
:1026F0003D27000015270000212700002D2700009E
:102700002D27000035270000FFF738FE0D4B012272
:102710001A7014E0FFF786FF0A4B02221A700EE0CF
:10272000FFF79CFF074B06221A7008E0054B0722B3
:102730001A7004E0034B01221A7000E000BF00BFD2
:1027400080BD00BF5807002080B586B000AF78601C
:10275000396048F20E637B617B68002B05D05C4BCF
:1027600000225A604FF40643AEE03B681B79032B0E
:1027700000F29D8001A252F823F000BF8D270000D7
:102780009B27000015280000352800003B68012227
:102790001A71FFF755FB78618CE00023FB7400236E
:1027A0003B8225E03A8A4B4913469B0013449B0029
:1027B0000B441B78022B18D13A8A464913469B00DA
:1027C00013449B000B4400221A700123FB743A8AC5
:1027D000404913469B0013449B000B4404331B6881
:1027E0001846FFF745FB786105E03B8A01333B82E1
:1027F0003B8A012BD6D9FB7C83F00103DBB2002B93
:1028000057D0334B01221A70314B00225A6041F6E7
:102810001D5359E03B6800221A712F4B02229A8007
:102820002D4B1B681946002301222C4801F038FA71
:1028300078613FE03B6800221A71274B1B681846FD
:10284000FFF716FB7861264B5B88FB81224B1B68E8
:10285000BB60FA891F4913469B0013449B000B443D
:1028600004331B681C4A1360FA891A4913469B00FB
:1028700013449B000B440433BA681A60FA89164B60
:102880009888144913469B0013449B000B4408335B
:1028900002461A80104B02229A80FA890D4913468B
:1028A0009B0013449B000B4400221A7002E000BFFF
:1028B00000E000BF7B69002B05D0054B00225A6069
:1028C00048F20D6300E0002318461837BD4680BD6E
:1028D000FC060020280700205007002000000020F0
:1028E0005807002080B586B000AF786039603B683B
:1028F0009B8A1A4613469B0013449B003B4A134491
:102900003B617B68002B06D039683869FFF774FAA1
:102910004FF4064365E03B695A683B691B899B009D
:102920001344FB603B689B7D062B4ED801A252F8F6
:1029300023F000BF792900009D29000085290000AF
:102940009129000051290000A9290000C329000095
:10295000274B00225A603B689B69254A1360254932
:102960002348FFF7E9FA034683F00103DBB2002BAB
:1029700002D048F2096334E0F9683868FFF7E6FBF3
:10298000786126E0F9683868FFF700FC786120E09C
:10299000F9683868FFF7CCFC78611AE0F9683868A4
:1029A000FFF71CFC786114E03B6806229A75104B17
:1029B0005A68104B1B8819461046FFF737FC7861A0
:1029C00007E041F61D537B6103E048F20E637B6133
:1029D00000BF7B69002B03D039683869FFF70CFA18
:1029E0007B6918461837BD4680BD00BF2807002008
:1029F000700700207C07002080B584B000AF7860AD
:102A000039607B68002B02D04FF4064326E03B6818
:102A10001B79012B0BD0022B16D0002B18D13B6851
:102A200002221A713868FFF72BFCF86015E038684D
:102A3000FFF758FCF860FB6848F2096293420BD13B
:102A400041F61D53FB6007E041F61D53FB6004E0B7
:102A500048F20E63FB6000E000BFFB6818461037C9
:102A6000BD4680BD80B584B000AF78607B68002B28
:102A700002D04FF406433CE0204B1B7B002B03D0DD
:102A80001E4B00221A7301E0FFF724FE1B4B1B783C
:102A9000013B062B28D801A252F823F0B92A0000E6
:102AA000C12A0000C92A0000D12A0000E92A00003A
:102AB000D92A0000E12A0000FFF794FDF86017E032
:102AC000FFF74AFDF86013E0FFF71CFDF8600FE028
:102AD000FFF7E4FCF8600BE0FFF75AFDF86007E051
:102AE000FFF770FDF86003E048F20E63FB6000BF83
:102AF000FB6818461037BD4680BD00BF5807002050
:102B000080B588B000AF7860404B1B68002B05D1C2
:102B10003F48FFF7DFFA02463C4B1A603B4B1B680D
:102B2000002B04D13B4940F29B5000F097F9374B02
:102B30001B681B78013B052B2BD801A252F823F010
:102B4000592B0000692B0000692B0000792B000035
:102B5000792B0000892B00002C4B1B6819467868E4
:102B6000FFF7F2FD786018E0284B1B68194678687B
:102B7000FFF7B8FE786010E0244B1B6819467868B0
:102B8000FFF73AFF786008E07868FFF76BFF78603E
:102B900003E048F20E637B6000BF7B68002B2ED001
:102BA00007F10C0300221A605A609A60DA601A6119
:102BB0007B6841F61D52934201D07B6800E0002300
:102BC0003B61124B1B6807F10C0211461846FEF7D9
:102BD000EFFF07F10C031846FEF7CAFF0B4B00226C
:102BE0001A6000237B600A48FFF784FAFFF792FA25
:102BF000034683F00103DBB2002B02D184E700BF60
:102C000000E000BF00BF2037BD4680BD8007002028
:102C1000840700201499000080B582B000AF78606E
:102C20007B685B681846FFF76BFF00BF0837BD463F
:102C300080BD00001EF0040F1CBFEFF309800AE006
:102C4000EFF308800549064A884201D8904202D82D
:102C50008D464FF00000034B184700000000012094
:102C600000E00020A92C000000BF00BF80B400AF2E
:102C7000BFF34F8F054BDB6803F4E0620349044B5D
:102C80001343CB60BFF34F8F00BFFDE700ED00E0C3
:102C90000400FA0580B582B000AF7860FFF7E6FF68
:102CA00000BF0837BD4680BD90B589B002AF7860DF
:102CB000FEF75CFB00BFFEF731F90346002BFAD1AB
:102CC0007B683B61584B9B6AFB603B69002B35D0AE
:102CD000564A574BD31ADB081B0443F001003B69EB
:102CE0009B691A465349FEF790F8504A504BD31A45
:102CF000DB081B0443F001003B6919683B695C6811
:102D00003B699B683A69D2680192009323460A4660
:102D10004949FEF7BBF8454A454BD31ADB081B046B
:102D200043F001003B691A693B6959693B69DB69FA
:102D300000930B464149FEF791F80AE03B4A3C4BB1
:102D4000D31ADB081B0443F001033D491846FEF784
:102D50004DF8354BDB6A03F00203002B0AD0334AEF
:102D6000334BD31ADB081B0443F0010335491846E3
:102D7000FEF73CF800237B6120E001227B6902FA28
:102D800003F31A46FB681340002B14D02E4A7B69CC
:102D900052F82330002B0ED0244A254BD31ADB08DF
:102DA0001B0443F00100284A7B6952F823301A467D
:102DB0002649FEF72AF87B6901337B617B69192B71
:102DC000DBD9FB6803F08003002B0CD0174A184BAB
:102DD000D31ADB081B0443F00100134B5B6B1A464C
:102DE0001B49FEF712F8FB6803F40043002B0CD0DC
:102DF0000E4A0F4BD31ADB081B0443F001000A4BA9
:102E00009B6B1A461349FEF700F8134B1B6803F03F
:102E10000103002B00D000BE7868FFF73BFF00BF26
:102E20001C37BD4690BD00BF00ED00E008960000D5
:102E3000C89500007099000088990000C0990000B2
:102E4000E89900001C9A000068000020609A0000C9
:102E50006C9A00008C9A0000F0ED00E080B584B020
:102E600000AF03463960FB80FB883B813B68FB6019
:102E700007F108031A46002144F20200FEF79EFC07
:102E800000BF1037BD4680BD80B487B000AF78600A
:102E900039607B6853E8021F1FFAA1F2D88882428A
:102EA00002BFBFF32F8F00230DE0D8890244988919
:102EB000824228BF121AC1EA024243E802200028D7
:102EC000E8D14FF00103FB737861B9603A61BA68E9
:102ED0003B681A60FB7BDBB218461C37BD465DF8C9
:102EE000047B704780B485B000AF7860796851E8A2
:102EF000023FC3EA234341E80232002AF7D1FA60D5
:102F0000BB6000BF1437BD465DF8047B704780B5D9
:102F100084B000AF786039603B6819467868FFF785
:102F2000B3FF0346002B07D07B681B683A685288C2
:102F30001344FB60FB6800E0002318461037BD46D1
:102F400080BD80B582B000AF786039603B681A8878
:102F50003B685B889A4204D17868FFF7C3FF01237E
:102F600000E0002318460837BD4680BD90B486B007
:102F700000AF786039607B683A6853E8004F1046CC
:102F800043E8000191F0000FF7D17C613861F960EE
:102F90007B6918461837BD4690BC704790B486B020
:102FA00000AF786039607B683A6853E8004F44EAC4
:102FB000020043E8000191F0000FF6D17C61386116
:102FC000F9603B6918461837BD4690BC704790B40D
:102FD00086B000AF786039607B683A6853E8004F8C
:102FE00004EA020043E8000191F0000FF6D17C6191
:102FF0003861F9607B6918461837BD4690BC704748
:1030000090B486B000AF786039607B683A6853E866
:10301000004F04EB020043E8000191F0000FF6D1ED
:103020007C613861F9603B6918461837BD4690BC31
:10303000704790B486B000AF786039607B683A68BA
:1030400053E8004FA4EB020043E8000191F0000FA9
:10305000F6D17C613861F9603B6918461837BD4686
:1030600090BC704780B582B000AF7860012178686D
:10307000FFF794FF034618460837BD4680BD80B56C
:1030800082B000AF786000217868FFF7A0FF0346A8
:1030900018460837BD4680BD80B582B000AF786065
:1030A0000B46FB707B68002B03D10849E820FFF733
:1030B000D5FE7B68DA68FB787968098A01FB03F33F
:1030C000134418460837BD4680BD00BF7C9F0000F2
:1030D00080B582B000AF786039607B68002B03D187
:1030E0000849F520FFF7BAFE3B687A68D2689B1A58
:1030F0007A68128AB3FBF2F3DBB218460837BD4692
:1031000080BD00BF7C9F000080B584B000AF7860B8
:103110007B68002B01D10E2348E07B681B68002BE5
:1031200003D12449FF20FFF799FE7B685B68002BE1
:1031300004D120494FF48070FFF790FE7B689B68B4
:10314000002B04D11B4940F20110FFF787FE7B687A
:10315000DB68002B04D117494FF48170FFF77EFE26
:103160007B681B8A002B04D1124940F20310FFF741
:1031700075FE7B689A687B685B68D31AFB737B6813
:103180001B687A6852681A6006E07B681A681368E0
:10319000591C1160FA7B1A70FB7B5A1EFA73002BC4
:1031A000F3D17B681B6800221A7100231846103780
:1031B000BD4680BD7C9F000080B584B000AF7860C4
:1031C0007B68002B04D11B494FF49270FFF746FE39
:1031D0000023FB600020FEF76BFC7B681B681A680D
:1031E0007B685B689A421CD97B681B681A68013A45
:1031F0001A601B681B7819467868FFF74DFFF86066
:103200007B689A687B681B681B68D31AFB727B68B3
:103210001B681B79FA7A9A4203D97B681B68FA7A91
:103220001A710020FEF75AFCFB6818461037BD469D
:1032300080BD00BF7C9F000090B585B000AF786076
:1032400039607B68002B04D1114940F24710FFF729
:1032500005FE3B68002B04D10D494FF4A470FFF725
:10326000FDFD3B68FB600020FEF722FC7B681B68CD
:103270001C68621C1A60F9687868FFF729FF03462A
:1032800023700020FEF72AFC00BF1437BD4690BD16
:103290007C9F000080B582B000AF78607B68002B17
:1032A00003D10C493120FFF7D9FD7B689B68002BC7
:1032B0000CD07B685B697A6810697A6811687A68F3
:1032C000926898477B6800229A6000E000BF083748
:1032D000BD4680BDC49F00000EB480B585B000AF70
:1032E00078607B68002B03D119494220FFF7B6FDB7
:1032F0007B685B69002B03D115494320FFF7AEFDC6
:103300007B681B68002B03D111494420FFF7A6FD01
:103310007B685B68002B03D10D494520FFF79EFDBC
:10332000FB69002B0CD00023FB6007F12003FB603E
:1033300007F10C031A46F969786800F0B1F900E06A
:1033400000BF1437BD46BDE8804003B0704700BFE2
:10335000C49F000080B582B000AF78600B46FB7060
:10336000FB780A2B03D10D217868FFF7F3FF7B6808
:103370001A687B689B68581C796888601344FA78DF
:103380001A707B689A687B685B689A4202D3786897
:10339000FFF780FF00BF0837BD4680BD80B586B00F
:1033A00000AFF860B9607A603B6000237B613B68E6
:1033B00003F00103002B21D00AE0BB680133BB609E
:1033C0007B6901337B61FB7C1946F868FFF7C2FF1C
:1033D000BB681B78FB74FB7C002BEED106E07B689E
:1033E000013B7B602021F868FFF7B4FF7A687B69B6
:1033F0009A422BD97B68002BF1D127E0BB68002BC8
:103400000BD0B86806F0B0F8786106E07B68013B45
:103410007B602021F868FFF79DFF7A687B699A42FC
:103420000ED97B68002BF1D10AE0BB680133BB6089
:103430007B6901337B61FB7C1946F868FFF78AFFE3
:10344000BB681B78FB74FB7C002BEED100BF1837E8
:10345000BD4680BD80B588B000AFF860B9607A60C5
:103460003B60BB68FB610123BB6107E0FA697B68D5
:10347000B2FBF3F3FB61BB690133BB61FA697B68A3
:103480009A42F3D23A68BB699A4201D93B68BB6160
:10349000FB6A03F00103002B1FD1BB6A002B1CD079
:1034A000FB6A03F00203002B05D03B68002B02D11E
:1034B0003023FB7501E02023FB7507E0BB6A013B6D
:1034C000BB62FB7D1946F868FFF744FFBB6A002B1F
:1034D00003D0BA69BB6A9A42F0D30123FB613B680F
:1034E000012B03D93B68013B3B6009E0BA68FB69EB
:1034F000B2FBF3F33B613A697B689A4200D205E084
:10350000FB697A6802FB03F3FB61E8E7BA68FB69D1
:10351000B2FBF3F33B613B69FA6902FB03F3BA6860
:10352000D31ABB60154A3B6913441B781946F868E7
:10353000FFF710FFFA697B68B2FBF3F3FB61FB69ED
:10354000002BE3D1FB6A03F00103002B11D0BB6A0F
:10355000002B0ED006E0BB6A013BBB622021F8685D
:10356000FFF7F8FEBB6A002B03D0BA69BB6A9A4228
:10357000F1D300BF2037BD4680BD00BF44A000008E
:1035800080B588B002AFF860B9607A603B60BB6814
:10359000002BB8BF5B423B6101237B6107E07B6886
:1035A0003A6992FBF3F33B617B6901337B617B6892
:1035B0003A699A42F3DA3A687B699A4201D93B68E0
:1035C0007B613B6A002B0AD0BB68002B04DB7B6A63
:1035D00003F00403002B02D03B6A013B3B627B6A91
:1035E00003F00203002B02D03B68002B16D07B6A4D
:1035F00003F00103002B11D13B6A002B0ED006E033
:103600003B6A013B3B622021F868FFF7A3FE3B6A5F
:10361000002B03D07A693B6A9A42F1D3BB68002B36
:1036200007DABB685B42BB602D21F868FFF792FEAA
:1036300008E07B6A03F00403002B03D02B21F86819
:10364000FFF788FE7B6A03F00203002B19D07B6A28
:1036500003F00103002B14D13B68002B11D13B6A0E
:10366000002B0ED006E03B6A013B3B623021F8683C
:10367000FFF770FE3B6A002B03D07A693B6A9A42DF
:10368000F1D3B9687B6A01933B6A00933B687A681F
:10369000F868FFF7DFFE00BF1837BD4680BD0000A9
:1036A00080B58EB002AFF860B9607A60FB68002B1D
:1036B00004D1C74940F25220FFF7D0FBFB685B6999
:1036C000002B04D1C2494FF41570FFF7C7FBFB680C
:1036D0001B68002B04D1BE4940F25520FFF7BEFB0A
:1036E000FB685B68002B04D1B94940F25620FFF714
:1036F000B5FBBB68002B00F0EA81BB681B7887F83C
:103700002F30BB680133BB6097F82F30002B00F0DF
:10371000D58197F82F30252B40F0C48100233B62E0
:103720000123BB62BB681B7887F82F3097F82F30D6
:103730002D2B04D0302B0AD02B2B10D017E03B6A56
:1037400043F001033B62BB680133BB6012E03B6A9C
:1037500043F002033B62BB680133BB600AE03B6A93
:1037600043F004033B62BB680133BB6002E000230B
:10377000BB6200BFBB6A002BD4D10023FB6197F86A
:103780002F302A2B0CD17B681B68191D7A681160B9
:103790001B68FA691344FB61BB680133BB601AE024
:1037A000BB681B7887F82F3097F82F302F2B12D952
:1037B00097F82F30392B0ED8BB680133BB60FA69FC
:1037C00013469B0013445B001A4697F82F301344AE
:1037D000303BFB61D3E700237B62BB681B7887F833
:1037E0002F3097F82F302E2B1DD1BB680133BB60D3
:1037F000BB681B7887F82F3097F82F302F2B12D902
:1038000097F82F30392B0ED8BB680133BB607A6A2A
:1038100013469B0013445B001A4697F82F3013445D
:10382000303B7B62E4E7BB681B7887F82F3097F862
:103830002F306C2B03D097F82F30682B07D1BB6843
:103840000133BB60BB681B7887F82F30EFE797F830
:103850002F30253B532B00F2208101A252F823F098
:10386000913A00009B3A00009B3A00009B3A00000E
:103870009B3A00009B3A00009B3A00009B3A0000F4
:103880009B3A00009B3A00009B3A00009B3A0000E4
:103890009B3A00009B3A00009B3A00009B3A0000D4
:1038A0009B3A00009B3A00009B3A00009B3A0000C4
:1038B0009B3A00009B3A00009B3A00009B3A0000B4
:1038C0009B3A00009B3A00009B3A00009B3A0000A4
:1038D0009B3A00009B3A00009B3A00009B3A000094
:1038E0009B3A00009B3A00009B3A00009B3A000084
:1038F0009B3A00009B3A00009B3A00009B3A000074
:103900009B3A00009B3A00009B3A00009B3A000063
:103910009B3A00009B3A00009B3A00009B3A000053
:103920009B3A00009B3A00009B3A00001D3A0000C1
:103930009B3A00009B3A00009B3A00009B3A000033
:103940009B3A00009B3A00009B3A00009B3A000023
:103950009B3A00009B3A0000B1390000D5390000C5
:103960009B3A00009B3A00009B3A00009B3A000003
:10397000D53900009B3A00009B3A00009B3A0000BA
:103980009B3A00009B3A00009B3A00005D3A000021
:103990009B3A00009B3A0000413A00009B3A00002D
:1039A000F93900009B3A00009B3A00001D3A0000E4
:1039B0007B681B68191D7A6811601B68BB62BB6A53
:1039C000FB76FB7E1946F868FFF7C4FC66E000BF93
:1039D00000A000007B681B68191D7A6811601B68D5
:1039E000BB623B6A0193FB6900937B6A0A22B96A56
:1039F000F868FFF7C5FD51E07B681B68191D7A6800
:103A000011601B68BB62B96A3B6A0193FB69009352
:103A10007B6A0A22F868FFF71DFD3FE07B681B68A0
:103A2000191D7A6811601B68BB62B96A3B6A019311
:103A3000FB6900937B6A1022F868FFF70BFD2DE00D
:103A40007B681B68191D7A6811601B687B613B6A83
:103A5000FA697969F868FFF7A1FC1FE07B681B68C9
:103A6000191D7A6811601B68BB623021F868FFF786
:103A700071FC7821F868FFF76DFCB96A00230193A7
:103A80000823009308231022F868FFF7E3FC05E001
:103A90002521F868FFF75EFC00E000BFBB6801333A
:103AA000BB6005E097F82F301946F868FFF752FC25
:103AB000BB681B78002B7FF420AE00E000BFFB68E2
:103AC0001B7B002B04D0F868FFF7E4FB00E000BF8D
:103AD0003037BD4680BD00BF90B587B002AFF860FB
:103AE000B9607A603B60FB68002B10D1604A614B83
:103AF000D31ADB081B0443F001005F4A5F490E2321
:103B000000930B465E49FDF7A9F90E23ABE07B68F5
:103B1000002B10D1564A574BD31ADB081B0443F035
:103B20000100584A55490E2300930B465449FDF7AE
:103B300095F90E2397E0FB681B68002B10D14C4AC7
:103B40004C4BD31ADB081B0443F001004E4A4B498F
:103B5000082300930B464A49FDF780F9082382E0C9
:103B60003B68002B10D1424A424BD31ADB081B049E
:103B700043F00100454A4149092300930B4640495F
:103B8000FDF76CF909236EE0FB685B685A683B68D7
:103B9000B3FBF2F102FB01F29B1A002B10D0344A66
:103BA000344BD31ADB081B0443F00100384A334975
:103BB000092300930B463249FDF750F9092352E0DF
:103BC000B86800F026F90346002B10D1284A294B8B
:103BD000D31ADB081B0443F001002E4A27491023A7
:103BE00000930B462649FDF739F910233BE07B682B
:103BF000184600F00EF90346002B10D11C4A1D4B4D
:103C0000D31ADB081B0443F00100234A1B4910238D
:103C100000930B461A49FDF721F9102323E03A6877
:103C2000B968F86800F0D6F80346002B10D1104AA6
:103C3000104BD31ADB081B0443F00100174A0F494D
:103C4000102300930B460E49FDF708F910230AE0F4
:103C5000FB681B68DC683B6A00933B687A68B9685C
:103C6000F868A047034618461437BD4690BD00BF0C
:103C700018960000C895000064A0000008A200008B
:103C80006CA00000F8A00000A0A00000B4A00000FC
:103C900000A100002CA1000044A1000068A10000C8
:103CA00090B587B002AFF860B9607A603B60FB689E
:103CB000002B10D13E4A3F4BD31ADB081B0443F0C4
:103CC00001003D4A3D490E2300930B463C49FDF758
:103CD000C5F80E2368E0FB681B68002B10D1344A3E
:103CE000344BD31ADB081B0443F00100354A334937
:103CF000082300930B463249FDF7B0F8082353E040
:103D00007B68002B10D12A4A2A4BD31ADB081B04EC
:103D100043F001002C4A2949092300930B46284906
:103D2000FDF79CF809233FE0B968F86800F083F8D4
:103D30000346002B10D11E4A1E4BD31ADB081B046E
:103D400043F00100214A1D49102300930B461C49F2
:103D5000FDF784F8102327E0FB685B681B687A682E
:103D600002FB03F31A46B968F86800F033F803461B
:103D7000002B10D10E4A0F4BD31ADB081B0443F063
:103D80000100134A0D49102300930B460C49FDF71F
:103D900065F8102308E0FB681B681C693B687A68BB
:103DA000B968F868A047034618461437BD4690BD69
:103DB00018960000C895000064A000001CA2000036
:103DC0006CA00000A0A00000B4A0000090A1000022
:103DD000B8A1000080B485B000AFF860B9607A6027
:103DE000FB68DB68BA689A4209D3BA687B681344F7
:103DF0005A1EFB681B699A4201D8012300E0002388
:103E000003F00103DBB218461437BD465DF8047BAE
:103E1000704780B483B000AF78607B6803F0030321
:103E2000002B0CBF01230023DBB218460C37BD4624
:103E30005DF8047B704780B483B000AF7860396070
:103E40007B685B681B685A1E3B681340002B0CBFE5
:103E500001230023DBB218460C37BD465DF8047B16
:103E6000704780B582B000AF78607868FFF74CF992
:103E7000034618460837BD4680BD80B58AB000AFFE
:103E8000786039607B681B8A043BFB613A68FB6998
:103E90001344DA1CFB69B2FBF3F3FB767868FFF797
:103EA0008BF978617B69002B01D1002337E07B69B6
:103EB00000221A717B6901225A71FB699AB27B69EF
:103EC000DA807B697B62FB7E013B3B617B6A7A68BF
:103ED0001A6000233B621DE07868FFF76DF9F86017
:103EE000FB68002B0ED07B695B790133DAB27B690A
:103EF0005A717B6AFA681A60FB687A681A60FB6814
:103F00007B6204E0786900F00EF8002307E03B6A6A
:103F100001333B623A6A3B699A42DDD37B691846BA
:103F20002837BD4680BD80B58AB000AF78607B6819
:103F3000FB61FB695B79FB767B683B62FB7E013B47
:103F40007B6100237B6205E03B6A1B683B627B6A06
:103F500001337B627A6A7B699A42F5D33B6A1B68BC
:103F60003B617B683B6200237B620BE03B6A1B6822
:103F7000FB60396A3869FFF75FF9FB683B627B6A6F
:103F800001337B62FB7E7A6A9A42EFD300BF283707
:103F9000BD4680BD80B584B000AF78607B68FB60B3
:103FA000FB68043301211846FFF72AF800BF1037D9
:103FB000BD4680BD80B586B000AF78607B687B6110
:103FC0007B69043301211846FFF733F80346FB6091
:103FD00007F10C033B613B691B78002B02D1786829
:103FE000FFF7A1FF00BF1837BD4680BD80B590B078
:103FF00000AFF860B9607A603B60FB68002B03D1CA
:104000004249B620FEF72AFFFB687B62FB68FB6330
:104010007B6ADB881A467B6A5B7903FB02F3043B0D
:104020003B623A683B6A9A4203D33849C420FEF7A0
:1040300015FF7B6ADB88FB613B681A1DFB69B2FBDD
:10404000F3F3BB633B680433FA69B3FBF2F2F9693B
:1040500001FB02F29B1A7B637B681A683B6813447E
:104060003A6A9A4203D23A6A3B68D31A01E07B6803
:104070001B683B637B683A6B1A6005E0FB6B1B684F
:10408000FB63BB6B013BBB63BB6B002BF6D1002317
:10409000FB62FA697B6BD31ABB62BA6A3B6B9342D1
:1040A00028BF1346BB622AE0BA68FB6A1344BB61AF
:1040B000FA6B7B6B134404337B6197F84830002B19
:1040C00005D0BA6A7969B86905F0F2F904E0BA6A0C
:1040D000B969786905F0ECF900237B63FB6B1B6819
:1040E000FB633A6BBB6AD31A3B63FA6ABB6A13443D
:1040F000FB62FA693B6B934228BF1346BB623B6B82
:10410000002BD1D100BF4037BD4680BD30A200009A
:1041100080B588B002AFF860B9607A603B607B68B8
:104120007B6107F11402002300933B68B968F868CB
:10413000FFF75CFF7B697A689A4203D00349F62057
:10414000FEF78CFE00BF1837BD4680BD30A20000D0
:1041500080B588B002AFF860B9607A603B607B6878
:104160007B6107F11402012300933B68B968F8688A
:10417000FFF73CFF7B697A689A4204D004494FF408
:104180008070FEF76BFE00BF1837BD4680BD00BFD4
:1041900030A2000080B483B000AF78607B689B6879
:1041A00000229A607B689B6800221A617B689B688A
:1041B00000225A617B689B680022DA607B689B68FA
:1041C00000225A607B689B6800221A6000BF0C378F
:1041D000BD465DF8047B704780B584B000AF786061
:1041E000786800F00DF8F860FB68002B01D0FB68E0
:1041F00000E0024B18461037BD4680BD78A2000093
:1042000080B487B000AF7860174B7B61174B3B6180
:104210001FE03A697B69D31ADB10DA0F13445B1095
:10422000DB007A691344FB60FB681B68BB60BA68FB
:104230007B689A4202D9FB683B610AE0BA687B68F6
:104240009A4203D2FB6808337B6102E0FB685B683B
:1042500004E07A693B699A42DBD3002318461C3795
:10426000BD465DF8047B70474CA6000064A70000C3
:1042700080B500AF00F06EFB00BF80BD80B500AF21
:1042800000F082FB024B00225A7000BF80BD00BFCD
:104290008807002080B582B000AF00237B60104B00
:1042A0001B78002B02D085237B6014E00C4B00228E
:1042B0009A600B4B00225A60094B00221A61084B8E
:1042C0000022DA60074800F009FB786000F02CFB60
:1042D000034B01221A707B6818460837BD4680BD23
:1042E000880700209544000080B485B000AF786056
:1042F00039607B681B68FB6006E0FA683B689A429D
:104300000DD0FB681B68FB60FB68002BF5D17B6858
:104310001A683B681A607B683A681A6000E000BF60
:104320001437BD465DF8047B704780B485B000AF9C
:1043300078607B681B68FB60FB68002B03D0FB6820
:104340001A687B681A60FB6818461437BD465DF82A
:10435000047B704780B582B000AF7860224B1B7839
:10436000002B04D121494FF49370FEF777FD1E4BCB
:104370005B78DBB2002B12D07B68002B03D07B680C
:104380005B68002098470020FDF792FB164B5B68A6
:104390000133154A53600020FDF7A0FB17E0002011
:1043A000FDF786FB7B68002B03D079681048FFF788
:1043B0009BFF0D4B5B68002B01D1FFF759FF0A4BA8
:1043C0005B680133084A53600020FDF787FB064B0A
:1043D0005B68002B04D105494FF4A170FEF73EFD48
:1043E00000BF0837BD4680BD880700206CA70000CD
:1043F0009007002080B500AF124B1B78002B04D132
:10440000114940F24710FEF729FD0E4B5B68002B67
:1044100004D10D494FF4A470FEF720FD0020FDF7F4
:1044200047FB084B5B68013B064A5360054B5B68E2
:10443000002B01D1FFF722FF0020FDF74FFB00BF4B
:1044400080BD00BF880700206CA7000080B584B045
:1044500000AF0346FB71FB79002B02D10B4BFB60D5
:1044600001E00B4BFB60F868FFF75FFFB860BB68CB
:10447000002B05D0BB685B68FA7910469847F2E7D5
:1044800000BF00BF1037BD4680BD00BF90070020B1
:104490009807002080B582B000AF0346FB71FB791E
:1044A000002B05D1094B01225A700020FFF7CEFFE7
:1044B000FB79012B05D1054B01229A700120FFF7F2
:1044C000C5FF00BF0837BD4680BD00BF880700207C
:1044D00080B588B000AF786039603B68FB617B686D
:1044E0001B783B737B685B683B617B689B68DBB2D6
:1044F0003B757B68DB68BB61074AFB6952F8233078
:104500000649FA6951F8221007F10C021046984743
:1045100000BF2037BD4680BD9C070020A0070020BB
:1045200080B588B000AF786039603B68FB617B681C
:104530001B783B737B685B683B617B689B68DBB285
:104540003B757B68DB68BB61074AFB6952F8233027
:104550000649FA6951F8221007F10C0210469847F3
:1045600000BF2037BD4680BD9C070020A00700206B
:10457000B0B58EB000AFF860B9607A60FB681B78A8
:104580003B6329493B6B7A6841F82320BB681A6971
:1045900026493B6B41F82320BB685B7F1946244AC0
:1045A0003B6B13440A461A70BB6807F110041D46A2
:1045B0000FCD0FC495E80F0084E80F003B6B3B6202
:1045C00000237B63FB681B781A46194B9B5C002B0E
:1045D0000ED0FB68181D7B68002B01D0154A00E047
:1045E000002207F11003194603F08CF8786315E0F8
:1045F000FB681B781A460E4B9B5C002B0ED1FB68A8
:1046000003F10C007B68002B01D00B4A00E0002274
:1046100007F11003194602F0C9F978637B6B18465D
:104620003837BD46B0BD00BF9C070020A007002062
:10463000A4070020D14400002145000080B483B0CD
:1046400000AF0346FB71FB7903F01F02074997F99E
:1046500007305B09012000FA02F241F8232000BF75
:104660000C37BD465DF8047B704700BF00E100E0F9
:1046700080B483B000AF03463960FB7197F907300F
:10468000002B0BDA3B68DAB20C49FB7903F00F031D
:10469000043B5201D2B20B441A7609E03B68DAB20D
:1046A000074997F907305201D2B20B4483F800232F
:1046B00000BF0C37BD465DF8047B704700ED00E09D
:1046C00000E100E080B483B000AF78607B681B0B32
:1046D0005BB218460C37BD465DF8047B704700009E
:1046E00080B582B000AF03460A46FB711346BB712A
:1046F000BB79072B03D907496B20FEF7AFFBBA79CB
:1047000097F9073011461846FFF7B2FF00BF083788
:10471000BD4680BDB0A7000080B582B000AF0346A3
:10472000FB7197F907301846FFF788FF00BF08377D
:10473000BD4680BD80B483B000AF0346FB71114A13
:1047400097F90730002B00DA1F335B115BB252F888
:10475000232097F90730594203F01F0301F01F018E
:1047600058BF4B425BB222FA03F303F00103002B64
:1047700014BF01230023DBB218460C37BD465DF899
:10478000047B704700E100E080B483B000AF786044
:104790004FF080427B68C2F8043300BF0C37BD463F
:1047A0005DF8047B704780B483B000AF78604FF051
:1047B00080427B68C2F8083300BF0C37BD465DF805
:1047C000047B704780B483B000AF0346FB71FB7974
:1047D00003F1804301221A6000BF0C37BD465DF82B
:1047E000047B704780B485B000AF0346FB80FB8834
:1047F00003F1804300221A60FB8803F180431B68A9
:10480000FB60FB6800BF1437BD465DF8047B704752
:1048100080B483B000AF0346FB80FB8803F1804384
:104820001B68002B14BF01230023DBB218460C3792
:10483000BD465DF8047B704780B483B000AF7860FC
:104840004FF080427B68C2F8183500BF0C37BD4678
:104850005DF8047B704780B483B000AF0346FB7102
:104860004FF08043D3F80C3403F00112FB7943F48A
:1048700080339A420CBF01230023DBB218460C3769
:10488000BD465DF8047B704780B582B000AF06235B
:10489000FB714FF08040FFF715FF03461846FFF706
:1048A00049FF034683F00103DBB2002B12D04FF027
:1048B0008040FFF707FF03461A46FB79194610466A
:1048C000FFF70EFF4FF08040FFF7FCFE034618464F
:1048D000FFF722FF00BF0837BD4680BD80B584B01A
:1048E00000AF78607B68002B03D10D49A420FEF750
:1048F000B5FA0023FB600B4B1B79002B02D08523FC
:10490000FB6008E0074A7B681360064B01221A71BE
:10491000044B00225A71FB6818461037BD4680BD13
:10492000E8A70000A807002080B500AF074B1B795F
:10493000002B03D10649BD20FEF790FAFFF7A4FF34
:104940000120FFF779FF00BF80BD00BFA80700204E
:10495000E8A7000080B500AF094B1B79002B03D1FD
:104960000849FF20FEF77AFA4FF48070FFF73AFF0C
:104970000120FFF709FF0020FFF724FF00BF80BDE3
:10498000A8070020E8A7000080B500AF0B4B1B79FB
:10499000002B04D10A4940F20710FEF75FFA042009
:1049A000FFF710FF00BF0120FFF755FF0346002B64
:1049B000F9D1024B00225A7100BF80BDA807002028
:1049C000E8A7000080B500AF4FF48070FFF720FF2C
:1049D0000346002B14D04FF48070FFF703FF012033
:1049E000FFF7E1FE104B5B7983F00103DBB2002B94
:1049F00006D00D4B01225A710B4B1B6800209847C3
:104A00004FF48270FFF704FF0346002B0AD04FF4E7
:104A10008270FFF7E7FE0220FFF7C5FE024B1B681E
:104A20000120984700BF80BDA807002080B483B054
:104A300000AF0346FB71FB7903F01F02074997F9AA
:104A400007305B09012000FA02F241F8232000BF81
:104A50000C37BD465DF8047B704700BF00E100E005
:104A600080B483B000AF0346FB71FB7903F01F02F3
:104A7000074997F907305B09012000FA02F2603319
:104A800041F8232000BF0C37BD465DF8047B70471A
:104A900000E100E080B483B000AF03463960FB71F1
:104AA00097F90730002B0BDA3B68DAB20C49FB7937
:104AB00003F00F03043B5201D2B20B441A7609E013
:104AC0003B68DAB2074997F907305201D2B20B447A
:104AD00083F8002300BF0C37BD465DF8047B7047A8
:104AE00000ED00E000E100E080B582B000AF0346D9
:104AF0000A46FB711346BB71BB79072B03D90749E3
:104B00006B20FEF7ABF9BA7997F9073011461846D2
:104B1000FFF7C0FF00BF0837BD4680BD2CA80000CE
:104B200080B582B000AF0346FB7197F90730184695
:104B3000FFF77CFF00BF0837BD4680BD80B582B05F
:104B400000AF0346FB7197F907301846FFF788FF5F
:104B500000BF0837BD4680BD80B483B000AF0346B8
:104B6000FB71FB7903F1804303F5A04301221A6036
:104B700000BF0C37BD465DF8047B704780B483B03E
:104B800000AF0346FB80FB8803F1804303F5A0439D
:104B900000221A60BFF34F8F00BF0C37BD465DF88F
:104BA000047B704780B483B000AF0346FB80FB8872
:104BB00003F1804303F5A0431B68002B14BF0123BE
:104BC0000023DBB218460C37BD465DF8047B704706
:104BD00080B483B000AF7860044A7B68C2F80433C5
:104BE00000BF0C37BD465DF8047B704700500040A5
:104BF00080B483B000AF7860074BD3F804237B68A0
:104C00001340002B14BF01230023DBB218460C37DE
:104C1000BD465DF8047B70470050004080B400AF93
:104C2000034BD3F804331846BD465DF8047B704748
:104C30000050004080B483B000AF7860044A7B68C5
:104C4000C2F8083300BF0C37BD465DF8047B7047DF
:104C50000050004080B400AF034BD3F80434184632
:104C6000BD465DF8047B70470050004080B483B0BF
:104C700000AF7860044A7B68C2F8043400BF0C3788
:104C8000BD465DF8047B70470050004080B400AF23
:104C9000034BD3F80C341846BD465DF8047B7047CF
:104CA0000050004080B483B000AF7860044A7B6855
:104CB000C2F80C3400BF0C37BD465DF8047B70476A
:104CC0000050004080B400AF044BD3F83C34DBB25A
:104CD0001846BD465DF8047B704700BF0050004099
:104CE00080B400AF044BD3F808359BB21846BD46DC
:104CF0005DF8047B704700BF0050004080B483B073
:104D000000AF7860054A7B689BB2C2F8083500BFE7
:104D10000C37BD465DF8047B704700BF0050004073
:104D200080B483B000AF0346FB71054AFB79C2F83B
:104D30000C3500BF0C37BD465DF8047B704700BFE3
:104D40000050004080B400AF034BD3F81035184634
:104D5000BD465DF8047B70470050004080B483B0CE
:104D600000AF78600B467B80074A7B68C2F810353D
:104D70007B88054AC3F30803C2F8143500BF0C371B
:104D8000BD465DF8047B70470050004080B400AF22
:104D9000054BD3F81C359BB2C3F30B039BB21846EB
:104DA000BD465DF8047B70470050004080B483B07E
:104DB00000AF0346FB80FB88054AC3F30B03C2F830
:104DC0001C3500BF0C37BD465DF8047B704700BF43
:104DD0000050004080B485B000AF0346FB710B4B20
:104DE000D3F824359BB2C3F30B03FB81FB79002B73
:104DF00001D0102300E00023FA89D31A9BB2184691
:104E00001437BD465DF8047B704700BF005000407A
:104E100080B487B000AF7860314BD3F890357B61B8
:104E20002F4BD3F8A035DBB223F03F03FB74FB7CA0
:104E3000002B32D02A4BD3F89435FB60FB7C802BBF
:104E400017D1274BD3F89835BB60BB68190C7B682A
:104E50005A1C7A60CAB21A70BB68190A7B685A1C5D
:104E60007A60CAB21A707B685A1C7A60BA68D2B289
:104E70001A70FB68190C7B685A1C7A60CAB21A70E7
:104E8000FB68190A7B685A1C7A60CAB21A707B6880
:104E90005A1C7A60FA68D2B21A707B69190E7B6864
:104EA0005A1C7A60CAB21A707B69190C7B685A1C4A
:104EB0007A60CAB21A707B69190A7B685A1C7A60D8
:104EC000CAB21A707B685A1C7A607A69D2B21A70B8
:104ED000FB7C18461C37BD465DF8047B704700BF5D
:104EE0000050004080B485B000AF78600B46FB7086
:104EF000FB78C02B01D0FB7800E04023FB73FB7BE9
:104F0000002B28D0FB7B802B12D17B681B781A04E6
:104F10007B6801331B781B0213437A6802321278D4
:104F200011461F4A0B43C2F898357B6803337B60F8
:104F30007B681B781A047B6801331B781B021343C0
:104F40007A68023212781146154A0B43C2F894353A
:104F50007B6803337B607B681B781A067B680133B0
:104F60001B781B041A437B6802331B781B02134314
:104F70007A68033212781146094A0B43C2F8903519
:104F8000074BD3F8A03523F0C002FB7B0449134341
:104F9000C1F8A03500BF1437BD465DF8047B7047EB
:104FA0000050004080B483B000AF0346FB71084B53
:104FB000D3F8A03523F01F02FB7905491343C1F84C
:104FC000A03500BF0C37BD465DF8047B704700BFBD
:104FD0000050004080B400AF054BD3F8A4355B0906
:104FE00003F00303DBB21846BD465DF8047B70474F
:104FF0000050004080B483B000AF0346FB71084B03
:10500000D3F8A43523F06002FB795B010449134314
:10501000C1F8A43500BF0C37BD465DF8047B70476E
:105020000050004080B483B000AF78607B68D3F854
:105030001035DBB218460C37BD465DF8047B70476F
:10504000F0B587B000AF78600B46FB70FB787B61F2
:105050007B6819464FF000024FF000034FF0000448
:10506000140144EA11740B017A69C2F12000A2F123
:10507000200123FA02F504FA00F0054324FA01F1B5
:105080000D4324FA02F6C7E90256D7E90234012C8F
:1050900008BF002B04D3054940F2B320FDF7DEFE24
:1050A000BB6818461C37BD46F0BD00BF64A80000B1
:1050B00080B582B000AF786039607B681B681846A5
:1050C000FFF7B0FF034619463868FFF7B9FF0346FC
:1050D00018460837BD4680BD80B500AF0320FFF7F6
:1050E0001FFE0420FFF75EFF00BF80BD80B582B0C9
:1050F00000AF0346FB71FB79002B04D04FF48050C6
:10510000FFF7FCFD04E0044BDB681846FFF7F6FDF3
:1051100000BF0837BD4680BDB007002080B586B00F
:1051200000AF0346FB71FB79DBB2032B08D100F023
:10513000A1F90346002B01D0022300E00123FB71FB
:10514000FB79DBB2012B22D0022B3AD1214B5B7AC7
:10515000DBB283F00103DBB2002B34D01E4800F039
:10516000C1FF1D4800F05EFF1B4B00229A60194BE7
:1051700001225A720223BB60164B5B68002B22D0BF
:10518000144B5B6807F10802104698471BE00820A3
:1051900000F0EAF94FF48F60FFF74CFD0D4B002251
:1051A0005A720423BB600120FFF7A0FF094B5B6824
:1051B000002B0AD0074B5B6807F10802104698479E
:1051C00003E000BF02E000BF00E000BF00BF1837EF
:1051D000BD4680BDB0070020D000002080B5A4B03F
:1051E00000AFFFF77DFDC7F88C003B1D1846FFF7A9
:1051F0000FFE034687F88B30FFF7ECFE034687F877
:105200008A30FFF70BFDC7F88400134B00221A60A9
:10521000114B1B68104B01221A60D7F88C00FFF766
:105220006DFD97F88B203B1D11461846FFF75AFE7F
:1052300097F88A301846FFF7DDFEFFF74DFFD7F8E5
:105240008400FFF7C5FC4FF48F60FFF7F3FC00BF4D
:105250009037BD4680BD00BFFC5F004080B584B084
:1052600000AF00F007F9034683F00103DBB2002B27
:1052700025D0174B9B680133154A9360144B9B68EC
:10528000072B20D93B4600221A605A609A60DA60E8
:1052900004233B600E4800F0F5FE0E4B00225A72CC
:1052A0000120FFF723FFFFF799FF0A4B5B68002BF4
:1052B00009D0084B5B683A461046984703E0044B18
:1052C00000229A6000E000BF1037BD4680BD00BFDD
:1052D000D0000020B007002080B582B000AF0346A8
:1052E0003960FB80FB88B3F5A07F02D1FFF7B6FFE2
:1052F00000E000BF0837BD4680BD000080B586B025
:1053000002AF3B1D00221A605A6004233B71062342
:10531000FB713B1D0D4A19460D4800F08BFDF860EE
:10532000FB68002B01D0FB680CE064210848FFF704
:10533000BFFE02460123009301230021044800F030
:105340002AFFFB6818461037BD4680BDD9520000C1
:10535000D000002080B483B000AF0346FB71FB791E
:10536000072B05D00A2B05D0042B05D1002304E020
:10537000402302E0802300E0402318460C37BD465E
:105380005DF8047B7047000080B582B000AF7860A4
:10539000054B1A687B6813401846FFF719FC00BFDD
:1053A0000837BD4680BD00BFB007002080B586B07D
:1053B00000AF78607B68002B04D124494FF4CD7096
:1053C000FDF74CFD00237B61214B1B7A002B01D0A4
:1053D000082336E01E4B7A6892E8030083E8030056
:1053E000FFF77AFE0520FFF7A9FB06210520FFF74E
:1053F0007BFB0520FFF794FBFFF780FF78617B695B
:10540000002B1DD107F10C030721184600F032F9DB
:1054100078617B69002B04D00C4940F2B310FDF792
:105420001DFD07F10C03C0211846FFF75BFD084B7B
:1054300001221A72064B4FF48052DA607B6900E059
:105440007B6918461837BD4680BD00BF94A8000090
:10545000B007002080B500AF0D20FFF707FC082043
:10546000FFF77AFB0248FFF7B3FB00BF80BD00BF28
:105470008200080080B582B000AFFFF723FC03462E
:105480007B607B6803F00103002B06D17B6803F08F
:105490000203002B01D1002300E001231846083746
:1054A000BD4680BD80B582B000AF78607B68002BC0
:1054B00004D10C4940F2F710FDF7D0FC7B685A6824
:1054C0007B681B689BB219461046FFF747FC4FF4F8
:1054D0008C60FFF759FF1C20FFF73EFB00BF083729
:1054E000BD4680BD94A8000080B582B000AF786052
:1054F0000B46FB707B68002B04D11A4940F2022056
:10550000FDF7ACFC7B685B68002B04D1154940F2C9
:105510000320FDF7A3FC7B681B68002B01D1092346
:105520001BE07B685A687B681B689BB21946104673
:10553000FFF714FC7B681B689BB2DB009BB218462C
:10554000FFF734FCFB781846FFF7EAFB1820FFF75B
:105550001BFF0C20FFF700FB002318460837BD4651
:1055600080BD00BF94A8000080B582B000AF0346A4
:10557000FB71FB791846FFF7EFFA00BF0837BD460D
:1055800080BD000080B582B000AF0346FB71FB799F
:10559000292B0DD10E4B1B6803F00103012B03D106
:1055A0002820FFF7D9FA07E02420FFF7D5FA03E017
:1055B000FB791846FFF7D0FA0120FFF797FD4FF46B
:1055C0008F60FFF737FB00BF0837BD4680BD00BFC7
:1055D0002054004080B586B000AF78607B68002B17
:1055E00004D1224940F24320FDF738FC7B681B7848
:1055F000012B1AD0022B24D0002B31D17B685B68A1
:105600007B614FF6FF733B613B6901337A699A42D4
:1056100001D9072326E07A693B69934228BF1346E4
:105620007B61134A7B69D3601BE07B681B79032B8A
:1056300001D9072316E07B681B791846FFF7DAFCCF
:105640000FE07B681B7A1846FFF784FE0346FB7366
:105650007B685B68FA7B11461846FFF743FC00E065
:1056600000BF002318461837BD4680BD94A800002F
:10567000B007002080B487B000AF786039603B6825
:10568000042B07D03B68072B04D03B680A2B01D0C2
:1056900009235CE04FF08053D3F850347B614FF026
:1056A0008053D3F854343B614FF08053D3F85834CF
:1056B000FB607B69DAB27B681A707B691A0A7B68C7
:1056C0000133D2B21A707B691A0C7B680233D2B2F2
:1056D0001A707B6803333A69D2B21A703B68042BA4
:1056E00034D03B691A0A7B680433D2B21A703B6922
:1056F0001A0C7B680533D2B21A703B691A0E7B68AC
:105700000633D2B21A703B680A2B11D17B6807337B
:10571000FA68D2B21A70FB681A0A7B680833D2B2F0
:105720001A70FB681A0C7B680933D2B21A700DE04C
:105730007B6803331B78882B08D17B6803331A7886
:105740007B68033342F01102D2B21A70002318466C
:105750001C37BD465DF8047B7047000080B400AF85
:10576000054B1B68044A23F00103136000BFBD46CC
:105770005DF8047B704700BF9C55004080B400AFCB
:10578000054B1B68044A43F00103136000BFBD468C
:105790005DF8047B704700BF9C55004080B596B013
:1057A00000AF002387F857304FF48270FFF7FAF903
:1057B0000346002B0CD00220FFF71AFA0346002BF9
:1057C00006D04FF48270FFF7D9F9022387F85730DB
:1057D00097F85730002B04D097F857301846FFF74A
:1057E0009DFC4FF48C70FFF7DDF90346002B48D089
:1057F0004020FFF7FDF90346002B42D04FF48C7098
:10580000FFF7BCF907F1400300221A605A609A6062
:10581000DA6040233B6400237B64FFF793FA03467E
:10582000FB640120FFF7D6FA0346DB089BB2BB649A
:105830004FF49470FFF7B6F90346002B13D04FF4E2
:105840008060FFF7D5F90346002B0CD0FFF71EFA56
:10585000034603F00D037B644FF49470FFF78EF959
:105860000D20FFF71FFA6B4B5B68002B05D0694BCF
:105870005B6807F14002104698474FF48670FFF7C7
:105880007DF94FF48870FFF78DF90346002B1FD088
:105890001020FFF7ADF90346002B19D04FF48870A4
:1058A000FFF76CF907F1300300221A605A609A6022
:1058B000DA6010233B631820FFF7BCF9554B5B6897
:1058C000002B05D0534B5B6807F130021046984718
:1058D0004FF4A670FFF766F90346002B37D04FF45C
:1058E0000020FFF785F90346002B30D04FF4A67057
:1058F000FFF744F94FF48C70FFF740F94FF49470C0
:10590000FFF73CF94FF48670FFF738F94FF48870D1
:10591000FFF734F90020FFF7E9FB0D20FFF7C2F98C
:105920000D20FFF7A3F907F1200300221A605A6047
:105930009A60DA604FF400233B62364B5B68002BC1
:1059400005D0344B5B6807F12002104698474FF4AE
:105950008E70FFF727F90346002B30D08020FFF729
:1059600047F90346002B2AD0FFF774F938654FF446
:105970008E70FFF703F907F1100300221A605A60D6
:105980009A60DA6080233B613B6D03F00103002BDA
:105990000ED00120FFF76AF900233B751D4B5B68B1
:1059A000002B05D01B4B5B6807F11002104698478F
:1059B0003B6D23F001033B650D20FFF757F94FF4D2
:1059C0008670FFF7EFF80346002B1ED00820FFF784
:1059D0000FF90346002B18D04FF48670FFF7CEF86E
:1059E0000C4B5B68002B10D008233B60FFF7AAF933
:1059F0000346BB60FFF7CAF90346DB089BB27B6036
:105A0000044B5B683A461046984700BF5837BD467E
:105A100080BD00BFB007002080B500AF064B1B68FB
:105A2000002B03D105495120FDF718FA024B1B68E2
:105A3000984700BF80BD00BFC0070020DCA8000061
:105A400080B483B000AF78607B68064A934201D18E
:105A5000054B00E0002318460C37BD465DF8047B7B
:105A6000704700BF00200040C007002080B586B00E
:105A700000AF786039607B68002B03D1164977202E
:105A8000FDF7ECF97868FFF7DBFF78617B69002BA5
:105A90001BD00023FB740020FCF70AF87B691B79FC
:105AA000002B02D00123FB7405E07B693A681A6081
:105AB0007B6901221A710020FCF710F8FB7C002B97
:105AC00003D01123FB60FB6802E00023FB60FB684E
:105AD00018461837BD4680BDDCA8000080B584B0EC
