:1000000000000120750300005D030000D12A0000FC
:1000100061030000630300006503000000000000AE
:100020000000000000000000000000006703000066
:1000300069030000000000006B0300006D03000076
:100040009D4700006F030000E55600006F030000AD
:100050006F030000795400006F0300006F0300007D
:100060006F0300006F0300006F0300006F030000C8
:100070006F0300006F0300006F0300006F030000B8
:100080006F0300006F0300006F0300006F030000A8
:100090006F0300006F0300006F0300006F03000098
:1000A0006F0300006F0300006F030000C55E0000D7
:1000B0006F0300006F03000000000000000000005C
:1000C0006F0300006F0300006F0300006F03000068
:1000D0006F0300006F0300006F03000000000000CA
:1000E0000000000000000000000000000000000010
:1000F0000000000000000000000000000000000000
:1001000000000000000000000000000000000000EF
:1001100000000000000000000000000000000000DF
:1001200000000000000000000000000000000000CF
:1001300000000000000000000000000000000000BF
:1001400000000000000000000000000000000000AF
:10015000000000000000000000000000000000009F
:10016000000000000000000000000000000000008F
:10017000000000000000000000000000000000007F
:10018000000000000000000000000000000000006F
:10019000000000000000000000000000000000005F
:1001A000000000000000000000000000000000004F
:1001B000000000000000000000000000000000003F
:1001C000000000000000000000000000000000002F
:1001D000000000000000000000000000000000001F
:1001E000000000000000000000000000000000000F
:1001F00000000000000000000000000000000000FF
:10020000354936480A1A02D0072291438D463449AF
:1002100034480A1A06D00722914381F30988022242
:1002200082F3148830483149314A00F044F83148AB
:100230003149324A00F03FF831483249324A00F041
:100240003AF832483249334A00F035F832483349F7
:10025000334A00F030F833483349344A00F02BF881
:1002600033483449344A00F026F8344834490022EF
:1002700000F02CF833483449002200F027F83348C6
:100280003349091A082902DB002202604160314A21
:1002900090471F481F49884205D00268043003B4C4
:1002A000904703BCF7E700208646EC46002000217B
:1002B000294A9047FEE7884207D0521A05D00378B2
:1002C00001300B700131013AF9D17047884202D0F8
:1002D00002700130FAE770470000012000E00020C2
:1002E00000000120000001209CA900001400002053
:1002F000F8000020D0030000D0030000AC8F000005
:100300009CA9000014000020140000203C90000074
:100310003C9000003C9000003C9000003C900000AD
:100320003C9000003C9000003C9000009CA9000024
:1003300080AA0000F8000020F8000020F80000204B
:10034000EC0E0020EC0E0020EC0E0020EC0E002045
:10035000EC2E00209D03000045770000FEE7FEE73D
:10036000FEE7FEE7FEE7FEE7FEE7FEE7FEE7FEE765
:1003700000F002B8FFF7FCBF0F484FF007018843B9
:1003800085460E4880470E48016841F470010160BF
:10039000BFF34F8FBFF36F8FFFF732BF09480A4992
:1003A0000A4A884207D0521A05D0037801300B70F0
:1003B0000131013AF9D17047000001202178000095
:1003C00088ED00E0289000000000002014000020CC
:1003D00000B5A1B00590049103920293049803F034
:1003E0000AFD039B1593029B16930023179300238A
:1003F0008DF8603000231993229B1A9300231F93DA
:100400000FA91F9B0822049803F0CEFD08231F9319
:10041000119B1293BDF84030ADF84C30BDF842301E
:10042000ADF84E3000238DF851309DF83C3003F08C
:100430000303DBB2012B26D10F9BC3F395231D933E
:100440009DF83C30C3F3C203DBB28DF85030BDF8E9
:100450003C30C3F38313DBB21C931C9B9A0009A9A5
:100460001F9B049803F0A0FD1C9B9B001F9A134444
:100470001F9312AA09A915AB009313461C9A1D9845
:1004800001F004F82FE09DF83C3003F00303DBB2E9
:10049000022B28D1BDF83E30C3F389139BB21E93C3
:1004A0009DF83C30C3F3C203DBB28DF850301E9B85
:1004B000082B28BF08231B9307A91F9B1B9A04988E
:1004C00003F072FD1F9A1B9B13441F931E9A1B9BE4
:1004D000D31A1E9315AB12AA07A81B9901F078F83E
:1004E0001E9B002BE3D1049803F094FC00BF21B0C5
:1004F0005DF804FB00B583B00190019B1B781A46A0
:100500000C4B9B5C002B05D0019B0433184606F076
:10051000B3FE0BE0019B1B781A46064B9B5C002B3D
:1005200004D1019B0C33184606F076F800BF03B0E7
:100530005DF804FBA407002000B587B0039002918A
:1005400013468DF8073000230593039B1B781A464A
:10055000114B9B5C002B09D0039B04339DF80720B3
:100560000299184606F0DEFE05900FE0039B1B780B
:100570001A46094B9B5C002B08D1039B0C339DF85A
:1005800007200299184606F0BFF80590059B18460B
:1005900007B05DF804FB00BFA407002082B0019003
:1005A0000091034B01221A7000BF02B0704700BFD8
:1005B0003801002030B58DB003468DF807301A4B56
:1005C00002AC1D460FCD0FC495E80F0084E80F0064
:1005D000062302934FF0FF3303934FF0FF3304934E
:1005E0004FF0FF3305934FF0EB7308939DF80730FE
:1005F000002B01D00D4A00E0002202AB19460C4846
:1006000003F0CEFE0B900B9B0A930A9B002B04D0A9
:10061000084A43210A9801F09FF8074A9DF80730DD
:10062000137000BF0DB030BD8C9000009D05000020
:10063000140000203C9000003901002000B583B078
:1006400000238DF807309DF807301846FFF7B2FFFA
:1006500000BF03B05DF804FB00B589B003900291C0
:100660000192019B8DF81F30124B00221A709DF8E9
:100670001F301A4602991048FFF75EFF0690069B4E
:100680000593059B002B04D00C4A5321059801F0DB
:1006900063F800BF0A4B1B78002B07D0054B1B7873
:1006A000DBB283F00103DBB2002BF3D100BF09B052
:1006B0005DF804FB38010020140000203C9000008D
:1006C0003901002000B585B003900291054B0093DD
:1006D0004023054A02990398FFF77AFE00BF05B050
:1006E0005DF804FB59060000F800002082B001907C
:1006F00000BF02B07047000000B583B0019005480C
:10070000FFF7F8FE0020FFF755FF00BF03B05DF8CC
:1007100004FB00BF1400002082B00190019BDB6845
:1007200001225A7100BF02B07047000000B583B0CB
:100730004FF0FF330193FFF781FF0421084800F0D9
:10074000C1FD0190019B002B03DA0649482002F00D
:10075000CFFA0348FFF7E0FF00BF03B05DF804FBEA
:1007600004900000CC90000000B583B0019000918F
:10077000019B1B681B6800990198984700BF03B054
:100780005DF804FB00B583B00190019B1B685B68BA
:100790000198984700BF03B05DF804FB00B583B033
:1007A0000190019B1B689B680198984700BF03B0AC
:1007B0005DF804FB82B001900B468DF80330019B7D
:1007C000DB689DF803201A7100BF02B0704782B049
:1007D0000190019BDB681B79184602B0704782B01C
:1007E0000190019BDB6801225A7100BF02B0704783
:1007F00082B00190019BDB685B79184602B07047BC
:1008000000B585B001900091154BFF229A60144B02
:1008100000221A60124B00225A60114B0022C3F8CA
:1008200018240F4B0022C3F814240D4B012283F827
:1008300020240C4803F044FA0390039B002B01D0C2
:10084000039B08E0084803F0CFFB084A084BD31A83
:10085000DB0802930023184605B05DF804FB00BFD7
:10086000A4020020149000002091000004900000D9
:10087000AC8F0000024A034BD31ADB0818467047BE
:1008800004900000AC8F000000B587B001900B46CB
:100890008DF803309DF80330002B1FD0FFF7EAFFDF
:1008A00004900023059313E0059B9B000E4A13441C
:1008B0000393039B1B881A46019B1B689A4204D131
:1008C000019B059A1A60002309E0059B01330593FB
:1008D000059A049B9A42E7D3052300E000231846BB
:1008E00007B05DF804FB00BF1400002000B585B020
:1008F00001900B468DF803309DF8032001AB1146A3
:100900001846FFF7C1FF0346002B07D1019BDB0010
:10091000054A13440393039B1B6800E00023184619
:1009200005B05DF804FB00BFAC8F000084B00190FF
:100930000B468DF80330019BDB00174A13440293EA
:100940009DF80330013B032B1CD801A252F823F081
:100950006109000069090000710900007B090000BD
:1009600002238DF80F3011E004238DF80F300DE0D5
:10097000029B1B798DF80F3008E0029B5B798DF8A4
:100980000F3003E000238DF80F3000BF9DF80F30CB
:10099000184604B0704700BFAC8F000084B00190CF
:1009A000009100238DF80F30019B1B7803F00403A6
:1009B000DBB2002B24D0019B1B78C3F30103DBB215
:1009C000012B02D0022B0CD017E0009B1B68019A70
:1009D0001288C2F38312D2B213449A1C009B1A608D
:1009E0000BE0009B1B68019A5288C2F3891292B2F5
:1009F00013449A1C009B1A6000BF01238DF80F302E
:100A00009DF80F30184604B07047000000B58BB059
:100A10000023ADF826303E4802F060FA3D4802F06F
:100A20005DFA3D4B5B6804933B4B9B680693049ACD
:100A3000069B134002339B00374A13440433089348
:100A400004AB19460898FFF7A9FF0346002B09D00D
:100A5000049A069B134002339B002F4A134404332D
:100A60000893EDE700BF0023079311E0049B5A1C95
:100A70000492069A1340079A920001A90A44264953
:100A800002339B000B445B681360079B01330793A1
:100A9000079B012BEAD99DF80430C3F30103DBB2B5
:100AA000012B10D0022B1CD1BDF80A30ADF8263036
:100AB000BDF80630C3F389139BB203339A08049B35
:100AC0001344049313E0BDF80A30ADF82630BDF8A6
:100AD0000430C3F38313DBB21A46049B134404931C
:100AE00005E00E494FF4BF7002F002F900BF09485B
:100AF00002F000FA0590059B002B02D0049B064AE9
:100B00005360BDF8263018460BB05DF804FB00BFFB
:100B1000BC060020B8060020A4020020309100008E
:100B200000B585B00021074802F061F90390039BEE
:100B30000293029B83F310030193019B184605B0B7
:100B40005DF804FBC006002000B589B00390029157
:100B500001920093039B1B0C0793FFF7E1FF0690A4
:100B6000FFF788FE0246079B934204D3214940F2D7
:100B7000A31002F0BDF8069B1904009B5A1C0A9BA7
:100B80001340079A0A431C4902339B000B445A60E6
:100B9000009A0A9B134002339B00174A1344043304
:100BA0000593039B03F00703D9B2059A137861F309
:100BB000C5031370019B03F00F03D9B2059A138884
:100BC00061F389131380029BC3F31501059A13681F
:100BD00061F39F231360059A1378012161F30103E8
:100BE0001370059A13786FF38203137000BF09B076
:100BF0005DF804FB30910000A402002000B58BB02A
:100C00000390029113468DF80730039B023308933B
:100C100001238DF81F30002000F0C2FE3E4B1A6801
:100C2000029B1A603C4B9A683B4B59683A4B1B68D5
:100C3000CB1A13440133099314E00121374802F021
:100C40001DF9FFF7E3FE06900699344802F016F905
:100C5000314B9A68304B59682F4B1B68CB1A1344A1
:100C600001330993089A099B9A42E6D89DF81F30F0
:100C7000002B48D0002304939DF80730002B17D099
:100C80009DF81030012262F301038DF810309DF8B9
:100C9000103043F004038DF81030039B03F00F0372
:100CA000DAB2BDF8103062F38913ADF8103016E0F7
:100CB0009DF81030022262F301038DF810309DF888
:100CC000103043F004038DF81030039BC3F3090385
:100CD0009AB2BDF8123062F38F13ADF812300E4B9A
:100CE0001A680D4B9B68134002339B000A4A134459
:100CF00004330593049A059B1A60074B1A68089BF6
:100D00001344054A1360002000F05EFE9DF81F307A
:100D100018460BB05DF804FBA4020020C0060020BA
:100D200000B58BB005900491039202931F4B9B6812
:100D3000079306AB012219460298FFF75FFF0346AF
:100D4000002B24D0069B023309930023089311E063
:100D5000089B9B00039A1A44099B591C0991079907
:100D60000B401268114902339B000B445A60089BE8
:100D700001330893089A029B9A42E9D3069A079B8B
:100D800000931346029A04990598FFF7DDFE074B7E
:100D900093F82034002B05D000BF00F093F80346F1
:100DA000002BFAD100BF0BB05DF804FBA4020020B9
:100DB00000B583B0019000910023002200990198B2
:100DC000FFF7AEFF00BF03B05DF804FB00B587B0CE
:100DD000039002910192019B059305AA01230299B8
:100DE0000398FFF79DFF00BF07B05DF804FB00B557
:100DF00087B00390029101920093019B0493009BA2
:100E0000059304AA022302990398FFF789FF00BF04
:100E100007B05DF804FB00B589B003900291019220
:100E20000093019B0593009B06930A9B079305AAD9
:100E3000032302990398FFF773FF00BF09B05DF821
:100E400004FB00B589B00390029101920093019BCD
:100E50000493009B05930A9B06930B9B079304AA9C
:100E6000042302990398FFF75BFF00BF09B05DF808
:100E700004FB00B58BB00390029101920093019B9B
:100E80000593009B06930C9B07930D9B08930E9B69
:100E9000099305AA052302990398FFF741FF00BFB4
:100EA0000BB05DF804FB0000054B5A68044B1B684F
:100EB0009A420CBF01230023DBB21846704700BFE3
:100EC000A402002000B599B0FFF7EEFF0346002B07
:100ED00001D00023B5E19A4B0022C3F81824BFF3D8
:100EE0004F8F974B5B680493954B9B681093049AC4
:100EF000109B134002339B00914A13440433119317
:100F0000002317930023169300230F9304AB194675
:100F10001198FFF743FD0346002B19D0884BD3F8F7
:100F20001834002B14D1864B1A68049B9A4205D8BA
:100F3000834B1B68824A5360002382E1049A109B12
:100F4000134002339B007E4A134404331193DDE7C0
:100F50000023159311E0049B5A1C0492109A13402D
:100F6000159A920001A90A44754902339B000B446B
:100F70005B681360159B01331593159B012BEAD910
:100F80009DF8043003F00303DBB2022B40F09C8099
:100F9000BDF80630C3F389139BB20E93BDF806303B
:100FA000C3F389139BB2502B28BF50239BB20D93E0
:100FB0000D9BC3F309039AB2BDF8063062F38F1399
:100FC000ADF806300D9B08330C939DF80430C3F345
:100FD000C203DBB20F930C995A4802F07CFE1790C3
:100FE000179B002B00F0D080179802F004FF01A996
:100FF000169B0822179802F0B9FF169B0833169328
:10100000049BDA43109B134001339B000B930D9A12
:101010000B9B9A4242D90B9B002B08D0049A109B41
:10102000134002339B00464A1344043300E0464B0E
:101030000A930B9B002B02D00B9BDBB201E00D9BB4
:10104000DBB28DF827300B9B002B01D03E4B00E02C
:10105000002308930B9B002B06D00D9BDAB20B9B51
:10106000DBB2D31ADBB200E000238DF81F309DF80D
:101070002720169B0A99179802F078FF9DF82730D1
:10108000169A13441693089B002B16D09DF81F2028
:10109000169B0899179802F069FF0EE0049A109BBE
:1010A000134002339B00264A134404330693169BD5
:1010B0000D9A0699179802F059FF0E9B03339A0870
:1010C000049B134404935FE09DF8043003F0030392
:1010D000DBB2012B58D1BDF80430C3F38313DBB26C
:1010E000062B28BF0623DAB2BDF8043062F3891359
:1010F000ADF80430BDF80430C3F38313DBB2023320
:1011000005939DF80430C3F3C203DBB20F93059B34
:101110009B0019460B4802F0DEFD1790179B002B31
:1011200032D0179802F067FE01A9169B0822179883
:1011300002F01CFF169B08331693002315931AE048
:10114000A402002014900000B0020020049B5A1C4E
:101150000492109A134002339B003C4A1344191D19
:10116000169B0422179802F001FF169B0433169376
:10117000159B01331593BDF80430C3F38313DBB221
:101180001A46159B9342E1D3179B002B39D02F4B66
:10119000D3F8103414932D4BD3F81834002B1BD0F4
:1011A000179802F037FE46E000238DF84F30149870
:1011B000FFF71EFB0346002B02D001238DF84F30B2
:1011C0009DF84F30002B03D017991498FFF7CCFAF5
:1011D000149BDB681B681493149B002BE4D11798B5
:1011E00002F018FE002000F0DBFB184BD3F8183497
:1011F000002B02D1049B154A5360002000F0E4FB51
:1012000019E0124BD3F81034129306E01298FFF74E
:10121000C5FA129BDB681B681293129B002BF5D159
:101220000B4A0C4BD31ADB081B0443F002030A4998
:101230001846FFF7BDFDFFF737FE034683F00103B5
:10124000DBB2184619B05DF804FB00BFA402002011
:10125000DC8F0000AC8F00007C91000000B585B0F1
:101260000023039323E0164BD3F810340293012399
:101270008DF807300FE00298FFF7A9FA03461A46E7
:10128000039B934203D100238DF8073006E0029BB5
:10129000DB681B680293029B002BECD19DF80730A2
:1012A000002B01D0039B07E0039B01330393039BB7
:1012B000092BD8DD4FF0FF33184605B05DF804FB6D
:1012C000A402002000B585B001900B468DF80330D4
:1012D000FFF7C4FF0390039BB3F1FF3F01D1039BD2
:1012E00022E0039BDBB219460198FFF763FA104B2B
:1012F000D3F81034002B08D10D4A019BC2F81034EA
:10130000019BDB6800221A600DE0094BD3F8103412
:10131000DA68019BDB6812681A60054BD3F8103459
:10132000DB68019A1A60039B184605B05DF804FB60
:10133000A402002000B583B00C4BD3F81034019305
:101340000A4B012283F8202409E00198FFF747FAAD
:101350000198FFF717FA019BDB681B680193019B5B
:10136000002BF2D100BF03B05DF804FBA402002003
:1013700082B00190009100BF02B0704710B584B0F8
:1013800003900291039BDB88002B0AD0039BDB8830
:101390001A461F4B009313461E4A1F49029801F03C
:1013A000D7FE039B1B7A052B2ED0039B5B7A002B69
:1013B00012D0039B9B881A46039B1B7A1946104642
:1013C000FFF7B4FA03461A46144B53F822301A4674
:1013D0001349029801F0BCFE039B1B681946029852
:1013E000FFF7C6FF039B1B7A1A460E4B53F82240A9
:1013F000039B9B8800211846FFF778FA0346224694
:101400000949029801F0A4FE00BF04B010BD00BF5E
:10141000B0910000C0910000F8910000440000204D
:1014200010920000300000201492000000B585B03A
:101430000390029113468DF80730039B1B7A052B0E
:101440000FD0039B5B7A002B06D00D4B1B681A460E
:101450000C49029801F07CFE0B49029801F078FEDD
:1014600007E09DF80730002B03D00749029801F0F0
:101470006FFE029801F04AFE00BF05B05DF804FB64
:1014800044000020109200002092000030B58BB084
:1014900007900691059204930E9B1B7B8DF82730D5
:1014A0000E9B00221A730E990498FFF767FF059BA5
:1014B000062B7FD801A252F823F000BFD9140000F8
:1014C000E3140000F31400000715000025150000C8
:1014D0004D1500007D15000007990E9801F038FEAB
:1014E00069E0069B1B681A4607990E9801F030FECA
:1014F00061E0069B1A68069B04331B6807990E98E7
:1015000001F026FE57E0069B1A68069B0433196813
:10151000069B08331B6800930B4607990E9801F051
:1015200017FE48E0069B1968069B04331868069B63
:1015300008331B68069A0C32126801920093034626
:101540000A4607990E9801F003FE34E0069B1868DE
:10155000069B04331C68069B08331B68069A0C32F2
:10156000126806991031096802910192009323468E
:10157000024607990E9801F0EBFD1CE0069B1C68E3
:10158000069B04331D68069B08331B68069A0C32C1
:1015900012680699103109680698143000680390A3
:1015A0000291019200932B46224607990E9801F072
:1015B000CFFD00E000BF00220E990498FFF736FF30
:1015C0000E9B9DF827201A7300BF0BB030BD00BFE3
:1015D00000B587B00390029101920093029B082B03
:1015E00060D8009B1B7B8DF81330009B00221A7380
:1015F00000990198FFF7C2FE0023059314E0059AB5
:10160000029B9A4209D2039A059B13441B781A46FF
:101610002649009801F09CFD03E02549009801F05F
:1016200097FD059B01330593059B072BE7D92149BE
:10163000009801F08DFD0023059326E0059A029B9A
:101640009A421BD2039A059B13441B788DF81230E3
:101650009DF812307E2B0AD89DF81230184607F0FC
:10166000D9FB0346002B02D09DF8123000E02E2358
:101670001A461149009801F06BFD03E00F490098EC
:1016800001F066FD059B01330593059B072BD5D91A
:10169000012200990198FFF7C9FE009B9DF81320D5
:1016A0001A7300E000BF07B05DF804FB249200004D
:1016B0002C9200003092000034920000389200001A
:1016C00086B003900291019201238DF817309DF8A6
:1016D0001730204A039B13601E4A029B53601D4A29
:1016E000019B9360039B44F20102934213D0039B3E
:1016F00044F20202934221D1019B164AD360154B5A
:10170000DB681B881A46134B9A61124BDB685B68D7
:10171000104AD36112E0019B0E4A13610D4B1B6905
:101720009B680C4A53610B4B1B691B68094A936108
:10173000084B1B695B68074AD36100BF72B600BFE4
:101740009DF81730DBB2002BFAD162B600BF06B0AD
:10175000704700BFC806002000B583B0029000911A
:10176000019244F2010071466A4600F003F803B0AA
:1017700000BD00BF30B58BB007900691059272B6E0
:10178000FFF7D8FD00BFFFF79DFB0346002BFAD102
:10179000079B44F20102934216D0079B44F20202D7
:1017A00093423ED1059B09932C4A2D4BD31ADB085B
:1017B0001B0443F00100099B5B681A46099B1B88C8
:1017C0002849FFF714FB39E0059B0893234A244B73
:1017D000D31ADB081B0443F00104089B9D68089B97
:1017E0009B68184602F01EFC03461846089B5B687F
:1017F0001946089B1B68069A0292019300910346C2
:101800002A4619492046FFF734FB144A144BD31AD1
:10181000DB081B0443F0010314491846FFF7C8FA1C
:101820000CE00E4A0E4BD31ADB081B0443F00103F5
:10183000069A0F491846FFF7C9FA00BF0D4B1B68FF
:1018400003F00103002B00D000BE059A069907980B
:10185000FFF736FF00BF0BB030BD00BFDC8F0000CC
:10186000AC8F00003C920000589200008092000073
:1018700094920000F0ED00E082B003468DF807304E
:101880009DF807309AB2064B1B889A4204D29DF805
:1018900007300133DBB200E00023184602B0704786
:1018A000F406002082B0084B1B788DF80730074BF8
:1018B0001B78DBB29DF807209A420CBF012300235E
:1018C000DBB2184602B07047F0060020F106002097
:1018D000002318467047000000B585B02FE0204B6C
:1018E0001B78DBB2ADF80E301E4B1B68BDF80E2026
:1018F0001D49098801FB02F2134402931B4B1A682D
:10190000BDF80E30DB0013449B88ADF80630174B52
:101910001A68BDF80E30DB0013441B680093BDF855
:101920000620009B1146029898470D4B1B78DBB2AE
:101930001846FFF7A1FF03461A46094B1A70FFF736
:10194000C7FF034683F00103DBB2002B04D0FFF78F
:10195000A9FF0346002BC2D000BF05B05DF804FB11
:10196000F0060020EC060020F2060020E806002029
:1019700072B6034B1B680133014A136000BF704706
:10198000F8060020054B1B68013B044A1360034B1B
:101990001B68002B00D162B600BF7047F80600201C
:1019A00000B583B0019000F025F80346012B03D069
:1019B0000449432001F09CF9FFF7DAFF00BF03B0B0
:1019C0005DF804FBAC92000000B583B003468DF8CF
:1019D000073000F00FF80346012B03D004495120D3
:1019E00001F086F9FFF7CEFF00BF03B05DF804FBFE
:1019F000AC92000084B0EFF305830193019BC3F325
:101A000008030393039B002B0DD1EFF31483009382
:101A1000009B0293029B03F00103002B0CBF0123E8
:101A20000023DBB200E00123184604B0704782B007
:101A30000190019B03F00303002B0CBF0123002343
:101A4000DBB2184602B0704700B585B001900023A4
:101A500003930EE00A4A039B52F82330002B05D073
:101A6000074A039B52F8233001989847039B0133A0
:101A70000393039B032BEDD900BF05B05DF804FB76
:101A80000807002082B001900091019B1B78013B68
:101A9000052B61D801A252F823F000BFB51A00004F
:101AA000BD1A0000E31A0000151B0000351B0000E2
:101AB000511B0000009B00221A704EE0009B012287
:101AC0001A70019B1A89009B9A81019B9A88009B3E
:101AD000DA81019BDA68009B9A60009B00221A74ED
:101AE0003BE0009B02221A70019B1A89009B9A819D
:101AF000019B9A88009BDA81019BDA68009B9A60BF
:101B0000019B9B7D062B0CBF01230023DAB2009BB7
:101B10001A7422E0009B03221A70019BDA88009B52
:101B20009A81019B1A89009BDA81019BDA68009BEC
:101B30009A6012E0009B04221A70019BDA88009BD5
:101B40009A81009B0022DA81009B00229A6004E0C7
:101B5000009B05221A7000E000BF00BF02B0704772
:101B600084B001900091019B0393039A009B9A42D9
:101B700006D2039B1B68B3F1FF3F01D0012300E0B5
:101B8000002303F00103DBB2184604B0704782B0B3
:101B90000190019B5B8803339B00019A1344184614
:101BA00002B0704700B583B0019000910198FFF733
:101BB000EEFF0246009B934201D2022311E0019BFB
:101BC0009B884FF6FF72934208D0019B1B88002B25
:101BD00004D0019B9B68B3F1FF3F01D1012300E0DA
:101BE0000023184603B05DF804FB000000B583B085
:101BF0000190019B002B13D00D4BDB681A46019B13
:101C000093420DD30A4B1B691A46019B934207D896
:101C10000198FFF70CFF0346002B01D0012300E0E1
:101C2000002303F00103DBB2184603B05DF804FBA8
:101C30000000002084B00190009148F209630393F2
:101C40000023ADF80A3027E0BDF80A2016491346F4
:101C50009B0013449B000B4404331B68009A9A4278
:101C600015D9BDF80A20104913469B0013449B0068
:101C70000B4404331B6803F58053009A9A4206D242
:101C800000230393019BBDF80A201A8008E0BDF8E9
:101C90000A300133ADF80A30BDF80A30012BD3D930
:101CA000039B184604B070472807002082B00190BB
:101CB0000091009B9B7D022B09D9019B1A89009BF7
:101CC000DB8813449BB203339AB2019B1A81019BB8
:101CD0005A89009BDB88D31A9BB2033B9AB2019BC3
:101CE0005A8100BF02B0704700B583B0074B1B6834
:101CF0001946002300930823054A064801F02EFEEA
:101D00000346184603B05DF804FB00BF50070020EF
:101D1000349300000000002000B585B003900399C3
:101D2000002300930823044A044801F017FE0346E9
:101D3000184605B05DF804FB3C930000000000204D
:101D400000B585B003460091ADF80630BDF8062019
:101D5000224913469B0013449B000B4404331B6829
:101D600003F580530293009B1B680393039B002B96
:101D700004D00398FFF70BFF039023E0BDF8062083
:101D8000164913469B0013449B000B4404331B6805
:101D90000833039316E002990398FFF703FF034605
:101DA000012B08D0022B0BD0002B0BD1009B039AE8
:101DB0001A6001230EE00398FFF7E9FE039001E0AB
:101DC000002307E002990398FFF7CAFE0346002BA1
:101DD000E1D10023184605B05DF804FB2807002078
:101DE00000B585B001900091019B5B681846FFF734
:101DF000FDFE0346002B19D0019B1A89244B1B8939
:101E00009A4213D1019B1A68019B5B689B689A42B6
:101E10000CD1019B5B6819460098FFF70BFF034646
:101E2000002B0CBF01230023DBB22CE0009B00221F
:101E30001A8023E00023029310E0029B0393039B8C
:101E40009A68019B1B689A4208D1029A019B5A60CA
:101E50000F4B1A89019B1A81012314E0009B1B88F8
:101E600002AA11461846FFF76BFF0346002BE4D188
:101E7000009B1B8801339AB2009B1A80009B1B8831
:101E8000012BD7D90023184605B05DF804FB00BF2D
:101E90005807002000B587B003900291019200938B
:101EA000324B1B78DBB283F00103DBB2002B02D094
:101EB00048F2016355E0019B002B02D0009B002BF0
:101EC00049D148F204634CE0009B9B881946284A9C
:101ED0000B469B000B449B0013441B78002B33D113
:101EE00024E0009B1B680593039B002B06D0059BF9
:101EF0009A88039B1B889A4200D017E0029B002B14
:101F000006D0059B1A88029B1B889A4200D00DE0E0
:101F1000059B9A68019B1A60009B1A68019B5A6096
:101F2000144B1A89019B1A8100231AE0009B9B889D
:101F3000009A11461846FFF703FF0346002BD0D145
:101F4000009B00221A6000E000BF009B9B880133C9
:101F50009AB2009B9A80009B9B88012BB4D948F2CF
:101F60000963184607B05DF804FB00BFFC060020BB
:101F7000280700205807002000B583B00190054BCA
:101F80000199184600F006FF0346184603B05DF8B5
:101F900004FB00BF1807002000B583B00190044B7C
:101FA0000199184600F00FFF00BF03B05DF804FB75
:101FB0001807002008B50A4B1B68002B04D10949FB
:101FC0004FF4247000F094FE0121054800F06EFFEC
:101FD0000346002B14BF01230023DBB2184608BDC3
:101FE00004070020F892000000B587B0039002912A
:101FF000039B02229A750299039B1A1D00230093EA
:102000000423074801F0AAFC0590059B002B01D191
:10201000002301E048F20D63184607B05DF804FBA9
:102020000000002000B587B003900291039B1B695C
:10203000002B01D0032200E00122039B9A75029B32
:1020400008331946039B03F10C0200230093042379
:10205000074801F083FC0590059B002B01D100236C
:1020600001E048F20D63184607B05DF804FB00BFBD
:102070000000002000B587B003900291039B1B78FD
:10208000032B01D1052200E00622039B9A75029BD7
:1020900004331946039B03F1080200230093042331
:1020A000074801F05BFC0590059B002B01D1002344
:1020B00001E048F20D63184607B05DF804FB00BF6D
:1020C0000000002000B587B003900B46ADF80A3041
:1020D00003990023009304230D4A0E4801F03EFCAF
:1020E0000590059B002B02D048F20D630BE0BDF874
:1020F0000A20094913469B0013449B000B441033EC
:1021000001221A700023184607B05DF804FB00BFD7
:1021100044930000000000202807002000B589B08B
:10212000019002AB00221A605A609A60019BDB6842
:1021300002930DF1160202AB11461846FFF750FE4E
:102140000346002B12D0039B0693069B9A88019BA3
:10215000DA80069B1A88019B1A81039BBDF8162022
:1021600011461846FFF7AEFF079002E048F20963F8
:102170000793079B184609B05DF804FB00B587B0CC
:102180000190019B981D02AA0D4B0021FFF782FED2
:102190000590059B002B08D1039A094B9B88194693
:1021A0001046FFF78FFF059004E008220021044845
:1021B00006F099FE059B184607B05DF804FB00BFCA
:1021C0006807002000B587B003900291039B0122AD
:1021D0009A75029B0C331846039B1A69039BDB8894
:1021E0009900002300930B460146074801F0B6FB17
:1021F0000590059B002B01D1002301E048F20D63FF
:10220000184607B05DF804FB0000002082B0184BB0
:102210001B8901339AB2164B1A81154B00225A8042
:10222000134B00221A730023ADF8063018E0BDF8F6
:102230000620104913469B0013449B000B441A7858
:10224000BDF80630002A0CBF01220022D1B2084A94
:1022500013440A469A72BDF806300133ADF80630D1
:10226000BDF80630012BE2D900BF02B0704700BFB5
:10227000580700202807002084B0019000238DF823
:102280000F300023ADF80C3031E0BDF80C301C4AA3
:1022900013449B7A002B25D0BDF80C30184A134408
:1022A00000229A72BDF80C20164913469B00134475
:1022B0009B000B440C331B68002B13D1BDF80C2082
:1022C000104913469B0013449B000B4410331B78AA
:1022D000002B07D0019BBDF80C201A8001238DF83C
:1022E0000F3008E0BDF80C300133ADF80C30BDF80C
:1022F0000C30012BC9D99DF80F30184604B0704737
:10230000580700202807002008B5084B05221A703E
:10231000074B02229A80064B1B68194600230122B4
:10232000044801F0FDFB0346184608BD580700208D
:10233000500700200000002000B583B0164B5B88DA
:10234000ADF80230BDF80220144913469B00134437
:102350009B000B440C331B68002B14D10E4B042242
:102360001A70BDF802200D4913469B0013449B00D0
:102370000B4404331B68194600230122084801F06E
:10238000CFFB019002E0FFF7BFFF0190019B1846D1
:1023900003B05DF804FB00BF5807002028070020A9
:1023A0000000002000B587B0114B5B680593114B0E
:1023B0001A68104B9B889B0013440493059B5B8811
:1023C0000333ADF80E300A4B03221A700499084B00
:1023D0005A68BDF80E309800002300930346064863
:1023E00001F0BCFA0346184607B05DF804FB00BFD5
:1023F00058070020500700200000002000B583B0DF
:102400000A4B5B880A491846FFF79AFC0346002BE3
:1024100003D0FFF7C7FF019002E0FFF78DFF0190A7
:10242000019B184603B05DF804FB00BF580700206D
:102430005C07002008B50A4B06221A70084B5B881F
:102440001946084A0B469B000B449B001344043377
:102450001B681846FFF760FC0346184608BD00BF1E
:10246000580700202807002008B5054B07221A70DE
:10247000034B00225A60FFF737FC0346184608BD9D
:102480005807002008B50D48FFF7F6FE034683F015
:102490000103DBB2002B0BD0094B00221A70084B52
:1024A00000225A80064B00225A6041F61D5302E07A
:1024B000FFF7A4FF0346184608BD00BF5A070020D7
:1024C0005807002082B0094B5B680193019B5B8831
:1024D0000333ADF80230064B9A88BDF8023013443E
:1024E0009AB2034B9A8000BF02B070475807002091
:1024F0005007002082B0184B1B680193174B5B8874
:102500001946174A0B469B000B449B0013440433A7
:102510001B68114A1360114B5B881946104A0B4621
:102520009B000B449B0013440433019A1A600B4B2D
:102530005B881946084B9888094A0B469B000B4458
:102540009B001344083302461A80034B02229A80F0
:1025500000BF02B0704700BF50070020580700209E
:102560002807002008B51A4B1B78072B2CD801A28E
:1025700052F823F095250000C9250000C925000068
:10258000A1250000AD250000B9250000B9250000F7
:10259000C1250000FFF73AFE0D4B01221A7014E02E
:1025A000FFF790FF0A4B02221A700EE0FFF7A2FF1E
:1025B000074B06221A7008E0054B07221A7004E048
:1025C000034B01221A7000E000BF00BF08BD00BF2E
:1025D0005807002000B587B00190009148F20E63C3
:1025E0000593019B002B05D0634B00225A604FF4EA
:1025F0000643BCE0009B1B79032B00F2AB8001A2D9
:1026000052F823F01526000023260000B126000012
:10261000D1260000009B01221A71FFF765FB05908F
:102620009BE000238DF813300023ADF810302BE031
:10263000BDF81020514913469B0013449B000B44E6
:102640001B78022B1BD1BDF810204C4913469B0070
:1026500013449B000B4400221A7001238DF81330A1
:10266000BDF81020454913469B0013449B000B44C2
:1026700004331B681846FFF74FFB059008E0BDF8D0
:1026800010300133ADF81030BDF81030012BCFD928
:102690009DF8133083F00103DBB2002B5CD0364B86
:1026A00001221A70344B00225A6041F61D535EE03D
:1026B000009B00221A71324B02229A80304B1B6819
:1026C0001946002301222F4801F02AFA059044E020
:1026D000009B00221A712A4B1B681846FFF71CFB4F
:1026E0000590294B5B88ADF80E30254B1B68029393
:1026F000BDF80E20214913469B0013449B000B4458
:1027000004331B681E4A1360BDF80E201B49134694
:102710009B0013449B000B440433029A1A60BDF8DB
:102720000E20174B9888154913469B0013449B00B5
:102730000B44083302461A80114B02229A80BDF8DE
:102740000E200E4913469B0013449B000B440022AD
:102750001A7002E000BF00E000BF059B002B05D00F
:10276000054B00225A6048F20D6300E00023184632
:1027700007B05DF804FB00BFFC060020280700201E
:1027800050070020000000205807002000B587B047
:1027900001900091009B9B8A1A4613469B001344AC
:1027A0009B003B4A13440493019B002B06D00099E5
:1027B0000498FFF77BFA4FF4064364E0049B5A68E1
:1027C000049B1B899B0013440393009B9B7D062B5A
:1027D0004DD801A252F823F01D2800004128000026
:1027E0002928000035280000F52700004D280000AA
:1027F00067280000274B00225A60009B9B69254AEE
:10280000136025492348FFF7EBFA034683F00103E1
:10281000DBB2002B02D048F2096334E00399009840
:10282000FFF7E2FB059026E003990098FFF7FAFB1B
:10283000059020E003990098FFF7C4FC05901AE08A
:1028400003990098FFF716FC059014E0009B062200
:102850009A75104B5A68104B1B8819461046FFF7A3
:1028600031FC059007E041F61D53059303E048F263
:102870000E63059300BF059B002B03D000990498BD
:10288000FFF714FA059B184607B05DF804FB00BF7C
:1028900028070020700700207C07002000B585B0C5
:1028A00001900091019B002B02D04FF4064326E0DB
:1028B000009B1B79012B0BD0022B16D0002B18D1BB
:1028C000009B02221A710098FFF728FC039015E084
:1028D0000098FFF753FC0390039B48F20962934270
:1028E0000BD141F61D53039307E041F61D530393AB
:1028F00004E048F20E63039300E000BF039B184618
:1029000005B05DF804FB000000B585B00190019BA7
:10291000002B02D04FF406433DE0214B1B7B002BE4
:1029200003D01F4B00221A7301E0FFF71BFE1C4B64
:102930001B78013B062B29D801A252F823F000BFD7
:102940005D290000652900006D290000752900003F
:102950008D2900007D29000085290000FFF792FDE8
:10296000039017E0FFF74AFD039013E0FFF71AFD0D
:1029700003900FE0FFF7E0FC03900BE0FFF75AFD38
:10298000039007E0FFF770FD039003E048F20E6349
:10299000039300BF039B184605B05DF804FB00BF1E
:1029A0005807002000B589B00190404B1B68002BF0
:1029B00005D13F48FFF7E0FA02463C4B1A603B4B1B
:1029C0001B68002B04D13B4940F29B5000F090F96A
:1029D000364B1B681B78013B052B2CD801A252F803
:1029E00023F000BFFD2900000D2A00000D2A000081
:1029F0001D2A00001D2A00002D2A00002B4B1B68F9
:102A000019460198FFF7E6FD019018E0274B1B6877
:102A100019460198FFF7BAFE019010E0234B1B689E
:102A200019460198FFF73AFF019008E00198FFF777
:102A30006BFF019003E048F20E63019300BF019B1E
:102A4000002B2BD003AB00221A605A609A60DA6028
:102A50001A61019B41F61D52934201D0019B00E097
:102A600000230493114B1B6803AA11461846FFF775
:102A700009F803AB1846FEF7E7FF0C4B00221A607B
:102A8000002301930A48FFF787FAFFF793FA0346FA
:102A900083F00103DBB2002B02D186E700BF00E028
:102AA00000BF00BF09B05DF804FB00BF8007002035
:102AB00084070020F892000000B583B00190019BCC
:102AC0005B681846FFF76EFF00BF03B05DF804FBBC
:102AD0001EF0040F1CBFEFF309800AE0EFF308803B
:102AE0000549064A884201D8904202D88D464FF0E7
:102AF0000000034B184700000000012000E0002008
:102B0000412B000000BF00BFBFF34F8F054BDB68B8
:102B100003F4E0620349044B1343CB60BFF34F8FD0
:102B200000BFFDE700ED00E00400FA0500B583B04A
:102B30000190FFF7E9FF00BF03B05DF804FB000060
:102B400010B588B00390FEF7F5FB00BFFEF7BAF9A9
:102B50000346002BFAD1039B0693584B9B6A0593BF
:102B6000069B002B35D0564A564BD31ADB081B0464
:102B700043F00100069B9B691A465349FEF726F96C
:102B80004F4A504BD31ADB081B0443F00100069B4D
:102B90001968069B5C68069B9B68069AD26801923E
:102BA000009323460A464949FEF74BF9444A454BF0
:102BB000D31ADB081B0443F00100069B1A69069B2D
:102BC0005969069BDB6900930B464149FEF723F9DF
:102BD0000AE03B4A3B4BD31ADB081B0443F00103DA
:102BE0003C491846FEF7E4F8344BDB6A03F0020375
:102BF000002B0AD0324A334BD31ADB081B0443F0B4
:102C0000010335491846FEF7D3F80023079320E067
:102C10000122079B02FA03F31A46059B1340002B7F
:102C200014D02E4A079B52F82330002B0ED0244A92
:102C3000244BD31ADB081B0443F00100274A079BEF
:102C400052F823301A462649FEF7C0F8079B013395
:102C50000793079B192BDBD9059B03F08003002BFF
:102C60000CD0174A174BD31ADB081B0443F00100A2
:102C7000124B5B6B1A461B49FEF7A8F8059B03F441
:102C80000043002B0CD00E4A0E4BD31ADB081B045A
:102C900043F00100094B9B6B1A461349FEF796F867
:102CA000124B1B6803F00103002B00D000BE0398F9
:102CB000FFF73CFF00BF08B010BD00BF00ED00E013
:102CC000EC8F0000AC8F0000549300006C93000068
:102CD000A4930000CC930000009400006800002042
:102CE000449400005094000070940000F0ED00E067
:102CF00000B585B003460091ADF80630BDF806304A
:102D0000ADF80830009B039302AB1A46002144F251
:102D10000200FEF72FFD00BF05B05DF804FB86B092
:102D200001900091019B53E8021F1FFAA1F2D8887D
:102D3000824202BFBFF32F8F00230DE0D8890244E7
:102D40009889824228BF121AC1EA024243E802204F
:102D50000028E8D14FF001038DF80F300590029163
:102D60000492029A009B1A609DF80F30DBB218465D
:102D700006B0704784B00190019951E8023FC3EA60
:102D8000234341E80232002AF7D10392029300BFA5
:102D900004B0704700B585B001900091009B1946C2
:102DA0000198FFF7BCFF0346002B07D0019B1B686F
:102DB000009A528813440393039B00E000231846B3
:102DC00005B05DF804FB00B583B001900091009B55
:102DD0001A88009B5B889A4204D10198FFF7CAFFCA
:102DE000012300E00023184603B05DF804FB10B493
:102DF00087B001900091019B009A53E8004F104664
:102E000043E8000191F0000FF7D10594049003917D
:102E1000059B184607B05DF8044B704710B487B0A7
:102E200001900091019B009A53E8004F44EA020090
:102E300043E8000191F0000FF6D10594049003914E
:102E4000049B184607B05DF8044B704710B487B078
:102E500001900091019B009A53E8004F04EA0200A0
:102E600043E8000191F0000FF6D10594049003911E
:102E7000059B184607B05DF8044B704710B487B047
:102E800001900091019B009A53E8004F04EB02006F
:102E900043E8000191F0000FF6D1059404900391EE
:102EA000049B184607B05DF8044B704710B487B018
:102EB00001900091019B009A53E8004FA4EB02009F
:102EC00043E8000191F0000FF6D1059404900391BE
:102ED000049B184607B05DF8044B704700B583B0FB
:102EE000019001210198FFF799FF0346184603B0AE
:102EF0005DF804FB00B583B0019000210198FFF755
:102F0000A5FF0346184603B05DF804FB00B583B087
:102F100001900B468DF80330019B002B03D108492B
:102F2000E820FFF7E5FE019BDA689DF80330019980
:102F3000098A01FB03F31344184603B05DF804FB50
:102F40006099000000B583B001900091019B002BB7
:102F500003D10849F520FFF7CBFE009B019AD26808
:102F60009B1A019A128AB3FBF2F3DBB2184603B044
:102F70005DF804FB6099000000B585B00190019BED
:102F8000002B01D10E234CE0019B1B68002B03D1C9
:102F90002649FF20FFF7ACFE019B5B68002B04D1A4
:102FA00022494FF48070FFF7A3FE019B9B68002B22
:102FB00004D11E4940F20110FFF79AFE019BDB6825
:102FC000002B04D119494FF48170FFF791FE019B4A
:102FD0001B8A002B04D1154940F20310FFF788FE2D
:102FE000019B9A68019B5B68D31A8DF80F30019B97
:102FF0001B68019A52681A6007E0019B1A681368FF
:10300000591C11609DF80F201A709DF80F305A1E40
:103010008DF80F20002BF0D1019B1B6800221A7144
:103020000023184605B05DF804FB00BF609900005E
:1030300000B585B00190019B002B04D11C494FF4D1
:103040009270FFF755FE002303930020FEF7A8FCC3
:10305000019B1B681A68019B5B689A421FD9019B00
:103060001B681A68013A1A601B681B781946019898
:10307000FFF74CFF0390019B9A68019B1B681B683C
:10308000D31A8DF80B30019B1B681B799DF80B2020
:103090009A4204D9019B1B689DF80B201A710020ED
:1030A000FEF792FC039B184605B05DF804FB00BFD9
:1030B0006099000010B584B001900091019B002B35
:1030C00004D1114940F24710FFF712FE009B002B7C
:1030D00004D10D494FF4A470FFF70AFE009B03933F
:1030E0000020FEF75DFC019B1B681C68621C1A60D7
:1030F00003990198FFF726FF034623700020FEF78F
:1031000063FC00BF04B010BD6099000000B583B03F
:103110000190019B002B03D10C493120FFF7E8FD02
:10312000019B9B68002B0CD0019B5B69019A106985
:10313000019A1168019A92689847019B00229A604F
:1031400000E000BF03B05DF804FB00BFA8990000D9
:103150000EB400B584B00190019B002B03D1184937
:103160004220FFF7C5FD019B5B69002B03D1144989
:103170004320FFF7BDFD019B1B68002B03D11049C5
:103180004420FFF7B5FD019B5B68002B03D10C4980
:103190004520FFF7ADFD059B002B0AD000230393CC
:1031A00006AB039303AB1A460599019800F0B8F9F2
:1031B00000E000BF04B05DF804EB03B0704700BF4F
:1031C000A899000000B583B001900B468DF803303C
:1031D0009DF803300A2B03D10D210198FFF7F2FF70
:1031E000019B1A68019B9B68581C019988601344D5
:1031F0009DF803201A70019B9A68019B5B689A42B4
:1032000002D30198FFF782FF00BF03B05DF804FB13
:1032100000B587B0039002910192009300230593BB
:10322000009B03F00103002B24D00BE0029B013331
:103230000293059B013305939DF8133019460398BB
:10324000FFF7C0FF029B1B788DF813309DF81330F9
:10325000002BEBD106E0019B013B01932021039859
:10326000FFF7B0FF019A059B9A422ED9019B002BD4
:10327000F1D12AE0029B002B0BD0029805F066FEEC
:10328000059006E0019B013B019320210398FFF785
:1032900099FF019A059B9A420FD9019B002BF1D10E
:1032A0000BE0029B01330293059B013305939DF8CC
:1032B000133019460398FFF785FF029B1B788DF8A2
:1032C00013309DF81330002BEBD100BF07B05DF831
:1032D00004FB000000B589B00390029101920093B5
:1032E000029B07930123069307E0079A019BB2FB19
:1032F000F3F30793069B01330693079A019B9A42C7
:10330000F3D2009A069B9A4201D9009B06930B9B2D
:1033100003F00103002B22D10A9B002B1FD00B9B33
:1033200003F00203002B06D0009B002B03D13023B7
:103330008DF8173002E020238DF8173008E00A9B43
:10334000013B0A939DF8173019460398FFF73AFF9F
:103350000A9B002B03D0069A0A9B9A42EFD30123C3
:103360000793009B012B03D9009B013B009309E0CD
:10337000029A079BB2FBF3F30493049A019B9A42CF
:1033800000D205E0079B019A02FB03F30793E8E7ED
:10339000029A079BB2FBF3F30493049B079A02FB88
:1033A00003F3029AD31A0293154A049B13441B7821
:1033B00019460398FFF706FF079A019BB2FBF3F348
:1033C0000793079B002BE3D10B9B03F00103002B1A
:1033D00011D00A9B002B0ED006E00A9B013B0A93FA
:1033E00020210398FFF7EEFE0A9B002B03D0069ADC
:1033F0000A9B9A42F1D300BF09B05DF804FB00BFFD
:10340000289A000000B589B00590049103920293B8
:10341000049B002BB8BF5B4206930123079307E090
:10342000039B069A92FBF3F30693079B01330793E2
:10343000039B069A9A42F3DA029A079B9A4201D9B1
:10344000029B07930A9B002B0AD0049B002B04DBF2
:103450000B9B03F00403002B02D00A9B013B0A9351
:103460000B9B03F00203002B02D0029B002B16D013
:103470000B9B03F00103002B11D10A9B002B0ED0F4
:1034800006E00A9B013B0A9320210598FFF79AFE6C
:103490000A9B002B03D0079A0A9B9A42F1D3049B04
:1034A000002B07DA049B5B4204932D210598FFF75C
:1034B00089FE08E00B9B03F00403002B03D02B21B3
:1034C0000598FFF77FFE0B9B03F00203002B19D03A
:1034D0000B9B03F00103002B14D1029B002B11D195
:1034E0000A9B002B0ED006E00A9B013B0A93302179
:1034F0000598FFF767FE0A9B002B03D0079A0A9BEB
:103500009A42F1D304990B9B01930A9B0093029B6F
:10351000039A0598FFF7DEFE00BF09B05DF804FBD3
:1035200000B58FB0059004910392059B002B04D148
:10353000C84940F25220FFF7DBFB059B5B69002B7B
:1035400004D1C4494FF41570FFF7D2FB059B1B68EB
:10355000002B04D1BF4940F25520FFF7C9FB059B62
:103560005B68002B04D1BB4940F25620FFF7C0FB3B
:10357000049B002B00F0ED81049B1B788DF8373005
:10358000049B013304939DF83730002B00F0D88161
:103590009DF83730252B40F0C78100230A93012383
:1035A0000C93049B1B788DF837309DF837302D2B0A
:1035B00004D0302B0AD02B2B10D017E00A9B43F0FD
:1035C00001030A93049B0133049312E00A9B43F026
:1035D00002030A93049B013304930AE00A9B43F01D
:1035E00004030A93049B0133049302E000230C9329
:1035F00000BF0C9B002BD4D1002309939DF83730DA
:103600002A2B0CD1039B1B68191D039A11601B68A0
:10361000099A13440993049B013304931AE0049B11
:103620001B788DF837309DF837302F2B12D99DF845
:103630003730392B0ED8049B01330493099A134673
:103640009B0013445B001A469DF837301344303B0F
:103650000993D3E700230B93049B1B788DF8373035
:103660009DF837302E2B1DD1049B01330493049B0E
:103670001B788DF837309DF837302F2B12D99DF8F5
:103680003730392B0ED8049B013304930B9A134621
:103690009B0013445B001A469DF837301344303BBF
:1036A0000B93E4E7049B1B788DF837309DF8373097
:1036B0006C2B03D09DF83730682B07D1049B013366
:1036C0000493049B1B788DF83730EFE79DF8373073
:1036D000253B532B00F2238101A252F823F000BFB7
:1036E000153900001F3900001F3900001F39000084
:1036F0001F3900001F3900001F3900001F3900006A
:103700001F3900001F3900001F3900001F39000059
:103710001F3900001F3900001F3900001F39000049
:103720001F3900001F3900001F3900001F39000039
:103730001F3900001F3900001F3900001F39000029
:103740001F3900001F3900001F3900001F39000019
:103750001F3900001F3900001F3900001F39000009
:103760001F3900001F3900001F3900001F390000F9
:103770001F3900001F3900001F3900001F390000E9
:103780001F3900001F3900001F3900001F390000D9
:103790001F3900001F3900001F3900001F390000C9
:1037A0001F3900001F3900001F390000A138000038
:1037B0001F3900001F3900001F3900001F390000A9
:1037C0001F3900001F3900001F3900001F39000099
:1037D0001F3900001F39000031380000593800003F
:1037E0001F3900001F3900001F3900001F39000079
:1037F000593800001F3900001F3900001F39000030
:103800001F3900001F3900001F390000E138000097
:103810001F3900001F390000C53800001F390000A3
:103820007D3800001F3900001F390000A13800005A
:10383000039B1B68191D039A11601B680C930C9B5A
:103840008DF823309DF8233019460598FFF7BAFC10
:1038500066E000BFE4990000039B1B68191D039AF2
:1038600011601B680C930A9B0193099B00930B9BAF
:103870000A220C990598FFF7C5FD51E0039B1B68D0
:10388000191D039A11601B680C930C990A9B0193F4
:10389000099B00930B9B0A220598FFF71BFD3FE055
:1038A000039B1B68191D039A11601B680C930C99EC
:1038B0000A9B0193099B00930B9B10220598FFF72D
:1038C00009FD2DE0039B1B68191D039A11601B68FD
:1038D00007930A9B099A07990598FFF799FC1FE03F
:1038E000039B1B68191D039A11601B680C93302100
:1038F0000598FFF767FC78210598FFF763FC0C99A2
:103900000023019308230093082310220598FFF752
:10391000E1FC05E025210598FFF754FC00E000BF1D
:10392000049B0133049305E09DF837301946059850
:10393000FFF748FC049B1B78002B7FF41DAE00E0D2
:1039400000BF059B1B7B002B04D00598FFF7DEFB17
:1039500000E000BF0FB05DF804FB00BF10B586B0FB
:103960000590049103920293059B002B10D1604AAD
:10397000604BD31ADB081B0443F001005E4A5F4929
:103980000E2300930B465E49FDF745FA0E23ABE08C
:10399000039B002B10D1564A564BD31ADB081B044D
:1039A00043F00100574A55490E2300930B465449F2
:1039B000FDF731FA0E2397E0059B1B68002B10D111
:1039C0004B4A4C4BD31ADB081B0443F001004E4A10
:1039D0004A49082300930B464949FDF71CFA08237E
:1039E00082E0029B002B10D1414A424BD31ADB08E4
:1039F0001B0443F00100454A4049092300930B464C
:103A00003F49FDF708FA09236EE0059B5B685A6899
:103A1000029BB3FBF2F102FB01F29B1A002B10D0C8
:103A2000334A344BD31ADB081B0443F00100384AF5
:103A30003249092300930B463149FDF7ECF909237C
:103A400052E0049800F01EF90346002B10D1284ADA
:103A5000284BD31ADB081B0443F001002D4A2749E9
:103A6000102300930B462649FDF7D5F910233BE0C0
:103A7000039B184600F006F90346002B10D11C4AA0
:103A80001C4BD31ADB081B0443F00100224A1B49DC
:103A9000102300930B461A49FDF7BDF9102323E0CC
:103AA000029A0499059800F0D3F80346002B10D130
:103AB0000F4A104BD31ADB081B0443F00100174ACE
:103AC0000E49102300930B460D49FDF7A4F910236E
:103AD0000AE0059B1B68DC68089B0093029B039A25
:103AE00004990598A0470346184606B010BD00BFCC
:103AF000FC8F0000AC8F0000489A0000EC9B000097
:103B0000509A0000DC9A0000849A0000989A000005
:103B1000E49A0000109B0000289B00004C9B0000D2
:103B200010B586B00590049103920293059B002B7B
:103B300010D13E4A3E4BD31ADB081B0443F0010070
:103B40003C4A3D490E2300930B463C49FDF763F97F
:103B50000E2368E0059B1B68002B10D1334A344BC1
:103B6000D31ADB081B0443F00100354A324908230D
:103B700000930B463149FDF74EF9082353E0039BB0
:103B8000002B10D1294A2A4BD31ADB081B0443F01F
:103B900001002C4A2849092300930B462749FDF7C9
:103BA0003AF909233FE00499059800F078F80346B4
:103BB000002B10D11D4A1E4BD31ADB081B0443F007
:103BC0000100214A1C49102300930B461B49FDF7B5
:103BD00022F9102327E0059B5B681B68039A02FB10
:103BE00003F31A460499059800F032F80346002BB7
:103BF00010D10E4A0E4BD31ADB081B0443F0010010
:103C0000124A0D49102300930B460C49FDF703F9A6
:103C1000102308E0059B1B681C69029B039A04990A
:103C20000598A0470346184606B010BDFC8F00005B
:103C3000AC8F0000489A0000009C0000509A0000E1
:103C4000849A0000989A0000749B00009C9B0000DE
:103C500084B0039002910192039BDB68029A9A421E
:103C600009D3029A019B13445A1E039B1B699A4273
:103C700001D8012300E0002303F00103DBB2184662
:103C800004B0704782B00190019B03F00303002B46
:103C90000CBF01230023DBB2184602B0704782B08C
:103CA00001900091019B5B681B685A1E009B1340AA
:103CB000002B0CBF01230023DBB2184602B0704773
:103CC00000B583B001900198FFF756F903461846F6
:103CD00003B05DF804FB00B58BB001900091019B2F
:103CE0001B8A043B0793009A079B1344DA1C079B2B
:103CF000B2FBF3F38DF81B300198FFF799F90590AB
:103D0000059B002B01D1002338E0059B00221A718E
:103D1000059B01225A71079B9AB2059BDA80059B8D
:103D200009939DF81B30013B0493099B019A1A608B
:103D3000002308931DE00198FFF77AF90390039B95
:103D4000002B0ED0059B5B790133DAB2059B5A71CB
:103D5000099B039A1A60039B019A1A60039B0993BB
:103D600004E0059800F00EF8002307E0089B0133FB
:103D70000893089A049B9A42DDD3059B18460BB022
:103D80005DF804FB00B58BB00190019B0793079B86
:103D90005B798DF81B30019B08939DF81B30013B2C
:103DA00005930023099305E0089B1B680893099B72
:103DB00001330993099A059B9A42F5D3089B1B6826
:103DC0000493019B0893002309930BE0089B1B6855
:103DD000039308990498FFF76DF9039B0893099BD7
:103DE000013309939DF81B30099A9A42EED300BF24
:103DF0000BB05DF804FB00B585B00190019B039307
:103E0000039B043301211846FFF738F800BF05B0C3
:103E10005DF804FB00B587B00190019B0593059BFD
:103E2000043301211846FFF741F80346039303AB1F
:103E30000493049B1B78002B02D10198FFF7A2FF8B
:103E400000BF07B05DF804FB00B591B0039002918C
:103E500001920093039B002B03D14349B620FEF748
:103E600047FF039B0993039B0F93099BDB881A462B
:103E7000099B5B7903FB02F3043B0893009A089BC0
:103E80009A4203D33849C420FEF732FF099BDB88EE
:103E90000793009B1A1D079BB2FBF3F30E93009B45
:103EA0000433079AB3FBF2F2079901FB02F29B1A63
:103EB0000D93019B1A68009B1344089A9A4203D2FF
:103EC000089A009BD31A01E0019B1B680C93019B8D
:103ED0000C9A1A6005E00F9B1B680F930E9B013B29
:103EE0000E930E9B002BF6D100230B93079A0D9B8C
:103EF000D31A0A930A9A0C9B934228BF13460A933B
:103F00002AE0029A0B9B134406930F9A0D9B1344CD
:103F1000043305939DF84830002B05D00A9A059983
:103F2000069804F0B7FF04E00A9A0699059804F091
:103F3000B1FF00230D930F9B1B680F930C9A0A9BF4
:103F4000D31A0C930B9A0A9B13440B93079A0C9B5E
:103F5000934228BF13460A930C9B002BD1D100BF7C
:103F600011B05DF804FB00BF149C000000B589B0DF
:103F70000590049103920293039B079307AA0023E1
:103F80000093029B04990598FFF75EFF079B039A35
:103F90009A4203D00349F620FEF7AAFE00BF09B0FB
:103FA0005DF804FB149C000000B589B005900491F5
:103FB00003920293039B079307AA01230093029B9A
:103FC00004990598FFF740FF079B039A9A4204D093
:103FD00004494FF48070FEF78BFE00BF09B05DF816
:103FE00004FB00BF149C000082B00190019B9B6801
:103FF00000229A60019B9B6800221A61019B9B68CA
:1040000000225A61019B9B680022DA60019B9B6839
:1040100000225A60019B9B6800221A6000BF02B018
:104020007047000000B585B00190019800F00EF8CF
:104030000390039B002B01D0039B00E0024B18462A
:1040400005B05DF804FB00BF5C9C000086B00190E9
:10405000164B0593164B04931FE0049A059BD31A45
:10406000DB10DA0F13445B10DB00059A1344039353
:10407000039B1B680293029A019B9A4202D9039BFD
:1040800004930AE0029A019B9A4203D2039B0833ED
:10409000059302E0039B5B6804E0059A049B9A4247
:1040A000DBD30023184606B0704700BF30A00000E5
:1040B00048A1000008B500F039FB00BF08BD0000B2
:1040C00008B500F04DFB024B00225A7000BF08BD3E
:1040D0008807002000B583B000230193104B1B78A4
:1040E000002B02D08523019314E00D4B00229A602F
:1040F0000B4B00225A600A4B00221A61084B002227
:10410000DA60084800F0D8FA019000F0FBFA044B9E
:1041100001221A70019B184603B05DF804FB00BF32
:1041200088070020C142000084B001900091019BEB
:104130001B68039306E0039A009B9A420DD0039BF1
:104140001B680393039B002BF5D1019B1A68009B0E
:104150001A60019B009A1A6000E000BF04B070472B
:1041600084B00190019B1B680393039B002B03D039
:10417000039B1A68019B1A60039B184604B07047A2
:1041800000B583B00190234B1B78002B04D122494A
:104190004FF49370FEF7ACFD1E4B5B78DBB2002B47
:1041A00012D0019B002B03D0019B5B680020984735
:1041B0000020FDF7F5FB174B5B680133154A536090
:1041C0000020FDF701FC17E00020FDF7E9FB019B53
:1041D000002B03D001991148FFF7A6FF0D4B5B6838
:1041E000002B01D1FFF766FF0A4B5B680133094AD8
:1041F00053600020FDF7E8FB064B5B68002B04D101
:1042000005494FF4A170FEF773FD00BF03B05DF8E0
:1042100004FB00BF8807002050A100009007002089
:1042200008B5124B1B78002B04D1114940F24710FE
:10423000FEF75EFD0D4B5B68002B04D10C494FF47B
:10424000A470FEF755FD0020FDF7AAFB074B5B6845
:10425000013B064A5360054B5B68002B01D1FFF719
:104260002FFF0020FDF7B0FB00BF08BD880700202E
:1042700050A1000000B585B003468DF807309DF8C9
:104280000730002B02D10C4B039301E00B4B03933F
:104290000398FFF765FF0290029B002B06D0029B5C
:1042A0005B689DF8072010469847F1E700BF00BF04
:1042B00005B05DF804FB00BF9007002098070020C0
:1042C00000B583B003468DF807309DF80730002B0A
:1042D00005D10A4B01225A700020FFF7CBFF9DF851
:1042E0000730012B05D1054B01229A700120FFF701
:1042F000C1FF00BF03B05DF804FB00BF88070020CA
:1043000000B589B001900091009B0793019B1B7839
:104310008DF80C30019B5B680493019B9B68DBB2BA
:104320008DF81430019BDB680693074A079B52F80F
:1043300023300649079A51F8221003AA10469847DD
:1043400000BF09B05DF804FB9C070020A007002017
:1043500000B589B001900091009B0793019B1B78E9
:104360008DF80C30019B5B680493019B9B68DBB26A
:104370008DF81430019BDB680693074A079B52F8BF
:1043800023300649079A51F8221003AA104698478D
:1043900000BF09B05DF804FB9C070020A0070020C7
:1043A00030B58FB0039002910192039B1B780C9360
:1043B00026490C9B019A41F82320029B1A69244943
:1043C0000C9B41F82320029B5B7F1946214A0C9BE2
:1043D00013440A461A70029B04AC1D460FCD0FC44D
:1043E00095E80F0084E80F000C9B089300230D93C1
:1043F000039B1B781A46174B9B5C002B0DD0039B2D
:10440000181D019B002B01D0134A00E0002204ABD1
:10441000194602F0CBFE0D9014E0039B1B781A4660
:104420000C4B9B5C002B0DD1039B03F10C00019BFB
:10443000002B01D0094A00E0002204AB194602F02B
:1044400081F80D900D9B18460FB030BD9C070020E1
:10445000A0070020A40700200143000051430000F2
:1044600082B003468DF807309DF8073003F01F0235
:1044700005499DF907305B09012000FA02F241F875
:10448000232000BF02B0704700E100E082B0034685
:1044900000918DF807309DF90730002B0CDA009B56
:1044A000DAB20C499DF8073003F00F03043B5201C8
:1044B000D2B20B441A7609E0009BDAB206499DF9A4
:1044C00007305201D2B20B4483F8002300BF02B080
:1044D000704700BF00ED00E000E100E082B0019015
:1044E000019B1B0B5BB2184602B0704700B583B04E
:1044F00003460A468DF8073013468DF806309DF8BE
:104500000630072B03D908496B20FEF7F1FB9DF815
:1045100006209DF9073011461846FFF7B7FF00BF88
:1045200003B05DF804FB00BF94A1000000B583B0A8
:1045300003468DF807309DF907301846FFF790FFC6
:1045400000BF03B05DF804FB82B003468DF807306E
:104550000F4A9DF90730002B00DA1F335B115BB265
:1045600052F823209DF90730594203F01F0301F050
:104570001F0158BF4B425BB222FA03F303F0010361
:10458000002B14BF01230023DBB2184602B0704792
:1045900000E100E082B001904FF08042019BC2F840
:1045A000043300BF02B0704782B001904FF08042E8
:1045B000019BC2F8083300BF02B0704782B00346C7
:1045C0008DF807309DF8073003F1804301221A600F
:1045D00000BF02B0704784B00346ADF80630BDF8A6
:1045E000063003F1804300221A60BDF8063003F163
:1045F00080431B680393039B00BF04B0704782B0E5
:104600000346ADF80630BDF8063003F180431B6861
:10461000002B14BF01230023DBB2184602B0704701
:1046200082B001904FF08042019BC2F8183500BF64
:1046300002B0704782B003468DF807304FF08043D8
:10464000D3F80C3403F001129DF8073043F48033A3
:104650009A420CBF01230023DBB2184602B0704718
:1046600000B583B006238DF807304FF08040FFF788
:1046700035FF03461846FFF767FF034683F0010343
:10468000DBB2002B13D04FF08040FFF727FF03462B
:104690001A469DF8073019461046FFF727FF4FF0DE
:1046A0008040FFF71BFF03461846FFF73FFF00BFA0
:1046B00003B05DF804FB000000B585B00190019BDC
:1046C000002B03D10D49A420FEF712FB0023039316
:1046D0000B4B1B79002B02D08523039308E0084A7B
:1046E000019B1360064B01221A71054B00225A717F
:1046F000039B184605B05DF804FB00BFCCA1000089
:10470000A807002008B5074B1B79002B03D10649E9
:10471000BD20FEF7EDFAFFF7A3FF0120FFF780FFB2
:1047200000BF08BDA8070020CCA1000008B50A4BB7
:104730001B79002B03D10949FF20FEF7D9FA4FF46A
:104740008070FFF748FF0120FFF724FF0020FFF7EC
:1047500035FF00BF08BD00BFA8070020CCA10000A6
:1047600008B50C4B1B79002B04D10B4940F2071004
:10477000FEF7BEFA0420FFF721FF00BF0120FFF77C
:1047800059FF0346002BF9D1024B00225A7100BF9A
:1047900008BD00BFA8070020CCA1000008B54FF459
:1047A0008070FFF72CFF0346002B14D04FF480706D
:1047B000FFF711FF0120FFF7F7FE114B5B7983F044
:1047C0000103DBB2002B06D00D4B01225A710C4BBA
:1047D0001B68002098474FF48270FFF710FF0346D4
:1047E000002B0AD04FF48270FFF7F5FE0220FFF78E
:1047F000DBFE034B1B680120984700BF08BD00BFCC
:10480000A807002082B003468DF807309DF80730D6
:1048100003F01F0205499DF907305B09012000FAEA
:1048200002F241F8232000BF02B0704700E100E02F
:1048300082B003468DF807309DF8073003F01F0261
:1048400006499DF907305B09012000FA02F2603346
:1048500041F8232000BF02B0704700BF00E100E034
:1048600082B0034600918DF807309DF90730002B88
:104870000CDA009BDAB20C499DF8073003F00F0305
:10488000043B5201D2B20B441A7609E0009BDAB223
:1048900006499DF907305201D2B20B4483F8002338
:1048A00000BF02B0704700BF00ED00E000E100E093
:1048B00000B583B003460A468DF8073013468DF8DD
:1048C00006309DF80630072B03D908496B20FEF708
:1048D0000FFA9DF806209DF9073011461846FFF79C
:1048E000BFFF00BF03B05DF804FB00BF10A20000D3
:1048F00000B583B003468DF807309DF907301846A0
:10490000FFF780FF00BF03B05DF804FB00B583B084
:1049100003468DF807309DF907301846FFF788FFEA
:1049200000BF03B05DF804FB82B003468DF807308A
:104930009DF8073003F1804303F5A04301221A607C
:1049400000BF02B0704782B00346ADF80630BDF834
:10495000063003F1804303F5A04300221A60BFF341
:104960004F8F00BF02B0704782B00346ADF80630EB
:10497000BDF8063003F1804303F5A0431B68002B0C
:1049800014BF01230023DBB2184602B070470000B9
:1049900082B00190034A019BC2F8043300BF02B009
:1049A000704700BF0050004082B00190064BD3F822
:1049B0000423019B1340002B14BF01230023DBB20F
:1049C000184602B0704700BF00500040024BD3F8B9
:1049D00004331846704700BF0050004082B0019079
:1049E000034A019BC2F8083300BF02B0704700BF02
:1049F00000500040024BD3F804341846704700BF03
:104A00000050004082B00190034A019BC2F8043478
:104A100000BF02B0704700BF00500040024BD3F807
:104A20000C341846704700BF0050004082B001901F
:104A3000034A019BC2F80C3400BF02B0704700BFAC
:104A400000500040024BD3F83C34DBB218467047AC
:104A500000500040024BD3F808359BB2184670470F
:104A60000050004082B00190034A019B9BB2C2F803
:104A7000083500BF02B070470050004082B00346C6
:104A80008DF80730034A9DF80730C2F80C3500BF97
:104A900002B0704700500040024BD3F81035184662
:104AA000704700BF0050004082B001900B46ADF847
:104AB0000230074A019BC2F81035BDF80230044AA3
:104AC000C3F30803C2F8143500BF02B0704700BF3B
:104AD00000500040044BD3F81C359BB2C3F30B03CA
:104AE0009BB21846704700BF0050004082B003469A
:104AF000ADF80630BDF80630034AC3F30B03C2F825
:104B00001C3500BF02B070470050004084B003461F
:104B10008DF807300A4BD3F824359BB2C3F30B034F
:104B2000ADF80E309DF80730002B01D0102300E0C7
:104B30000023BDF80E20D31A9BB2184604B070476C
:104B40000050004086B00190314BD3F8903505936A
:104B50002F4BD3F8A035DBB223F03F038DF8133091
:104B60009DF81330002B33D0294BD3F894350393A1
:104B70009DF81330802B17D1254BD3F8983502932D
:104B8000029B190C019B5A1C0192CAB21A70029B1B
:104B9000190A019B5A1C0192CAB21A70019B5A1C35
:104BA0000192029AD2B21A70039B190C019B5A1CF3
:104BB0000192CAB21A70039B190A019B5A1C0192F6
:104BC000CAB21A70019B5A1C0192039AD2B21A708F
:104BD000059B190E019B5A1C0192CAB21A70059BC3
:104BE000190C019B5A1C0192CAB21A70059B190A32
:104BF000019B5A1C0192CAB21A70019B5A1C019265
:104C0000059AD2B21A709DF81330184606B0704754
:104C10000050004084B001900B468DF803309DF8A1
:104C20000330C02B02D09DF8033000E040238DF804
:104C30000F309DF80F30002B29D09DF80F30802BBE
:104C400012D1019B1B781A04019B01331B781B02B4
:104C50001343019A0232127811461E4A0B43C2F8DE
:104C60009835019B03330193019B1B781A04019B28
:104C700001331B781B021343019A0232127811464A
:104C8000144A0B43C2F89435019B03330193019BF3
:104C90001B781A06019B01331B781B041A43019BE6
:104CA00002331B781B021343019A03321278114618
:104CB000084A0B43C2F89035064BD3F8A03523F0D1
:104CC000C0029DF80F3003491343C1F8A03500BF5F
:104CD00004B070470050004082B003468DF80730A2
:104CE000064BD3F8A03523F01F029DF80730034987
:104CF0001343C1F8A03500BF02B070470050004018
:104D0000044BD3F8A4355B0903F00303DBB2184668
:104D1000704700BF0050004082B003468DF8073056
:104D2000074BD3F8A43523F060029DF807305B01F0
:104D300003491343C1F8A43500BF02B0704700BF58
:104D40000050004082B00190019BD3F81035DBB2D7
:104D5000184602B07047000070B586B001900B464F
:104D60008DF803309DF803300593019B19464FF0F1
:104D700000024FF000034FF00004140144EA1174E4
:104D80000B01059AC2F12000A2F1200123FA02F5DD
:104D900004FA00F0054324FA01F10D4324FA02F667
:104DA000CDE90256DDE90234012C08BF002B04D303
:104DB000044940F2B320FDF79BFF029B184606B062
:104DC00070BD00BF48A2000000B583B00190009103
:104DD000019B1B681846FFF7B5FF0346194600986C
:104DE000FFF7BAFF0346184603B05DF804FB08B5A9
:104DF0000320FFF743FE0420FFF76EFF00BF08BD4E
:104E000000B583B003468DF807309DF80730002BBE
:104E100004D04FF48050FFF725FE04E0044BDB681C
:104E20001846FFF71FFE00BF03B05DF804FB00BF8C
:104E3000B007002000B587B003468DF807309DF815
:104E40000730DBB2032B09D100F090F90346002BA9
:104E500001D0022300E001238DF807309DF80730D0
:104E6000DBB2012B21D0022B38D1214B5B7ADBB294
:104E700083F00103DBB2002B32D01E4800F052FF5A
:104E80001C4800F0F3FE1B4B00229A60184B0122D5
:104E90005A7202230293164B5B68002B20D0144BEE
:104EA0005B6802AA104698471AE0082000F0D8F97B
:104EB0004FF48F60FFF792FD0D4B00225A720423CE
:104EC00002930120FFF79CFF094B5B68002B09D080
:104ED000074B5B6802AA1046984703E000BF02E058
:104EE00000BF00E000BF00BF07B05DF804FB00BFDB
:104EF000B0070020D000002000B5A5B0FFF7AAFD44
:104F0000239001AB1846FFF71DFE03468DF88B304A
:104F1000FFF7F6FE03468DF88A30FFF757FD219024
:104F2000114B00221A60104B1B680F4B01221A60B4
:104F30002398FFF797FD9DF88B2001AB114618468B
:104F4000FFF768FE9DF88A301846FFF7E5FEFFF789
:104F50004EFF2198FFF71CFD4FF48F60FFF73EFDD9
:104F600000BF25B05DF804FBFC5F004000B585B0D4
:104F700000F0FCF8034683F00103DBB2002B25D0E0
:104F8000164B9B680133154A9360144B9B68072BA3
:104F900020D96B4600221A605A609A60DA600423B6
:104FA00000930E4800F090FE0D4B00225A72012033
:104FB000FFF726FFFFF7A0FF094B5B68002B09D026
:104FC000074B5B686A461046984703E0034B002294
:104FD0009A6000E000BF05B05DF804FBD00000203F
:104FE000B007002000B583B003460091ADF806304D
:104FF000BDF80630B3F5A07F02D1FFF7B7FF00E0A0
:1050000000BF03B05DF804FB00B587B003AB00221E
:105010001A605A6004238DF80C3006238DF80F3087
:1050200003AB0E4A19460E4800F024FD0590059B7F
:10503000002B01D0059B0CE064210948FFF7C4FE5A
:1050400002460123009301230021054800F0C5FE1C
:10505000059B184607B05DF804FB00BFE54F000054
:10506000D000002082B003468DF807309DF807304D
:10507000072B05D00A2B05D0042B05D1002304E013
:10508000402302E0802300E04023184602B070472E
:1050900000B583B00190054B1A68019B1340184678
:1050A000FFF776FC00BF03B05DF804FBB0070020FB
:1050B00000B587B00190019B002B04D122494FF429
:1050C000CD70FDF715FE00230593204B1B7A002BB6
:1050D00001D0082334E01D4B019A92E8030083E8D5
:1050E0000300FFF784FE0520FFF710FC06210520D2
:1050F000FFF7DEFB0520FFF7FBFBFFF785FF0590C1
:10510000059B002B1BD103AB0721184600F032F999
:105110000590059B002B04D00B4940F2B310FDF71E
:10512000E7FD03ABC0211846FFF774FD074B0122D2
:105130001A72064B4FF48052DA60059B00E0059B23
:10514000184607B05DF804FB78A20000B007002005
:1051500008B50D20FFF756FC0820FFF7E5FB0248D5
:10516000FFF716FC00BF08BD8200080000B583B041
:10517000FFF768FC03460193019B03F00103002B3A
:1051800006D1019B03F00203002B01D1002300E0B4
:105190000123184603B05DF804FB000000B583B09E
:1051A0000190019B002B04D10C4940F2F710FDF750
:1051B0009FFD019B5A68019B1B689BB219461046D4
:1051C000FFF772FC4FF48C60FFF762FF1C20FFF7C3
:1051D000ABFB00BF03B05DF804FB00BF78A200008A
:1051E00000B583B001900B468DF80330019B002B76
:1051F00004D11A4940F20220FDF77AFD019B5B6859
:10520000002B04D1154940F20320FDF771FD019BED
:105210001B68002B01D109231CE0019B5A68019BEC
:105220001B689BB219461046FFF73EFC019B1B68AA
:105230009BB2DB009BB21846FFF758FC9DF8033089
:105240001846FFF71BFC1820FFF722FF0C20FFF782
:105250006BFB0023184603B05DF804FB78A2000046
:1052600000B583B003468DF807309DF80730184627
:10527000FFF75AFB00BF03B05DF804FB00B583B035
:1052800003468DF807309DF80730292B0DD10F4BC1
:105290001B6803F00103012B03D12820FFF744FB17
:1052A00008E02420FFF740FB04E09DF80730184693
:1052B000FFF73AFB0120FFF7A3FD4FF48F60FFF7E4
:1052C0008DFB00BF03B05DF804FB00BF205400401D
:1052D00000B587B00190019B002B04D1234940F217
:1052E0004320FDF705FD019B1B78012B1AD0022BF3
:1052F00024D0002B33D1019B5B6805934FF6FF73DD
:105300000493049B0133059A9A4201D9072328E0AC
:10531000059A049B934228BF13460593144A059BA4
:10532000D3601DE0019B1B79032B01D9072318E0F3
:10533000019B1B791846FFF7EFFC11E0019B1B7ADC
:105340001846FFF78FFE03468DF80F30019B5B6810
:105350009DF80F2011461846FFF75CFC00E000BFE7
:105360000023184607B05DF804FB00BF78A20000D8
:10537000B007002086B001900091009B042B07D05D
:10538000009B072B04D0009B0A2B01D009235CE073
:105390004FF08053D3F8503405934FF08053D3F837
:1053A000543404934FF08053D3F858340393059B3F
:1053B000DAB2019B1A70059B1A0A019B0133D2B223
:1053C0001A70059B1A0C019B0233D2B21A70019B12
:1053D0000333049AD2B21A70009B042B34D0049B7E
:1053E0001A0A019B0433D2B21A70049B1A0C019B57
:1053F0000533D2B21A70049B1A0E019B0633D2B247
:105400001A70009B0A2B11D1019B0733039AD2B269
:105410001A70039B1A0A019B0833D2B21A70039BBD
:105420001A0C019B0933D2B21A700DE0019B0333B1
:105430001B78882B08D1019B03331A78019B033317
:1054400042F01102D2B21A700023184606B070471B
:10545000034B1B68024A23F00103136000BF70472F
:105460009C550040034B1B68024A43F00103136044
:1054700000BF70479C55004000B597B000238DF8E1
:1054800057304FF48270FFF76FFA0346002B0CD0B1
:105490000220FFF789FA0346002B06D04FF48270F2
:1054A000FFF751FA02238DF857309DF85730002B43
:1054B00004D09DF857301846FFF7BCFC4FF48C70B1
:1054C000FFF752FA0346002B46D04020FFF76CFA54
:1054D0000346002B40D04FF48C70FFF734FA10AB2A
:1054E00000221A605A609A60DA6040231093002309
:1054F0001193FFF7D1FA034613930120FFF706FB40
:105500000346DB089BB212934FF49470FFF72CFA1A
:105510000346002B13D04FF48060FFF745FA034693
:10552000002B0CD0FFF77AFA034603F00D0311931A
:105530004FF49470FFF707FA0D20FFF777FA684BE6
:105540005B68002B04D0664B5B6810AA1046984736
:105550004FF48670FFF7F7F94FF48870FFF704FAFD
:105560000346002B1DD01020FFF71EFA0346002B28
:1055700017D04FF48870FFF7E6F90CAB00221A60E1
:105580005A609A60DA6010230C931820FFF726FA0D
:10559000534B5B68002B04D0514B5B680CAA104640
:1055A00098474FF4A670FFF7DFF90346002B35D07C
:1055B0004FF40020FFF7F8F90346002B2ED04FF4EC
:1055C000A670FFF7C0F94FF48C70FFF7BCF94FF4E9
:1055D0009470FFF7B8F94FF48670FFF7B4F94FF401
:1055E0008870FFF7B0F90020FFF70AFC0D20FFF7E5
:1055F0001DFA0D20FFF706FA08AB00221A605A6068
:105600009A60DA604FF400230893354B5B68002BF7
:1056100004D0334B5B6808AA104698474FF48E704D
:10562000FFF7A2F90346002B2FD08020FFF7BCF92B
:105630000346002B29D0FFF7DDF914904FF48E704C
:10564000FFF781F904AB00221A605A609A60DA60B1
:1056500080230493149B03F00103002B0ED0012040
:10566000FFF7D0F900238DF814301D4B5B68002B39
:1056700004D01B4B5B6804AA10469847149B23F088
:10568000010314930D20FFF7BDF94FF48670FFF767
:105690006BF90346002B1ED00820FFF785F903465F
:1056A000002B18D04FF48670FFF74DF90C4B5B6858
:1056B000002B10D008230093FFF7EEF90346029366
:1056C000FFF708FA0346DB089BB20193044B5B68C3
:1056D0006A461046984700BF17B05DF804FB00BF4C
:1056E000B007002008B5064B1B68002B03D1054905
:1056F0005120FDF7FDFA024B1B68984700BF08BD1B
:10570000C0070020C0A2000082B00190019B044AA3
:10571000934201D1034B00E00023184602B07047CA
:1057200000200040C007002000B587B00190009124
:10573000019B002B03D118497720FDF7D9FA019876
:10574000FFF7E2FF0590059B002B1ED000238DF88C
:1057500013300020FCF724F9059B1B79002B03D0A4
:1057600001238DF8133005E0059B009A1A60059B14
:1057700001221A710020FCF727F99DF81330002B45
:1057800003D011230393039B02E000230393039BA5
:10579000184607B05DF804FBC0A2000000B585B054
:1057A0000190019B002B03D10A499B20FDF7A0FA31
:1057B0000198FFF7A9FF0390039B002B05D0039BE3
:1057C00000221A60039B00221A7100BF05B05DF829
:1057D00004FB00BFC0A2000082B003468DF8073072
:1057E0009DF8073003F01F0205499DF907305B095A
:1057F000012000FA02F241F8232000BF02B07047F6
:1058000000E100E082B0034600918DF807309DF979
:105810000730002B0CDA009BDAB20C499DF80730F8
:1058200003F00F03043B5201D2B20B441A7609E095
:10583000009BDAB206499DF907305201D2B20B44FF
:1058400083F8002300BF02B0704700BF00ED00E006
:1058500000E100E082B00190019B1B0B5BB2184697
:1058600002B0704700B583B003460A468DF8073092
:1058700013468DF806309DF80630072B03D90849EA
:105880006B20FDF735FA9DF806209DF9073011468B
:105890001846FFF7B7FF00BF03B05DF804FB00BF79
:1058A00004A3000000B583B003468DF807309DF9CE
:1058B00007301846FFF790FF00BF03B05DF804FB08
:1058C00082B001900B468DF803309DF80330019AA9
:1058D000134401221A6000BF02B0704784B00190E7
:1058E0000B46ADF80230BDF80230019A1344002295
:1058F0001A60BDF80230019A13441B680393039B9E
:1059000000BF04B0704782B001900B46ADF8023082
:10591000BDF80230019A13441B68002B14BF012309
:105920000023DBB2184602B0704782B001900091AC
:10593000019BD3F80022009B1A43019BC3F800226D
:1059400000BF02B0704782B001900091019BD3F874
:105950000022009BDB431A40019BC3F8002200BFDA
:1059600002B0704782B001900091019B009AC3F889
:10597000042300BF02B0704782B001900091019BE8
:10598000009AC3F8082300BF02B0704782B00190AC
:105990000091019BD3F80423009B1340002B14BFFC
:1059A00001230023DBB2184602B0704782B0019099
:1059B0000B468DF80330019BD3F8043523F0030226
:1059C0009DF8033003F003031A43019BC3F8042539
:1059D00000BF02B0704782B001900B468DF80330D3
:1059E000019BD3F8083523F003029DF8033003F040
:1059F00003031A43019BC3F8082500BF02B0704798
:105A000082B001900B468DF80330019BD3F810351E
:105A100023F00F029DF8033003F00F031A43019B9C
:105A2000C3F8102500BF02B0704784B003900B4646
:105A300001928DF80B309DF80B20039B02F5A872A4
:105A4000019943F8221000BF04B0704782B0019062
:105A5000019B9B0003F5A0739BB2184602B07047F0
:105A600082B001904FF48032019B02FA03F3184692
:105A700002B0704710B588B0039002910192039B69
:105A80001B791A4613465B0013449B00704A13446B
:105A90000793029B002B03D16E494A20FDF728F99A
:105AA000019B002B03D16B494B20FDF721F9079B8C
:105AB0001B7A002B03D008230693069BC4E0039BAC
:105AC0001B68654A93420FD1029B9B78012B64D0DF
:105AD000029B9B78002B60D0029B9B78022B5CD0B2
