:020000022000DC
:1060000000F00020756302005D6302003951030057
:106010006163020063630200656302000000000028
:1060200000000000000000000000000067630200A4
:1060300069630200000000006B6302006D630200F0
:106040006F6302006F6302001D7A03006F6302003A
:106050006F63020001720300796502006F63020042
:106060006F6302006F630200D90203006F630200D6
:106070006F6302006F6302006F6302006F630200D0
:106080006F630200CD37030085A002006F6302003A
:10609000313803006F630200C11E03006F6302000A
:1060A0006F6302006F6302006F63020049780300B0
:1060B0006F6302006F630200000000000000000038
:1060C0006F6302006F6302006F6302006F63020080
:1060D0006F6302006F6302006F6302000000000044
:1060E00000000000000000000000000000000000B0
:1060F00000000000000000000000000000000000A0
:10610000000000000000000000000000000000008F
:10611000000000000000000000000000000000007F
:10612000000000000000000000000000000000006F
:10613000000000000000000000000000000000005F
:10614000000000000000000000000000000000004F
:10615000000000000000000000000000000000003F
:10616000000000000000000000000000000000002F
:10617000000000000000000000000000000000001F
:10618000000000000000000000000000000000000F
:1061900000000000000000000000000000000000FF
:1061A00000000000000000000000000000000000EF
:1061B00000000000000000000000000000000000DF
:1061C00000000000000000000000000000000000CF
:1061D00000000000000000000000000000000000BF
:1061E00000000000000000000000000000000000AF
:1061F000000000000000000000000000000000009F
:10620000354936480A1A02D0072291438D4634494F
:1062100034480A1A06D00722914381F309880222E2
:1062200082F3148830483149314A00F044F831484B
:106230003149324A00F03FF831483249324A00F0E1
:106240003AF832483249334A00F035F83248334997
:10625000334A00F030F833483349344A00F02BF821
:1062600033483449344A00F026F83448344900228F
:1062700000F02CF833483449002200F027F8334866
:106280003349091A082902DB002202604160314AC1
:1062900090471F481F49884205D00268043003B464
:1062A000904703BCF7E700208646EC46002000211B
:1062B000294A9047FEE7884207D0521A05D0037852
:1062C00001300B700131013AF9D17047884202D098
:1062D00002700130FAE7704700F0002000D0002083
:1062E00000F0002000F0002084BF0300042E0020F6
:1062F000842E0020D0630200D0630200D2980300F5
:1063000084BF0300042E0020042E0020F49C030010
:10631000F49C0300F49C0300F49C0300F49C030031
:10632000F49C0300F49C0300F49C030084BF03006E
:1063300004C00300842E0020842E0020842E002020
:10634000D85D0020D85D0020D85D0020D85D0020F9
:10635000D87D00209D630200D5630200FEE7FEE7C2
:10636000FEE7FEE7FEE7FEE7FEE7FEE7FEE7FEE705
:1063700000F002B8FFF7FCBF0F484FF00701884359
:1063800085460E4880470E48016841F4700101605F
:10639000BFF34F8FBFF36F8FFFF732BF09480A4932
:1063A0000A4A884207D0521A05D0037801300B7090
:1063B0000131013AF9D1704700F00020792403003F
:1063C00088ED00E0C0990300F02D0020042E00208D
:1063D0007047000000B583B04FF40041002012F078
:1063E0006FFA002836D112F0C5F92F4A0421002097
:1063F0000DF05AFA88BB00F0ABFA88BB4FF480610D
:106400002A4800F073FB70BB00200FF09FFB68BBB5
:10641000002127480FF092FD00283CD14FF4806105
:1064200022480FF0A3FB002838D12248224BC01A83
:10643000C0080004214940F0030012F0F1FB0FF006
:10644000B7FD70BB0DF056FA12F0AEFA0028FBD182
:1064500020BFF7E70CF02CF9C5E70CF029F9CAE7E3
:106460000CF026F9CAE70CF023F9CDE74FF480636E
:10647000019301A90D4800F02BFB48B94FF480614E
:106480000A4800F07BFA0028C2D00CF011F9BFE7EF
:106490000CF00EF9F2E70CF00BF9BFE70CF008F97D
:1064A000C3E70CF005F9CDE7842E0020AC2E0020C8
:1064B000D16302005C9903002C990300F49C030053
:1064C0002B4B1B78002B52D000B585B0012804D08F
:1064D000032845D005B05DF804FB0023029302A910
:1064E00001200BF0CFFA40BB02A80BF095FB38BBA4
:1064F0000123039303A90DF1060009F031FB10BB42
:10650000BDF8060009F0CEFA0DF1050109F00AFB0D
:10651000E0B907F079FD9DF80510002007F06CFF49
:10652000B8B902F045FDC0B9114B00221A70114BE9
:106530001B68002BCED09847CCE70CF0B9F8D3E716
:106540000CF0B6F8D4E70CF0B3F8D9E70CF0B0F8DB
:10655000DFE7784600F0AAF9E3E70CF0A9F8E3E7F3
:106560000BF00AFC0028B5D00CF0A2F8B2E7704797
:10657000AC320020B032002010B50024144BC3F818
:106580007C4103E0D11A14E00134E4B2032C1ED89C
:106590004FF0A043D3F810250E4B195D01238B401B
:1065A0009343F1D00C4B1B680C4AD2F80425991A7E
:1065B000E8D443F233339942E6D9084BD3F80425A3
:1065C000054B1A60064B1B6820469847DCE710BD58
:1065D000006000401C9D0300CC32002000100140F0
:1065E000C832002072DF704773DF704774DF704776
:1065F0002DE9F047A2B0074688469146314C002667
:10660000C4F80660E68130490B78C3EB43102F4D88
:10661000054425602E4A0244A2601F22A280A28166
:10662000013303F001030B704FF03C0A5246314630
:1066300013A813F0E9F806238DF84F30ADF8487031
:1066400001238DF84A30ADF85C3012AA1892ADF8EB
:106650003C70ADF84090CDF844800DEB0A021D92DD
:106660008DF8783052463146684613F0CDF8022353
:106670008DF80030221D294613A80BF0F0F890B9D0
:10668000104B03F10C02996868460BF0E8F868B902
:10669000104A0C491048FFF7A5FF082809D070B927
:1066A00022B0BDE8F0870CF003F8E9E70CF000F841
:1066B000EEE7002203490848FFF794FFEFE70BF0ED
:1066C000F7FFEDE714330020D0320020D432002051
:1066D00024330020082E0020042E0020B0F5202FA7
:1066E00004D2074BA3FB0023DB0801E04FF6FF7346
:1066F00008B103B90123034A93819160704700BF39
:10670000CDCCCCCC082E002008B50121054B187843
:10671000FFF76AFF18B9002003F02EFA08BD0BF04E
:10672000C7FFF8E7042E002008B5044B1878FFF7E0
:106730005DFF00B908BD0BF0BBFFFBE7042E002096
:1067400008B502F085FC08BD0620704700B587B08B
:1067500041F2010398424CD020D944F201039842FF
:106760005DD044F20203984274D1464B1B6813F487
:10677000804F1ED0444B1B68002B1ADD434BD3F8CF
:10678000043510880390526802920191404A0092A9
:106790006C224049012004F09DFC0AE0012859D1F7
:1067A000384B1B6813F4804F03D0374B1B68002B0A
:1067B00012DC4FF0A0434FF4F012C3F81825C3F8D1
:1067C0000C25EFF3108372B64DF6AD6C324B1B788F
:1067D000002B54D030BFF9E72C4BD3F8043502928C
:1067E00001912E4A009260222A49012004F072FC95
:1067F000DFE7244B1B6813F4804FDAD0224B1B6871
:10680000002BD6DD214BD3F8043502920191244AA6
:10681000009263221F49012004F05CFCC9E7194B78
:106820001B6813F4804FC4D0174B1B68002BC0DDCE
:10683000164BD3F804351068049050680390029109
:1068400092680192174A009277221249012004F0BF
:1068500041FCAEE70B4B1B6813F4804FA9D00A4BE9
:106860001B68002BA5DD094BD3F8043501910E4AB6
:1068700000927B220749012004F02CFC99E707B025
:106880005DF804FB282E0020242E0020001001407B
:10689000A49D0300509D0300202E0020649D030052
:1068A000809D0300C49D0300E89D030000B583B0F4
:1068B0000023ADF80030054B01936A46014644F2CF
:1068C0000200FFF743FF03B05DF804FBE49D030003
:1068D000054B41F211121A8042F222225A8058606E
:1068E00003318908996070477033002038B5044639
:1068F0000D46FFF7EDFF0E490E480EF0DBFB48F2A8
:106900000663984200D038BD0B4B01221A700B4B26
:106910001D600B4B1C600B4B0B48C01AC0080004D9
:106920000A4940F0030012F07BF90EF0D3FBEAE7CE
:10693000703300207C3300206D330020683300204A
:10694000643300202C99030074990300649E0300B3
:1069500008B508480EF0DAFA024608B1104608BD3C
:106960000EF0ECFA02460028F8D1034B1B78002BFE
:10697000FBD0F3E7E16902006233002038B504463A
:106980000D46FFF7A5FF0E490E480EF099FB48F2A1
:106990000663984200D038BD0B4B01221A700B4B96
:1069A0001D600B4B1C600B4B0B48C01AC008000449
:1069B0000A4940F0030012F033F90EF08BFBEAE7CE
:1069C000703300207C3300206C33002068330020BB
:1069D000643300202C99030074990300F09E030097
:1069E00008B50378052B09D8DFE803F0031C0C0871
:1069F000082C406818B92C4B01221A7008BD0BF006
:106A000057FEF8E7406850B9284B2948C01AC0081B
:106A10000004284940F0030012F002F9EEE70BF001
:106A200047FEF1E7406850B9204B2148C01AC00822
:106A30000004214940F0030012F0F2F8DEE70BF009
:106A400037FEF1E74068F0B9184B1948C01AC00882
:106A500000041A4940F0030012F0E2F8184B1B78CA
:106A6000A3B9184B1B78002BC8D0164B00221A7004
:106A7000154B1968154B1868FFF780FF0028BDD02B
:106A80000BF016FEBAE70BF013FEDDE70C4B00220D
:106A90001A700D4B19680D4B1868FFF727FF002877
:106AA000ACD00BF005FEA9E7623300202C9903005F
:106AB00074990300049E0300189E03002C9E03009B
:106AC0006D3300206C3300206833002064330020D5
:106AD00000B583B0009103460E220349012011F056
:106AE0000BFD03B05DF804FB549E030010B586B0A7
:106AF0000446019100230493059304AB214A42F21A
:106B0000222141F211100EF009FB38B1024648F281
:106B1000096398421FD0104606B010BD1A4B1B489F
:106B2000C01AC00800041A4940F0030012F078F8B7
:106B300002A914480EF062FA02460028EBD1029B2B
:106B40005A8892000399204612F035FE0D480EF047
:106B500081FA0246DFE70C4B0C48C01AC00800045B
:106B60000C4940F0030012F0D3F801A92046FFF7CA
:106B7000AFFF02460028CED101992046FFF7B6FEAE
:106B80000246C8E77C3300202C9903007499030067
:106B9000A09E0300B89E0300004870478833002081
:106BA00030B405460F4B1B6800240AE01F230E4A31
:106BB00012F83300A0B102EBC3025288AA4207D0F8
:106BC00001341F2C0BD85A1E002BEFD01346EEE7D2
:106BD000054A02EBC30252688A42F1D100E000206C
:106BE00030BC7047983400209833002030B40A4AF3
:106BF00013680A4C04EBC30568806960012104F83E
:106C000033100B441360202B01D030BC7047134667
:106C100000221A60F9E700BF983400209833002062
:106C2000F0B416461F46002300E00133072B0ED8B0
:106C30001901084C615A8142F7D104EB0312D2E9E1
:106C40000245BD4208BFB442EFD1012000E0002060
:106C5000F0BC7047A03400202DE93008C16982697A
:106C6000C3884FEA112C4FEA016BC2F30C01994221
:106C700017D25B1A1344A3F500531BEB03044CF12A
:106C80000005094A1368591C116003F00703808A44
:106C9000064A1B01D118D052C1E90245BDE83008AF
:106CA00070475B1A1344E8E720350020A034002029
:106CB000C37D002B42D0C3780A7802F0800203F033
:106CC0007F0313430B7002780B7803F07F0343EAD2
:106CD000C2130B700378002B41D030B48378082B9B
:106CE00014BF002201224B7803F07F0343EAC21352
:106CF0004B70C58803F08003C5F3861423434B70A3
:106D00008A7802F0030242EA8502D2B28A70057ADA
:106D100002F0FC02C5F3C10422438A70CB7803F071
:106D20001F0343EA4513DBB2CB70427A03F0E00362
:106D300002F01F021343CB7030BC7047C3780A784F
:106D400002F0BF029B0103F0400313430B70027972
:106D500003F0C00302F03F0213430B70B3E7704728
:106D60000023032B2DD810B402E00133032B24D8C9
:106D7000C3EBC3021401144A224492F84820012AAA
:106D8000F3D1114A2244948AC2899442EDD1C3EBD3
:106D9000C30214010C4A2244D2888A42E5D10A4A2D
:106DA0002244B2F8582012B1848AA242DDD1C3EB4A
:106DB000C3031A010448104400E000205DF8044BAE
:106DC00070470020704700BF4C350020002300E0D2
:106DD0000133032B14D8C3EBC3021101094A0A443F
:106DE00092F84820022AF3D1064A0A44918A828AFC
:106DF0009142EDD1C3EBC3031A010248104470471E
:106E0000002070474C35002030B403460C4609780A
:106E1000C17000214162A1680B2903D8217B01B315
:106E2000012100E0012119700020987029B1A168AA
:106E30000731C9080139597218720121D97503F156
:106E40000C0504F1100103C985E80300E18999826A
:106E5000A1691962217F9975216AD9629A6230BC51
:106E600070470021DFE700000021174B1B688B42B1
:106E700027D90023154A02EBC10252689A421ED953
:106E800010B40FE060685DF8044B704701310E4BA1
:106E90001B688B4211D900230C4A02EBC1025268D5
:106EA0009A42F3D9094A52F8312002EBC30412F88E
:106EB00033208242E6D00133EEE70020E3E70131E0
:106EC000D3E70020704700BF24350020283500207C
:106ED00070B58CB006460D4614462C22002101A840
:106EE00012F092FC0F238DF80430ADF808604FF0DB
:106EF000000365F300038DF80A308DF80B4001A8FC
:106F000001F0A4F80CB070BD30B58DB005460C464C
:106F10002C22002101A812F077FC10238DF80430F8
:106F200002958DF80C4001A801F090F80DB030BD2D
:106F3000F8B5069C002962D00F4616685568D2F84D
:106F400008E0D2F80CC0E6602561C4F814E0C4F88B
:106F500018C016695569E6612562002262700278E0
:106F6000D209227062B30421B9424AD8E57D4DB3FB
:106F7000017801F07F01E1700021A1709AB142789F
:106F8000920102F4FE52817842EA9102E280827814
:106F9000D20002F01802C17842EA51122272C2787D
:106FA00002F01F0262721D46002363622B78032BDE
:106FB00021D82A78144B53F82230E3620020F8BD20
:106FC0000121D1E70578C5F38015E570057805F056
:106FD0003F05257142B190F90110002902DB04211F
:106FE000A170CBE70821FBE70425A5702944B9422D
:106FF000C4D90920E3E77846FFF758FCD9E7092010
:10700000DDE70920DBE700BF309F030070B50C46C9
:107010001E460378ABB104252A44A26000F10C039C
:107020002360836A6360C36AE3600023237420469D
:1070300003F0C4FA034610B9626915443560184676
:1070400070BD0125E8E72DE9F0418EB00D461646EA
:107050001C46804600282DD0002D2FD0002C31D08A
:10706000636A0233059304F10C00E378002B2DD002
:107070000121A27801AF3B46082A14BF0022012259
:1070800003F075F80697CDF81C80B2B2ADF8202059
:107090000B9515440C95A3788DF83430237B022B87
:1070A00016D00023ADF8283005A803F058F80EB02C
:1070B000BDE8F0817846FFF7F9FBCDE77846FFF7AA
:1070C000F5FBCBE77846FFF7F1FBC9E70221D0E7F4
:1070D00023692BB1236909931023ADF82830E3E726
:1070E0007846FFF7E3FBF5E72DE9F04188B0044669
:1070F0000D46C37D002B3CD0082605FB06F8637ABD
:10710000AB4238D0257201AB324602A92046FFF7C8
:107110007DFF074648BB4DB994F8533033B9A36996
:10712000C3F30C03E380012384F85330E37D7BB980
:1071300094F8523063B91DBBB4F84A10A2782346C4
:107140008A1AE16E0846FFF77EFF012384F8523069
:1071500007992046FFF7ACFDE16E324641440198A5
:1071600012F029FB02A803F04FFA384608B0BDE838
:10717000F0810C26C1E7B4F84A60A6EB0806C1E727
:107180007846FFF793FBD7E770B505460E4609B181
:1071900000230B6095F85040002104E0631C85F843
:1071A00050300134E4B26B7AA34210D3EA6C01236D
:1071B000A3401A42F5D121462846FFF795FF014624
:1071C00028B9002EEAD0336801333360E6E7084679
:1071D00070BDF0B589B085781544C37D7BB10B23B4
:1071E0009D4224D816460F46044601AB2A4602A902
:1071F000FFF70CFF054620B1284609B0F0BD0F236C
:10720000EEE707992046FFF753FDE37D43B1324691
:107210003946019812F0CFFA02A803F0F5F9EBE72E
:107220002346324601993846FFF70DFFF4E709255A
:10723000E2E7000010B5044690F84830012B0CD16D
:1072400002F006F9237B012B0BD0094BD9680144CE
:1072500004F1300002F0DEF810BD7846FFF726FB9F
:10726000EEE7A37D024AD168126902FB0311EEE743
:107270003435002038B5044690F84830022B09D147
:10728000064B1D6802F0E4F8411904F1300002F0E9
:10729000C1F838BD7846FFF709FBF1E73435002027
:1072A00038B5044690F84830022B10D10A4B5D7D6A
:1072B0005A689B6803FB052502F0CAF8411904F1DE
:1072C000500002F0A7F8012384F8683038BD7846F2
:1072D000FFF7ECFAEAE700BF3435002010B50446AA
:1072E000808A01F033FE01281CD1237BE3B194F99D
:1072F0001620002A1ADBE27D4AB1022B18D094F93D
:107300000330002B16DBA378B3B900200BE0E27842
:107310000AB9012B12D1237893B9A378042B11D188
:10732000002000E0102010BD1020FCE70720FAE745
:107330001020F8E70720F6E70720F4E70720F2E738
:107340000020F0E70720EEE738B5044603784BB19C
:10735000C388C2698169808A04F036FA054645B956
:10736000284638BDC2698169808A04F027FA05463B
:10737000F5E7E169002201F00101A08AFFF7A8FD0D
:10738000EEE700002DE9F04780460E4617464B1EFB
:10739000DBB2012B0FD8B7F5C07F10D80024032C27
:1073A0001AD8C4EBC4031A01304B134493F8483085
:1073B0004BB10134F3E77846FFF778FAEBE778460C
:1073C000FFF774FAEAE7DFF8A4A0154655443846FB
:1073D00005F0CAFBE86600E000255DB3EB6E002B0C
:1073E00042D043462A4608F1300ED3F800C05C680C
:1073F0009868D968C2F800C054609060D1601033BA
:1074000010327345F1D10023EB64A5F84A70012EC8
:1074100013D06FF00103AB62002385F86830144B82
:10742000AB652D66134BAB632D64012001F0D8FBD7
:1074300085F848602846BDE8F0870F4B1B7D85F82E
:107440005130002385F8523085F8533085F850309C
:10745000D8F828206A65A5F858306FF00103AB62B0
:10746000064BAB632D64E0E71D46E3E74C35002097
:10747000B77C0200B57702003435002001780200A5
:1074800000B585B000238DF80F3098B1034608464B
:1074900002330B600DF10F0102F065FE9DF80F3015
:1074A00043B10D4B1B6813F0040F03D00B4B1B684B
:1074B000032B04DC9DF80F0005B05DF804FB084BBE
:1074C000D3F80435074A009240F2064206490420E8
:1074D00003F000FEEEE700BF282E0020242E00203F
:1074E000001001404CA003003EA003002DE9F04332
:1074F0008FB004460E4615461F46D0F81880037814
:107500004BB1C388C8F30C029A4241D29B1A434440
:10751000A3F50053A36104F10C00E378002B3AD0EB
:107520000121A2780DF128094B46082A14BF002238
:10753000012202F01CFEC4F81880CDF808900396D2
:10754000A378EA1A92B2ADF8102032440892079755
:107550008DF824300023ADF81830E3787BB3237B1B
:10756000022B1AD02546002345F8243F2A462179CC
:10757000206A08F041FB606AA8B101A9FFF780FF0B
:10758000002841D12A462179206A08F035FBF2E72C
:107590009B1A4344BEE70221C3E71023ADF818301D
:1075A00023690593DEE7237B022B31D104F10C0123
:1075B000E08908F0D3FB0028D1D1052025E0237B0A
:1075C000012B01D0052020E0E389ADF80030A38A2B
:1075D000ADF80230002500E00135012D12D821461A
:1075E000002341F8243F0EAB03EB450333F8380C7E
:1075F00008F01FFB01A9606AFFF742FF0028EBD0EB
:10760000002002E0052000E000200FB0BDE8F0837C
:107610000520FAE770B5F0B00D4614461E4610ABD3
:107620000A4601462046FFF761FF50B1224B1B6816
:1076300013F0040F03D0214B1B68052B2FDC70B017
:1076400070BD2046FFF780FE0028F8D103AB012271
:107650008DF80C20A28AADF80E20002204928DF83D
:10766000142010AA0692A278AD1AADF81C5008AAF0
:1076700093E8030082E803000AAB04F10C0292E8ED
:10768000030083E80300A37D8DF83830236A0C9350
:10769000636A0D930F9605A800F0D8FCCFE7084B5E
:1076A000D3F80435074A009240F2F26206490620F8
:1076B00003F010FDC3E700BF282E0020242E002079
:1076C000001001409CA003003EA0030010B504463A
:1076D000C06E05F04DFA04F1300001F083FE94F81D
:1076E0004830022B0AD070220021204612F08CF87C
:1076F000002084F8480001F073FA10BD04F1500036
:1077000001F070FEEFE710B58CB0044690F84830F9
:10771000012B0CD101238DF80430636D029301A875
:1077200000F094FC2046FFF7D1FF0CB010BD784666
:10773000FFF7BCF8EEE7000030B585B00D46044613
:10774000A8B194F84830022B15D02946606DFFF798
:10775000DBFB2046FFF7BAFF114B1B6813F0040F49
:1077600003D0104B1B68032B09DC05B030BD7846F5
:10777000FFF79CF8E5E72046FFF76EFAE5E70A4BCE
:10778000D3F8043594F8482002950192074A0092F4
:107790004FF4FA720649042003F09CFCE5E700BFB1
:1077A000282E0020242E002000100140509F0300AE
:1077B0003EA0030008B508460021FFF7BDFF08BD45
:1077C00008B5037B012B02D0FFF79DFF08BD012107
:1077D000FFF7B2FFFAE7000008B590F8513053B157
:1077E000013B80F85130002380F85030034B18687B
:1077F00002F0BEFB08BDFFF7E3FFFBE730350020DA
:1078000010B50C4691F84830012B03D12046FFF704
:10781000E3FF10BD7846FFF749F8F7E7062976D170
:10782000F0B585B015460278910101F4FE51477814
:107830008478C3781B0443EA0463047943EA04238D
:1078400044791C4356B241EA97012846FFF788FA6B
:107850000746E0B1002E2FDBC289A98A8A422BD0CD
:107860002B4B1B6813F0040F3ED02A4B1B68012BD7
:107870003ADD294BD3F8043502910192274A009250
:107880004FF4CE622649022003F024FC2CE0204B6A
:107890001B6813F0040F27D01E4B1B68012B23DD40
:1078A0001D4BD3F804351F4A00924FF4CD621C499A
:1078B000022003F00FFC17E0002E17DBFD6C2543C0
:1078C000FD64BCB13B78D3B17B7A5A1C0123934051
:1078D000013B9D4217D0002187F850103846FFF732
:1078E00053FC3846FFF7A6FC05B0F0BDAB8AA7F8FD
:1078F0005830E3E703213846FFF71EFFF4E77846E8
:10790000FEF7D4FFE0E73846FFF7FDFEECE77047EF
:10791000282E0020242E002000100140B89F0300D4
:107920003EA00300889F03002DE9F0438BB007467B
:107930000E4614461D461046FFF706FD50B994F852
:107940000380B8F1000F08D12B4622463146384655
:10795000FFF764FF0BB0BDE8F0834046FFF784FA01
:1079600081460028F6D08DF80480236A0793A38A05
:10797000ADF8123005AB04F10C0292E8030083E885
:107980000300A37D8DF820300297039623788DF8AD
:107990001030E36A0993294601A8C847DAE710B511
:1079A000547814F0010F03D0D47D14B1FFF7BCFF5D
:1079B00010BDFFF72FFEFBE708B501390130FFF7D7
:1079C000EEFF08BDF0B5C7B086781644C37D2BB175
:1079D0004FF48073B3427ED3002303E04FF4C073AF
:1079E000F8E70133032B19D8C3EBC30425013C4C42
:1079F0002C4494F84840012CF3D1394C2C44A58AEE
:107A0000848AA542EDD1C3EBC3042501344C2C4438
:107A1000E589C489A542E4D1082455E014460F46FF
:107A200032460121FFF7AEFC0546002855D022461C
:107A30003946C06E11F0BFFE0023459345A9284684
:107A4000FFF7A2FB044608B1042840D1459B7BB94F
:107A5000244B1B6813F0040F35D0234B1B68032BFA
:107A600031DDB5F84A70802F28BF8027002313E04E
:107A70002846FFF7DFFBEBE7EA6ED25C1B490C6898
:107A800010095900265C04A800F8136002F00F02E8
:107A90000131A25C42540133BB42EDD304AA00235E
:107AA00002F8173003F1804303F58833D3F8043527
:107AB00002920F4A01920F4A009240F255520E492B
:107AC000042003F007FB0024204647B0F0BD284601
:107AD000FFF7FCFDF8E70924F6E70424F4E700BF0C
:107AE0004C350020282E0020242E00202C2E002093
:107AF000FC9F03000CA003003EA0030070B50446E9
:107B00000D461646FFF7EAFB034638B923783BB12A
:107B1000324629462046FFF755FF0346184670BDFA
:107B2000324629462046FFF754FB0346F6E708B5E0
:107B300003F03CFE08BD000058B310B590B00446F9
:107B4000426842B3826942B30A46014604A8FFF77D
:107B50005BF9134B1B6813F0040F03D0114B1B6828
:107B6000062B06DCA268616804A8FFF7C7FF10B007
:107B700010BD0D4BD3F804352278A1690291019212
:107B80000A4A009240F2F5720949072003F0A2FA6E
:107B9000E8E70E2070470E20E9E70E20E7E700BF78
:107BA000282E0020242E00200010014060A0030099
:107BB0003EA00300037B012B01D00020704730B5AD
:107BC0008FB00D4604462C4B1B6813F4007F03D086
:107BD0002A4B1B68032B3EDC02A900230393CDF83C
:107BE0000F30E288C2F3861092008DF809202A0E29
:107BF0008DF80A202A0C8DF80B202A0A8DF80C200B
:107C00008DF80D506278022A14BF0022012240EA4A
:107C1000C2128DF808200622079201228DF8242036
:107C2000A28AADF826200A938DF814300691226AB4
:107C30000B928DF82030E389ADF82230E36A0D9382
:107C4000A37DA3B98DF830306FF0010105A8FFF7CF
:107C500073FF0FB030BD0A4BD3F80435094A0092C8
:107C600040F262220849042003F034FAB4E7074BDB
:107C70005B7D8DF83030E7E7282E0020242E002091
:107C800000100140409F03003EA003003435002057
:107C900090F84830022B00D0704790F86830022BE3
:107CA000FAD110B50446C16CFFF784FF10B9002368
:107CB00084F8683010BD10B50C4691F84830022B9E
:107CC00006D1022384F868302046FFF7E1FF10BD9B
:107CD0007846FEF7EBFDF4E72DE9F04383B0044668
:107CE000C5698269C388290A2806C2F30C05AB421C
:107CF00034D95B1B1344A3F50053C61841F10007A8
:107D000032463B46A08AFEF78BFF002840F08D806C
:107D10002046FFF75BF8054658B3D0F81CC08269CF
:107D2000C3884FEA1C294FEA0C68C2F30C0C9C452F
:107D300017D2A3EB0C031344A3F5005318EB030075
:107D400049F10001B94208BFB0420ED38F4208BFCB
:107D5000864231D3284603B0BDE8F0835B1B134451
:107D6000CBE7A3EB0C031344E8E705212846FFF714
:107D7000E3FCE388E269A169A08A03F0E9FDE8B9C0
:107D8000627A531CE17D99B3082202FB03F289B3A6
:107D90004FF48073934230D302212046FFF7F2FA6A
:107DA00005460028D6D100212046FFF703FF022117
:107DB0000020FFF7A9F8CDE70025CBE7E388E269CB
:107DC000A169A08A03F042FE60B1237863B1617AB1
:107DD0004B1C0121994001392046FFF7EBFE20465C
:107DE000FFF7B2FA0025B5E77846FEF75FFDEEE74C
:107DF0000C22CAE74FF4C073CCE70D4B1B6813F09D
:107E0000040F03D00B4B1B68002B01DC0025A1E7FE
:107E1000094BD3F804350192084A00924FF45C7282
:107E20000749012003F056F9F0E7002592E700BF6B
:107E3000282E0020242E002000100140749F0300F3
:107E40003EA003002DE9F04182B006468846154663
:107E50001F461046FFF740FF002847D00446414B1D
:107E60001B6813F0040F03D03F4B1B68032B40DC4F
:107E70002046FFF7FFF9237B012B48D0E16C2A7ADB
:107E800001239340194231D10B43E364A8F1040864
:107E90002B7AEA7D002A42D04FF0080C0CFB03FC41
:107EA000617A8B423ED0002A41D00823434540D11D
:107EB000A269AB699A4209D204F10C0E0C350FCDC0
:107EC000AEE80F0095E803008EE80300E06E42463E
:107ED000311D604411F06FFCE56C237873B3637A55
:107EE0005A1C01239340013B9D422BD002B0BDE8B8
:107EF000F0811E4BD3F804352A7A01921C4A009275
:107F00004FF465721B49042003F0E4F8B0E794F8DD
:107F10006830002BB2D12046FFF7C2F9AEE74FF030
:107F20000C0CBBE70CEB0803A4F84A30C0E70C23A9
:107F3000BCE704212046FFF7FFFBD7E77846FEF7B2
:107F4000B5FCCCE7E16C2046FFF734FE3B46224609
:107F5000B4F84A10E06EFFF722FD2046FFF7B6FBAB
:107F6000C4E700BF282E0020242E0020001001406E
:107F70008CA003003EA003002DE9F04190B0002842
:107F80004CD08046002A4BD01F4614460E4604AB08
:107F900000933B46FEF7CCFF054618B1284610B0CB
:107FA000BDE8F08104A8FFF799F905460028F5D14E
:107FB00000230293039302A9608807F0CFFE28B143
:107FC0009DF8113043F001038DF811302269E1680A
:107FD000208903F075FC38B19DF8113003F0FE03E1
:107FE0008DF81130002BD9D09DF81130002BD5D051
:107FF00013F0010F01D0039B08939DF8103033B1AB
:108000003B4604AA31464046FFF71CFFC6E73B4605
:1080100004AA31464046FFF7CFFCBFE70E25BDE777
:108020000E25BBE7084B196861B110B504E006489E
:1080300003F007F8214624B10C680B79002BF9D026
:10804000F5E710BD704700BF1037002038B5054672
:1080500030B1104B1C68ACB10F4B01221A7004E018
:108060007846FEF723FCF4E724683CB12379002B23
:10807000FAD154F8043C28469847F5E7064B1B789C
:10808000022B00D038BDFFF7CDFF034B00221A7042
:10809000F8E700BF103700200C37002010B5044669
:1080A00030B100232372211D034802F09FFF10BD51
:1080B0007846FEF7FBFBF4E7103700200A88836858
:1080C0009B5A07339BB223F0030313449BB20288ED
:1080D000043A934200D900230B80704710B582B058
:1080E00004468368C91AADF806100DF10601FFF7C2
:1080F000E5FFBDF80630A068184402B010BD008846
:10810000043880B2704743888268D018D152012366
:108110008370704782680023937043808380704728
:10812000073189B221F0030189B2428883889A42DB
:1081300004D29B1A99421EDC0020704710B59A4267
:108140000FD90488A41AA14217D98B4217D3032C44
:1081500003D98368134404229A700023438018468D
:1081600004E0826813449B780BB1042010BDFFF734
:10817000D1FF0020FAE7042070470020F6E7042032
:10818000F4E738B504460D468368828813448B4271
:1081900002D07846FEF78AFB0023AB70211D2046F3
:1081A000FFF78CFFA288A36813449B78042B00D0B0
:1081B00038BD0023A380FBE710B50C4683684288D6
:1081C00013448B4202D07846FEF770FB0023A37065
:1081D00010BD70B5064615460C46002944D0002E49
:1081E00046D0B4F1005F08D94FF08053D3F80C317A
:1081F00003F50023B4EB832F0ED3B4F5000F08D999
:108200004FF08053D3F80C3103F50053B4EB832FB8
:1082100002D37846FEF74AFB6B1E2344B3F1005F9E
:1082200008D94FF08052D2F80C2102F50022B3EBAE
:10823000822F0ED3B3F5000F08D94FF08052D2F839
:108240000C2102F50052B3EB822F02D37846FEF7E1
:108250002DFB042D10D9358000237380B380B460CA
:10826000043D2580A37070BD7846FEF71FFBB6E77E
:108270007846FEF71BFBB4E77846FEF717FBEAE704
:1082800038B50446A0B16288A36813449B78012BDB
:1082900012D0EFF3108572B6A388A16819448B78C9
:1082A000032B0DD02046FFF735FF05B962B638BD68
:1082B0007846FEF7FBFAE6E77846FEF7F7FAE8E7D6
:1082C0002046FFF70BFFA368C31A63800023837067
:1082D000EBE72DE9F0410E4615460446D0B1EEB16C
:1082E0006288A36813449B78012B1BD025B32046DA
:1082F000FFF705FFA84221D3EFF3108872B6294695
:108300002046FFF70DFF074680B1B8F1000F16D1E8
:1083100062B614E07846FEF7C9FAE0E77846FEF761
:10832000C5FADDE77846FEF7C1FADFE729462046C1
:10833000FFF7E9FE3060E8E7092700E00927384643
:10834000BDE8F081F8B50C4616460546E0B1FCB133
:10835000A378012B20D12388B34221D326B3EFF396
:10836000108772B626800223A370E9182846FFF70B
:10837000A5FE6B88AA88934203D0AA681344002202
:108380009A7007B962B6F8BD7846FEF78FFADEE755
:108390007846FEF78BFADBE77846FEF787FADAE7EE
:1083A0007846FEF783FAD9E77846FEF77FFAD6E7F4
:1083B00070B50D46044690B1ADB1EFF3108672B6BC
:1083C000A288A36813449A78042A10D09A78022AC3
:1083D00015D0032A18D0052006B962B670BD7846BC
:1083E000FEF764FAE8E77846FEF760FAE5E7211D54
:1083F0002046FFF763FEA288A3681344E6E7032242
:108400009A702B600020E7E77846FEF74FFA0020CD
:10841000E2E738B5044680B1EFF3108572B6A08864
:10842000A16801448B78042B0BD08878022814BFF4
:108430000020012005B962B638BD7846FEF736FA4D
:10844000EAE72046FFF74AFE0146EEE770B50C4624
:10845000064678B194B1EFF3108572B6A378012B7C
:1084600010D0032B13D121463046FFF78AFE05B901
:1084700062B670BD7846FEF719FAEBE77846FEF76C
:1084800015FAE8E721463046FFF796FEEFE7784613
:10849000FEF70CFAEBE710B5EFF3108472B68388A1
:1084A000816819448B78042B06D08878B0FA80F064
:1084B000400904B962B610BDFFF710FE0146F4E7AB
:1084C000014B1868704700BF1437002070B5F0B139
:1084D00004468368EBB1EFF3108572B60369C06898
:1084E000834210D0084621686268A668013E334086
:1084F00003FB021108B111F05EF923690133236116
:108500004DB962B608E005B962B6052504E00E254E
:1085100002E0092500E00025284670BD0246C0F3B0
:108520000B0048BB51B310B401F6FF710C0B144B98
:108530000221C3F80415124BD3F80034002BFAD0F3
:10854000014602E002F580520131A14208D20C4BF3
:10855000C3F808250A4BD3F80034002BFAD0F1E712
:10856000074B0022C3F80425054BD3F80034002B39
:10857000FAD05DF8044B704710207047092070470F
:1085800000E0014010F0030F2FD111F0030F2FD1A5
:1085900082B312F0030F2FD110B49208174B0124AD
:1085A000C3F80445154BD3F80034002BFAD002E091
:1085B000043004312246541E52B10B68B3F1FF3F20
:1085C000F6D003600D4BD3F80034002BFAD0EFE760
:1085D0000A4B0021C3F80415084BD3F80034002BD4
:1085E000FAD010465DF8044B7047102210467047D1
:1085F0001022FBE70922F9E70922F7E700E0014032
:10860000094B1B7813F0040F02D00378122B00D013
:108610007047064B1A68064B5A60034B1A786FF383
:1086200082021A70F4E700BFAC3700209C370020AC
:108630004837002010B582B001900C46000C01288C
:1086400010D12368094A136009490B7843F00103EC
:108650000B705B0883F0010303F00103137100202A
:1086600002B010BD7846FEF721F9EAE79C370020FA
:10867000AC37002010B582B001900C46000C0228E7
:108680000FD12268094B1A6022791A7100205871A3
:108690009871D871064A137843F00203137002B040
:1086A00010BD7846FEF702F9EBE700BF94370020D3
:1086B000AC37002010B582B001900C46000C0328A6
:1086C00006D1054B186820601B79237102B010BDDC
:1086D0007846FEF7EBF8F4E79C37002010B582B03F
:1086E00001900C46000C03280CD1084B2068186040
:1086F00022791A71064A137843F00103137000209F
:1087000002B010BD7846FEF7D1F8EEE79C370020A6
:10871000AC37002010B582B001900C46000C042844
:1087200005D1054B03CB2060616002B010BD7846D7
:10873000FEF7BCF8F5E700BF9437002010B582B013
:1087400001900C46000C04280BD1084B206861688E
:1087500003C3074A137843F002031370002002B0EA
:1087600010BD7846FEF7A2F8EFE700BF943700206F
:10877000AC37002000B583B00190000C032806D16F
:10878000054B00221A601A7103B05DF804FB7846AD
:10879000FEF78CF8F4E700BF9C37002000B583B0EB
:1087A0000190000C042806D1054B00221A605A6083
:1087B00003B05DF804FB7846FEF778F8F4E700BFF5
:1087C0009437002010B582B00024ADF8004001239A
:1087D000ADF80230009803F090FFADF8044002239A
:1087E000ADF80630019803F088FF02B010BD00001C
:1087F000154B1B7813F0040F25D100B585B0134B32
:108800005B6803F500530193B3F1807F02D905B093
:108810005DF804FB0E4B1B788DF808300A4A13787C
:1088200043F0040313700023ADF80C300323ADF8BC
:108830000E3001A9039803F02FFF0028E7D07846F7
:10884000FEF734F8E3E77047AC37002048370020E4
:10885000AD37002000B585B0002202920F4B996819
:1088600001911B7B8DF808300D490B780133DBB289
:108870000B708DF80B30ADF80C200423ADF80E30E2
:108880000DEB0301039803F007FF10B905B05DF885
:1088900004FB7846FEF70AF8F8E700BF48370020E7
:1088A000AD37002000B58DB00B4B1B7B012B0ED0DC
:1088B000094A926804928DF80830039002238DF8DB
:1088C000043001A8FFF7C2FB0DB05DF804FB024ABB
:1088D0009268013A0492EEE74837002008B51B4839
:1088E0001B4B036000F0B0FB1A4B1B7813F0200FFA
:1088F00025D103F00303032B14D1174B1968174A32
:10890000916019791173B3F805001082DB79144A6C
:108910001370144A1279934212D089B90F4B002276
:108920001A6007E00D4B00221A609A601A731A82CF
:10893000FFF790FF094B1A685A60FFF759FF08BD0F
:10894000084B1A68054B1A60F4E700BF883700200F
:1089500001860200AC370020943700204837002001
:10896000AD3700209C37002008B50C4B1B7813F066
:10897000100F00D008BD0A480A4B036000F064FBEA
:10898000FFF7ACFFFFF71EFF074800F005FD034AA5
:10899000137843F010031370ECE700BFAC370020EE
:1089A0003C370020458B02002437002010B501F031
:1089B00047FA174B1B7B1BBB154B9B7B2BBB144BED
:1089C0001A8A41F282639A4206D8124B1B7813F03E
:1089D000080F05D0012300E001231BB9082410E093
:1089E0000023FAE70A4B01221A7300241C829A68BA
:1089F00001329A60FFF72EFF2046FFF753FF00E099
:108A0000082401F061FA204610BD0824F9E700BFF0
:108A100048370020AC37002010B501F011FA214B87
:108A20005B7BABB11F4B9B7B03BB1E4B1A8A41F296
:108A300082639A4206D81C4B1B7813F0080F05D0AE
:108A4000012300E001239BB1012302E00023FAE7A8
:108A500000231C460BB3134B00225A731B7B4BB1F4
:108A6000012B0ED07846FDF721FF16E00023F0E73A
:108A70000023EEE7FFF79AFF78B17846FDF716FF7F
:108A80000BE0084B00201860586018731882FFF73D
:108A900009FFFFF7DFFEFFF7ABFE01F015FA2046F6
:108AA00010BD00BF48370020AC37002010B5244B64
:108AB0001B7B002B35D10446214B5B8A2BBB1AB99B
:108AC0001F4B9B688B4205D3FAB11D4B9B6801334A
:108AD0008B421AD21A4B9B682A338B4223D3184BF2
:108AE0009B7B03BB164B996000221A605A601A8266
:108AF00042F6065159825A731A73FFF7ABFEFFF71D
:108B000077FE2046FFF7CEFE0DE062B10C4B9B686E
:108B100001338B4207D10A4B01225A73FFF77CFFC6
:108B200001E0012B00D010BD002AFCD1044B9B6852
:108B30008B42F8D1024B01225A73FFF76DFFF2E727
:108B4000483700200378042B00D0704743681B7817
:108B5000002BFAD010B58468027E437E012A14BF30
:108B600000220122416904F11000FFF79FFF10BDB0
:108B700010B5184B1A685B689A4226D20446154B0A
:108B80001B7B012B14D0144B9A4213D2114B1A6841
:108B90005B68403B9A4215D2EFF3108172B60D4AE2
:108BA0001368581C1060236001B962B6002010BD24
:108BB0000A4BE9E7074B01225A73FFF72DFF002804
:108BC000EAD1E3E7FFF714FEE6E7FFF711FE0F2017
:108BD000EDE700BF48370020FFFF7F0000E0FF0007
:108BE00008B538B10D4B01229A730D4A1368013351
:108BF000136008BD0A4B1B685BB1094A1368013B4F
:108C00001360002BF5D1054B00229A73FFF704FF88
:108C1000EFE77846FDF74AFEEFE700BF4837002050
:108C200018370020014B9868704700BF4837002074
:108C3000054B1B7B012B02D0034B98687047024BFE
:108C400098680138704700BF48370020044B9B6884
:108C5000584010F0010F00D0013B1846704700BF8C
:108C600048370020014B187B704700BF4837002071
:108C700008B50378012B06D0022B07D07846FDF704
:108C800015FE002003E04FF4A97000E0004808BD85
:108C9000645E010008B50278012A07D0022A13D0C9
:108CA0007846FDF703FE4FF4FA7308E083685B1A19
:108CB00098084FF4A97303FB00F303F5FA73074810
:108CC000984228BF184608BD83685B1A180B044BEE
:108CD00003FB00F303F5FA73F1E700BF60850100C1
:108CE000645E010038B5044601210C3002F022F820
:108CF000054678B1084BC4F89C300023C4F8A03076
:108D00006168FFF7C7FFC4F8A800C4F8AC400123AE
:108D100084F8B830284638BD398E020010B50446B4
:108D2000FFF7E0FF20B104F19C0007F03DFB00B924
:108D300010BD7846FDF7BAFDFAE70000F8B5064623
:108D40000C46174615680378012B18D11249A1FB70
:108D50000431C9098900B468641B8C4200D30C46F5
:108D60008CB1706825F00305F16822462944284437
:108D7000FFF708FC58B93B681C443C60F8BD7846D6
:108D8000FDF794FDE2E77846FDF790FDE9E77846C8
:108D9000FDF78CFDEFE700BFEB5DF260F8B507462D
:108DA0000C46164615680378022B16D1114BA3FB0F
:108DB00004231B0C1B03BC68641B9C4200D31C4691
:108DC0007CB1786825F0030521462844FFF7A6FB0F
:108DD00058B933681C443460F8BD7846FDF766FD29
:108DE000E4E77846FDF762FDEBE77846FDF75EFDC8
:108DF000EFE700BFB77609BB38B505460C4611460C
:108E00002378012B06D0022B0FD07846FDF74EFDBC
:108E1000002304E0021D2046FFF790FFA368686866
:108E2000984214BF0020012038BD021D2046FFF7E4
:108E3000B5FFA368F3E700002DE9F8438846D1F8B1
:108E4000A860234B1B7863B90546A6F5FA7601F1B5
:108E50000C090121484601F06DFF074640B100248E
:108E600024E007F0DDFA002388F8B830BDE8F88385
:108E70007846FDF71BFDF2E707F0D2FA01214846DC
:108E800001F088FF0023C8F8043088F8B830114B8F
:108E9000186801F06DF84046FFF740FFE6E72C1A2E
:108EA0003846FFF7E5FE2044B0420BD8321B394666
:108EB0004046FFF7A1FF0028DED100F0C5FE441BAD
:108EC000EED5ECE707F0ACFA4046FFF727FFCDE719
:108ED000B4370020B037002038B50446EFF31085D2
:108EE00072B610B9164B1B6873B18CB1144A136873
:108EF00001331360124B1B68003318BF0123114A62
:108F0000137005B962B638BD7846FDF7CFFCECE7C3
:108F10000B4B1C68013C1C6034B1EBE7BC2000FB30
:108F20000420FFF7FBFE0134022CE3D8064ABC23E1
:108F300003FB042393F8B830002BF4D1EEE700BF15
:108F4000EC390020B4370020B837002018B1830B6B
:108F5000024AD05C70470020704700BFD8A00300D1
:108F600000B583B001F008FC40B10C4B1B6813F056
:108F7000400F03D00A4B1B68012B02DC03B05DF8E5
:108F800004FB084BD3F804350190074A00926C2289
:108F90000649022002F09EF8F0E700BF282E0020CC
:108FA000242E0020001001403CA103002EA103004C
:108FB00010B582B01E4B1B78012B0DD05AB282B374
:108FC000033BDBB2012B2ED807F0DEF9044658BB79
:108FD000174B02221A7027E007F0D2FD01F0E8FAE1
:108FE000FEF7A5FDFDF7B0FB0446B8B1062815D085
:108FF000104B1B6813F4804F16D00F4B1B68012BCE
:1090000012DD0E4BD3F8043501900D4A00924FF457
:10901000AF720C49022002F05DF805E000F0EAFEB4
:10902000D2E7082400E00824204602B010BD00BFAB
:10903000F0390020282E0020242E002000100140AE
:10904000DCA003002EA1030008B5FFF727F808BD38
:1090500008B500F0C3FC002008BD38B50C46054635
:1090600068B184B100236360EFF3108372B62A689D
:109070006AB16A6854606C6003B962B638BD7846FC
:10908000FDF714FCEDE77846FDF710FCEAE72C60ED
:10909000F1E710B5044658B1EFF3108372B62068BB
:1090A00008B142682260226832B103B962B610BDCD
:1090B0007846FDF7FBFBEFE76260F6E710B5044684
:1090C00008B1206810BD7846FDF7F0FBF9E7000015
:1090D000024B5868103840B2704700BF00ED00E006
:1090E000034600280FDB5B11084A52F82330424246
:1090F00000F01F0002F01F0258BF504223FA00F098
:1091000000F00100704700F11F03ECE700E100E010
:1091100046DF7047F8B504460D464B1EDBB2012B07
:1091200009D8002222616261A261E2612046FFF754
:10913000EFFF01200AE07846FDF7B8FBF1E7CB7BB3
:109140005B00CB73002F14DB0130C0B2A84217D8EC
:10915000214611F9207F00230E2BF0D8CA5CCE18CF
:109160005200D2B2767842EAD612CA5401339BB288
:10917000F2E794F82F3083F0870384F82F30E3E789
:10918000F8BD2DE9F04190B084460C4696461F4646
:1091900002F10F0636111FFA86F804AD0068DCF8FC
:1091A0000410DCF80820DCF80C300FC50EF00F05B9
:1091B000B8F1000F02D07DB1002300E000239846F3
:1091C00063B1012104A8FFF7A5FFB8F1000F1AD081
:1091D000701E000110230EE00123F0E70221F1E7E9
:1091E000013B9BB22218D25C10A9194411F8101C43
:1091F0004A400DF80320002BF2D100250C950D9567
:109200000E950F9526E0711EADB22A4604EB0111B2
:10921000684610F0D0FA80230DF805306B1C03E08F
:1092200000220DF8032001330F2BF9DD10230AE093
:10923000013B9BB21DF8032010A9194411F8101C22
:109240004A400DF80320002BF2D1D6E704A8FFF71F
:109250005FFF0135731EAB420FDD28011023002B89
:10926000F4D0013B9BB210AA1A4412F8102C21181A
:10927000C95C4A4008A9CA54F1E710230AE0013B3F
:109280009BB210AAD11811F8402C11F8101C4A40BA
:1092900008A9CA54002BF2D104A8FFF739FF0CAC7F
:1092A0000FCC38607960BA60FB6010B0BDE8F08127
:1092B00010B50446134B1B684BB14068114B1B683B
:1092C0005B68C31A002B02DB0E4B19680DE00D4BD7
:1092D0001A6862611C600B4A938801339BB29380C9
:1092E00063B10123237010BD19464B691BB15A6845
:1092F000121A002AF8DB63614C61ECE77846FDF74F
:10930000D5FAEEE7F839002010B50446144B1B6877
:10931000834207D0124B1B68D3B15A69A2420ED0C8
:109320001346F9E743690E4A136093889BB2591EAE
:1093300089B2918063B97846FDF7B8FA08E06269AE
:109340005A6107498B889BB25A1E92B28A8013B128
:109350000023237010BD7846FDF7A8FAF8E700BF98
:10936000F839002008B5064B1B6833B1044B1B6865
:109370000449586800F01AF908BD00F075F9FBE7D8
:10938000F83900208993020008B5024B186800F0F4
:10939000EFFD08BDF439002010B5044600F076FE5C
:1093A00080B19CB1A368ABB12378DBB2012B15D09F
:1093B000002363612046FFF77BFF00F049F8FFF7C9
:1093C000D1FF10BD7846FDF771FAEAE77846FDF760
:1093D0006DFAE7E77846FDF769FAE5E77846FDF7C5
:1093E00065FAE5E710B5044600F050FE50B16CB1E7
:1093F0002046FFF789FF0023636100F029F8FFF79B
:10940000B1FF10BD7846FDF751FAF0E77846FDF759
:109410004DFAEDE738B504460D4600F037FE70B161
:109420008CB12046FFF770FF002363616560204622
:10943000FFF73EFF00F00CF8FFF794FF38BD7846C9
:10944000FDF734FAECE77846FDF730FAE9E700007B
:1094500070B4EFF3108172B6184B1A68184BD3F83A
:109460000455D3F80431012B22D001B962B645EA84
:10947000026500266B01EA0E5B1B62EB06025102DD
:1094800041EAD3515802431941EB0600810141EAF8
:1094900093619A01D31A61EB00005B1946EB00005F
:1094A00013F580437041DB0B43EA404070BC7047CA
:1094B000034BD3F804550132D7E700BF003A002030
:1094C0000010014010B50A4B4FF40032C3F8482396
:1094D000C3F80823074B1B682BB1064B1C68FFF72A
:1094E000B7FFA04710BD7846FDF7E0F9F5E700BFEC
:1094F000001001400C3A0020EFF3108172B6264BA9
:109500000022C3F80421254A13680133136001B90E
:1095100062B6234B1B68002B3DD0214B1A68013AE1
:109520001A601B68002B36D103F1804303F58833A2
:10953000D3F804251B4B1B689A421ED2EFF310820E
:1095400072B6154BD3F804350133164909688B42BE
:1095500010D3114BD3F8043502330F49C1F8443509
:1095600002B962B60C4B4FF40032C3F84423C3F87F
:10957000042370470B4B1B68EFE710B50A4B1B68C1
:109580002BB1094B1C68FFF763FFA04710BD78465D
:10959000FDF78CF9F5E7704700100140003A002014
:1095A000043A0020083A00200C3A002030B583B07D
:1095B0000446002301930D46002936D0244B1D603C
:1095C000FFF746FF031B002B33DB0023590CD803A6
:1095D000204C214A002300194FF0000444EB010104
:1095E0000FF046FFEFF31083019372B61B4BD3F8D5
:1095F0000435022838BF0220C3F1FF1202F57F4272
:10960000824218D30344154AC2F844354FF400335C
:10961000C2F84433C2F80433114A1460114A14608A
:10962000019B03B962B603B030BD7846FDF73EF941
:10963000C4E7231ACAE7034403F17F4301331A0E38
:10964000013207490A6023F07F43064A1360E7E7C7
:109650000C3A002020A1070040420F0000100140FA
:10966000043A0020083A0020074B4FF40032C3F8B8
:109670004823C3F808230023044A1360044A1360F4
:10968000044A1360704700BF00100140043A0020F4
:10969000083A00200C3A002030DF704731DF704775
:1096A00010B402684368A2EB7312846883EAF4334F
:1096B0000360C1680C444460114481601344C3607A
:1096C00018465DF8044B704770B582B00D460646EB
:1096D00008B100240BE07846FDF7E8F8F9E79DF8BB
:1096E00007103019FFF7DAFF9DF807301C44A54238
:1096F0000DD90DF10700FFF7CFFF9DF80730002BC4
:10970000F7D02A1B9342EAD98DF80720E7E702B089
:1097100070BD48DF704749DF70474ADF704700007F
:10972000044B01225A7143F2B0629A6043F69822C8
:10973000DA6070475C3A0020094B03221A74094A28
:109740005A611A6840F6D8639A4204D9054B43F22D
:10975000B0629A607047034B40F6D8629A607047D7
:109760003C3A00205C3A002008B50F4B1B78022BD6
:1097700012D0032B08D0012B03D07846FDF796F8C2
:109780000EE0022303740BE0084B00225A710849D3
:1097900099600849D960827103230374034B4361C4
:1097A000014B00221A7008BD6D3A00205C3A00207F
:1097B000A0860100FF1FA10738B5044600250574E7
:1097C000012343710E4A13680133136000F09AFAC3
:1097D00006F0A0FE23680B4A1168283101FB03F153
:1097E000094AA2FB0121A3EB9141084A7839284696
:1097F00000F004FA00B938BD7846FDF757F8FAE7EB
:10980000703A0020583A002083DE1B43399702004B
:1098100010B5044600238360C36003680D4A926854
:109820000260817991B10121017403B90A4B991A3F
:109830006161B1F57A7F01D39A4202D94FF47A730C
:109840006361FFF76DFF0123A37110BDFFF7B4FF44
:10985000F7E700BF5C3A00208096980010B50C46F0
:1098600031B1C3680133C3604269036813440360C4
:1098700083680133836001220274426952084261A5
:10988000012B0DD0022B19D04269036813441749EC
:109890008B4222D840F6D7639A4221D800231DE09C
:1098A000B2F5FA7F05D040F6D8639A42ECD843610E
:1098B000EAE7002CF7D100234361E5E7C368022BF8
:1098C00006D0012BE0D1002CDED100234361DBE781
:1098D0000268064B9B1A4361D6E7002313B110BD03
:1098E0000123FBE7FFF768FFF9E700BF80969800C8
:1098F00043791BB90D4B00221A70704710B504460E
:1099000006F024FE20680A4B1B68283300FB03F393
:10991000084AA2FB0323A0EB9340783800F022FA18
:1099200000236371014B00221A7010BD6C3A0020B5
:10993000583A002083DE1B4308B5254B01221A71DB
:10994000244B1B7813B1244B1B781BB3204B0022F4
:109950001A7404281AD8DFE800F00314110C070069
:109960001B48FFF755FF1CE001211948FFF776FF60
:1099700017E000211648FFF771FF12E006F076FDB0
:109980000FE000F081F906F0ABFD0AE07846FCF745
:109990008DFF06E000F058F90D4B18601846FFF7F0
:1099A000E3FE0B4B1B7C023BDBB2012B08D9084BBF
:1099B0001B7C022B08D0064800230371103008BD21
:1099C0000348FFF795FFF2E7014B01221A76F2E711
:1099D0003C3A00206D3A00206C3A002008B504386B
:1099E000042814D8DFE800F0182614030E00164BE4
:1099F0001B7E012B0BD1FFF78EFE40B17846FCF7A2
:109A000055FF04E0104B00221A7606F0C3FD08BD96
:109A10007846FCF74BFFFAE7FFF782FE0B4840F66B
:109A2000D8638360FFF779FE0028F0D07846FCF712
:109A30003DFFECE70548FFF770FE0028E7D07846C9
:109A4000FCF734FFE3E700BF3C3A00205C3A00201B
:109A500008B5104B1B7E012B09D05AB21AB1022B4C
:109A600016D0002008BD0C48FFF753FE40B90B4844
:109A7000FFF753FE40B9074B02221A760020F1E7A8
:109A80007846FCF713FFF2E77846FCF70FFFF2E7A2
:109A90001120E7E73C3A0020399902005C3A0020A7
:109AA0000B4B1B7C023BDBB2012B0BD9094B1B7808
:109AB000012B09D0022B09D0032B01D000207047C5
:109AC0000120704701207047012070470120704736
:109AD0003C3A00206D3A0020014B1868704700BFE7
:109AE0003C3A00200D4B5B790BB90020704710B554
:109AF0000A4B1C680A4B1B68283303FB04F3094A12
:109B0000A2FB0323A4EB9344783C00F09DF80346AA
:109B1000201A00D410BD181BFCE700BF3C3A0020FF
:109B2000583A002083DE1B43014B1879704700BF71
:109B30003C3A0020EFF3108372B6054A527922B105
:109B4000044A4FF48071C2F8001103B962B670473D
:109B50003C3A002000E100E008B5054B1B7E022BDB
:109B600000D008BD034B01221A70FFF7E3FFF8E7AE
:109B70003C3A00206D3A002008B5074B1B7E022BB3
:109B800000D008BD012804D0044A1370FFF7D2FFAB
:109B9000F7E70323F8E700BF3C3A00206D3A0020C6
:109BA00008B5094B1B782BB148B9084B1B7813B18A
:109BB000012300E00023044A107013B908BD0023FC
:109BC000F9E7FFF7B7FFF9E76C3A00206D3A00209C
:109BD00010B4094B00F15002002443F8224000F178
:109BE00010040122A240C3F8042300F5A87043F832
:109BF00020105DF8044B704700800040022817D801
:109C000010B5EFF310840C4B1C6072B60B4B43F88D
:109C100020200B4B002243F820200A4B1B7823B94D
:109C2000054B186830B962B610BDFFF7D1FFF7E7F2
:109C3000072070470020F7E7843A0020743A00209C
:109C4000903A0020803A0020EFF310820A4B1A600D
:109C500072B60A4B1B7863B1094B0022C3F84C2142
:109C60000122DA64D3F84C05034B1B6803B962B6D2
:109C70007047044B1868F7E7843A0020803A0020C8
:109C800000800040883A00202DE9F041002411E0D6
:109C90000027174B43F82470012303FA05F5154EEE
:109CA000C6F80853FFF7D0FFC04704F1500346F849
:109CB00023700134022C18D804F150030D4A52F8D5
:109CC0002330002BF5D0D2F8043304F11005EB401B
:109CD00013F0010FEDD0064B53F82480B8F1000FBC
:109CE000D6D17846FCF7E2FDD2E7BDE8F08100BFAF
:109CF000743A002000800040014B1B6818447047F4
:109D00008C3A002010B50023022B0DD8104A03F521
:109D1000A871002042F8210003F1500142F821000F
:109D200052F821200133EFE70A4B1B681BB90A4B9D
:109D30004FF480721A60094B01221A70FFF788FBFA
:109D40000446FFF781FF201A054B186010BD00BFC5
:109D500000800040843A002000E100E0803A0020CA
:109D60008C3A00200023022B08D800220B4941F82E
:109D700023200B4941F823200133F4E7094B1860F5
:109D8000094B00221A70094B4FF0FF32C3F8082329
:109D9000074B4FF48072C3F880217047743A00205B
:109DA000903A0020883A0020803A0020008000404D
:109DB00000E100E008B503783BB1012B04D1436812
:109DC00013B1C1688068984708BD4368002BFBD079
:109DD00080689847F8E70000044B1B780F2B04D0ED
:109DE000034B4FF48022C3F800217047E83A00206B
:109DF00000E100E008B50F4B1B780F2B19D00E4B7C
:109E000093F812335A09EC23134113F0010F0DD0CC
:109E10000A4B9B682BB1094A136843F480231360F3
:109E200007E0054B4FF480221A6002E07846FCF709
:109E30003DFD08BDE83A002000E100E0245100208B
:109E400038B5EFF3108472B6194A1368591C1160C3
:109E500003BB184B1B780F2B1CD0EFF3108272B68C
:109E6000154B9B68E3B9144901238B60134BD3F85E
:109E70008000134D28400860C3F88050D3F8840058
:109E800048604FF0FF31C3F884100E4B0021197069
:109E900002B962B6064B1B6833B104B962B638BD6D
:109EA000084B01211970F3E77846FCF7FFFCF4E753
:109EB000B03A0020E83A00202451002000E100E000
:109EC000FC06FFBDE93A002010B5EFF3108472B62E
:109ED000124B1B68F3B1114A1368013B1360B3B90D
:109EE0000F4B1B780F2B12D00E4B1A780E4B9B6822
:109EF0006BB162B9EFF3108172B60B4B18680B4A65
:109F000010605868506000229A6001B962B604B9C6
:109F100062B610BD7846FCF7C9FCDCE7B03A002019
:109F2000E83A0020E93A00202451002000E100E056
:109F300010B5044680B10C4B1B680A2B10D8EFF308
:109F4000108272B6084B1868411C1960074B43F821
:109F5000204002B962B610BD7846FCF7A7FCEAE7DC
:109F60007846FCF7A3FCEAE7B43A0020B83A0020B0
:109F700038B504460D4B1B68834213D9EFF31085A7
:109F800072B661090A4A04F01F04012303FA04F4BB
:109F900052F82130234342F82130FFF71DFF05B965
:109FA00062B638BD7846FCF781FCE7E7B43A00209A
:109FB000E43A002070B584B02C4B1B7823B90125FE
:109FC0002A4B1D7000240AE07846FCF76FFCF6E788
:109FD000274B53F8243098470646F0B10134254BFF
:109FE0001B68A3421ED96109234A52F8213004F0AC
:109FF0001F00C34013F0010FF0D0EFF3108672B6CC
:10A00000012303FA00F052F8213023EA000342F85A
:10A010002130002EDCD162B6DAE72046FFF7A8FF38
:10A020003546DBE71548FFF734F80AE07846FCF7D9
:10A030003DFCA368E0689847002323740F48FFF7AE
:10A0400028F820B10468237C002BF2D1EEE76946A2
:10A050000B48FEF73BFA18B96846FFF7ABFEF6E788
:10A06000024B00221A70284604B070BDF43A00205A
:10A07000B83A0020B43A0020E43A0020EC3A00203C
:10A080009C3A002008B5FFF795FF08BD00B583B0E6
:10A09000FFF71EF88DF807009DF807305BB213F14B
:10A0A000100F18D09DF807305BB2002B21DB03F1B5
:10A0B000604303F5614393F800335B090093154B4C
:10A0C0001B78009A934220D0009A934217D3002025
:10A0D00003B05DF804FB0F4B1B780F2B01D101205F
:10A0E000F6E71220FEF7FCFF08B10020F0E70120A0
:10A0F000EEE703F00F03084AD35C5B09DEE71220AA
:10A10000FEF7EEFF18B10020E2E70120E0E70120B2
:10A11000DEE700BFE83A002014ED00E046DF7047BC
:10A1200070B58CB003460E4615466C4600685968FB
:10A130009A68DB680FC430687168B268F3680FC44E
:10A140006846FFF7EBFF08AC0FCC28606960AA6097
:10A15000EB600CB070BD08B5FFF713F808BD08B58B
:10A1600001F019FA08BD08B501F04EFA08BD38B57E
:10A17000032900F29380DFE801F00235356719709A
:10A18000817A5A7861F306025A70C17AD2B261F3C9
:10A19000C7125A70C168C1F3074201F47F442243D9
:10A1A000090401F47F010A4300219A70C2F30724D5
:10A1B000DC70120C1A710489220A42EA0422A3F804
:10A1C0000520D971197201690A0202F47F0242EA7C
:10A1D0000162080A00F47F40024342EA1162C3F8B8
:10A1E000092038BD1970597801F0800162F3C71158
:10A1F0005970C168C1F3074201F47F442243090446
:10A2000001F47F010A439A70C2F30721D970120C3E
:10A210001A7101890A0A42EA0122A3F8052041883D
:10A220000A0A42EA0122A3F8072001690A0202F49D
:10A230007F0242EA0162080A00F47F40024342EAD8
:10A240001162C3F80920CCE7197000245C70C16862
:10A25000C1F3074201F47F452A43090401F47F0159
:10A260000A439A70C2F30721D970120C1A7101893E
:10A270000A0A42EA0122A3F80520DC711C72016976
:10A280000A0202F47F0242EA0162080A00F47F40F7
:10A29000024342EA1162C3F80920A2E77846FCF7BC
:10A2A00005FB9EE770B584B00E461446054668B1BE
:10A2B00062B1002300930193029303932346324635
:10A2C00029466846FFF747FF04B070BD7846FCF7A3
:10A2D000EDFAEEE7F0B585B00F4614461D4606468A
:10A2E00018B112B10BB10B9B13B97846FCF7DEFA2B
:10A2F0006B463A4631462046FFF72DFF0B9B9DF8F3
:10A30000282029466846FFF726FF05B0F0BD00006B
:10A310002DE9F0418EB00E4614469846054608B128
:10A3200001B113B97846FCF7C1FA002C4ED0102CBD
:10A3300050D82A4B1B68049305AA042104A8FFF7F0
:10A34000B1FF6B461022294605A8FFF704FF2246FD
:10A35000314605A80FF02FFA0EAB2344012203F873
:10A36000242CA21805AB92B219466846FFF7F3FEFB
:10A370009DF8233003F07F03454605F8013B224654
:10A38000314609A80FF017FA04F110070EAB1F446D
:10A39000022307F8243C1134A4B22B46224605A917
:10A3A0006846FFF7D8FE05AE28686968AA68EB68BA
:10A3B0000FC6032307F8243C08F11103224605A920
:10A3C0006846FFF7C8FE0EB0BDE8F0817846FCF79E
:10A3D0006DFAACE77846FCF769FAAAE768A10300D2
:10A3E00070B588B00D46064600B3F9B1114C6368EC
:10A3F000039304AA042103A8FFF754FF04AB10221F
:10A4000031461846FFF7A7FE083494E80300019090
:10A410008DF8081004AB052201A91846FFF79BFE32
:10A4200006AB03CB2860696008B070BD7846FCF7C6
:10A430003DFADBE768A1030070B586B00D4606461D
:10A44000F0B1E9B1104C2369019302AA04210DEB8C
:10A450000100FFF727FF02AB102231461846FFF735
:10A460007AFE6369009302AB042269461846FFF73F
:10A4700072FE9DF8173003F03F032B7006B070BDDD
:10A480007846FCF713FADDE768A1030010B504462F
:10A4900078B123789BB1E268B2F1807F11D2E27A81
:10A4A0000AB1022B0FD094F90A30002B05DB0120F2
:10A4B00006E07846FCF7FAF9EBE7002000E0002020
:10A4C00010BD0020FCE70020FAE730B587B0044655
:10A4D000037C8DF8003002688368D27A32B3082298
:10A4E0001344093301932368029363680393E36879
:10A4F000049305A9684601F0E3FBE0B1237C012B3E
:10A5000009D02568FEF794FB286120680C30FEF71F
:10A510002FFB054660B92168059800F012FA059BEB
:10A52000093363610025284607B030BD0422D7E710
:10A5300001F04CFCF7E70425F5E70000F0B583B027
:10A5400004460E466946008905F008FC18B100254E
:10A55000284603B0F0BD0746012002F0F3FA054695
:10A560000028F5D0A37A012B1DD92378012B0CD01C
:10A570003378012B11D00D4B1B68002BE8D0A27A49
:10A580006188208998470546E2E76946608805F0BA
:10A59000E5FB0028ECD03D46DAE703F0ABFD0028F0
:10A5A000E9D10546D4E73D46D2E700BFF83A00209E
:10A5B00008B5FEF7D9F901F07DFE08BD10B50446D7
:10A5C00068B123687BB123685B6983B1237C012B6D
:10A5D00011D8E3689BB12046FFF777FF10BD78469E
:10A5E000FCF764F9EDE77846FCF760F9EBE77846AD
:10A5F000FCF75CF9EAE77846FCF758F9E9E77846B2
:10A60000FCF754F9E7E70000F0B5C7B00546E8B13C
:10A610006B69FBB12B680BB32B685B6913B368697B
:10A6200000F0F5F90446264B1B6813F0020F03D027
:10A63000244B1B68042B19DC00232246A9682868D8
:10A6400000F02EFB01F09AFB47B0F0BD7846FCF716
:10A650002DF9DDE77846FCF729F9DBE77846FCF7CA
:10A6600025F9D9E77846FCF721F9D8E700231C2B18
:10A670000FD8E25C14490E6810095900375C05A830
:10A6800000F8137002F00F020131B25C4254013342
:10A69000EDE705AA00238DF84E3003F1804303F562
:10A6A0008833D3F804350292084A0192084A00928E
:10A6B0004FF495720749052000F00CFDBCE700BF80
:10A6C000282E0020242E00202C2E0020D4A10300B0
:10A6D0000CA00300CAA10300F0B589B004460F46E0
:10A6E0001546827A013A8272029004954FF0FF3249
:10A6F0000392DF22059201228DF818201B789342E5
:10A7000018D102A8FFF7E1FE0646E0B1154B1B6821
:10A7100013F0020F1FD0144B1B68012B1BDD134BD2
:10A72000D3F80435124A0092A9221249022000F0FF
:10A73000D1FC10E003F0DEFC0028E2D1059B83F0A1
:10A7400002030593DDE72A46394607980FF033F8F0
:10A7500002A8FFF759FFA37A0133A372304609B06C
:10A76000F0BD00BF282E0020242E00200010014044
:10A77000DCA10300CAA10300F0B5D5B0002800F0A9
:10A78000BA80054617460E4600F047F9421B294697
:10A790004CA80FF010F8594B1B6813F0020F31D082
:10A7A000574B1B68042B2DDDB646802E28BF4FF07B
:10A7B000800E0023734510D2EC5C524A11682209C6
:10A7C000580011F802C005AA02F813C004F00F04E3
:10A7D0000130095D11540133ECE705AA002302F8AA
:10A7E0001E3003F1804303F58833D3F80435029219
:10A7F000454A0192454A009240F24F1244490520D1
:10A8000000F068FC002300934CAB2A46314646A872
:10A8100000F0FEF9044610B1204655B0F0BD46A840
:10A82000FFF734FE0028F7D0344B1B6813F0020FFB
:10A8300030D0334B1B68042B2CDDB446802E28BF50
:10A840004FF0800C0FE04CAB1B5D2E4A10681909CD
:10A850006200455C05A901F8145003F00F030132B2
:10A86000C35C8B5401346445EDD305AA002302F880
:10A870001C3003F1804303F58833D3F8043502928A
:10A88000244A0192214A00924FF4AC7220490520DB
:10A8900000F020FC4B9B23B3394646A803F000FC94
:10A8A000314646A800F0ABF8C5B23B4646AA294659
:10A8B0000DF23910FDF760FB0446394646A8FFF754
:10A8C0003DFE90B13B462A460DF2391146A8FFF7EE
:10A8D00003FF0028A0D14999BDF82001FCF786F9B3
:10A8E0009AE77846FBF7E2FFD6E74999BDF82001E1
:10A8F000FCF77CF990E70E248EE700BF282E00209D
:10A90000242E00202C2E002080A103000CA0030088
:10A91000CAA1030090A103004B78DB09C3724B78F6
:10A9200003F07F0383728A78CB781B0243EA0243E9
:10A930000A791343C3604A798B7943EA022303817E
:10A94000704738B50D460446002840D0002D42D04F
:10A950002889FEF7FBFA012841D195F90A30002B2E
:10A9600041DBEB68B3F1807F41D26B69002B42D0B1
:10A970002B6903F00102237803F07F0343EAC2133B
:10A9800023706A69127803F0800302F07F02134398
:10A990002370EA7A637803F07F0343EAC213DBB2E1
:10A9A0006370AA7A03F0800302F07F02134363709E
:10A9B000EB681A0CA2701A0AE27023712B891A0A2A
:10A9C0006271A3716B881A0AE271237238BD7846EE
:10A9D000FBF76CFFBAE77846FBF768FFB8E7784605
:10A9E000FBF764FFB9E77846FBF760FFB9E7784605
:10A9F000FBF75CFFB9E77846FBF758FFB8E7C37A87
:10AA00001BB10820081A093870470420FAE70938F2
:10AA1000704707307047093070470130704770B594
:10AA200088B004460D461646002300938DF8043086
:10AA30000269130203F47F0343EA0263110A01F47B
:10AA40007F410B4343EA1263CDF805302846FFF7F8
:10AA5000E0FF0368CDF8093082888379ADF80D20D6
:10AA60008DF80F30606904AA69461130FFF758FB72
:10AA70003046FFF7D2FF04462846FFF7CEFF0623F5
:10AA80004BB1013B9BB2C25C08A9194411F8101CE0
:10AA90004A40E254F4E708B070BD00002DE9F041EF
:10AAA000D2B004460D4690461E469DF864710023C0
:10AAB0008DF84731ADF8283149934EAB4693104697
:10AAC000FFF7A7FF47903046FFF7A3FF4B90589B37
:10AAD0006361324641462046FFF7A1FF31462046DA
:10AAE000FFF71AFF2089FEF731FA012811D1A5F1ED
:10AAF0000902E37A23B108239A4203D2002309E032
:10AB00000423F9E7E1682089FCF74AF8C8B9012372
:10AB100000E000235BB3E37AABB10823DBB28DF82E
:10AB20003431ED1A073DADB2ADF82051479B1D44BD
:10AB30004C955FB1012F08D07846FBF7B7FE002790
:10AB400004E00023E6E70423E8E703274EAB0022F6
:10AB500039462046FFF70BFB6369013345930DF23D
:10AB6000471145A8FFF7FFFA9DF8473123B99DF833
:10AB7000470152B0BDE8F081F379307A40EA032012
:10AB80006080FEF7E3F920701B4B1B6813F0020F87
:10AB9000EDD01A4B1B68032BE9DDBDF82061802E38
:10ABA00028BF802600230FE04B9AD25C14490C6822
:10ABB00010095900255C04A800F8135002F00F0298
:10ABC0000131A25C42540133B342EDD304AA002305
:10ABD00002F8163003F1804303F58833D3F80435C7
:10ABE0000292084A0192084A0092DF220749042093
:10ABF00000F070FABBE700BF282E0020242E0020B2
:10AC00002C2E002044A203000CA0030036A2030057
:10AC10002DE9F04784B00F46154698469DF83090D0
:10AC2000064618B112B10BB19A4202D17846FBF731
:10AC30003DFEA7F10903142B2ED82878C009FEF792
:10AC400005F830610023736195F800A00AF07F0ACF
:10AC50000293039317E00134012C12D804AB03EBE9
:10AC6000840353F8083C63B1CDF804900093434645
:10AC70002A4639463046FFF711FF0028EBD0002066
:10AC80000BE0029B33B103AA02A9504604F076FF01
:10AC90000024E1E7052000E0092004B0BDE8F087CA
:10ACA000F0B58FB00C4616461D46074650B16EB142
:10ACB000012D0FD89DB1012D10D07846FBF7F6FD80
:10ACC00000250CE07846FBF7F1FDF0E77846FBF74E
:10ACD000EDFDEDE77846FBF7E9FDEBE703250AAB71
:10ACE000002229463846FFF742FAFB7A03B30823CD
:10ACF0008DF824307B69013301930AAB029330460F
:10AD0000FFF787FE03900790A31C9BB2ADF81030AD
:10AD10000022ADF8182005921844089001A8FFF70A
:10AD20001EFA324631463846FFF779FE0FB0F0BDC5
:10AD30000423DDE738B50D460446C8B12378AB429D
:10AD40001AD9EDB962682378134413F8013CA1784D
:10AD50000B44DBB212789B1ADBB2CBB16368585D4F
:10AD6000A378013B1840A368627802FB003038BD2D
:10AD70007846FBF79BFDE1E77846FBF797FDE0E7B8
:10AD80006268531913F8013C525D9B1ADBB2E4E789
:10AD90000020ECE738B50C460546A0B12B78A3425D
:10ADA00015D9C4B96A682B78134413F8013CA97803
:10ADB0000B44DBB212789B1ADBB21BB16A68135DDD
:10ADC0000133135538BD7846FBF770FDE6E778464A
:10ADD000FBF76CFDE5E76A68131913F8013C125D97
:10ADE0009B1ADBB2E9E728B108B529B1FFF724FBCC
:10ADF000002008BD0E2070470E20FAE770B179B12F
:10AE000010B582B00B4600248DF8074001220DF1E9
:10AE10000701FFF77DFA204602B010BD0E207047F3
:10AE20000E20704700B330B58BB00546F1B10C462B
:10AE30001031FFF7D5FA0E4B09930E4B93E8030040
:10AE40000790ADF8201003AA042109A8FFF72AFAF9
:10AE500001940623009307AB03AA10212846FFF7AD
:10AE600039FA00200BB030BD0E2070470E20F9E7F4
:10AE70006E6B626B58A20300E8B130B58BB005462B
:10AE8000D9B10C460E4B09930E4B93E80300079083
:10AE9000ADF8201003AA042109A8FFF703FA0194D2
:10AEA0000623009307AB03AA10212846FFF712FAE6
:10AEB00000200BB030BD0E2070470E20F9E700BF18
:10AEC0006E6B696B58A2030010B330B587B00446AF
:10AED00001B30D46104B019302AA04210DEB0100B2
:10AEE000FFF7E0F902AB102221461846FFF733F9CD
:10AEF0009DF816301B0203F47C536FEA43436FEA5C
:10AF000053439DF8172013432B80002007B030BD1A
:10AF10000E2070470E20F9E77674616438B50C4650
:10AF200083692BB10268406801FB0020984738BD57
:10AF3000056840680246002104FB00500EF064FCE6
:10AF4000F5E738B505460024AB68A34205D921468C
:10AF50002846FFF7E3FF0134F6E7013BEB6038BD1D
:10AF6000F8B504460F46C56800260CE02168636802
:10AF70001A4605FB031138460EF0E2FB88B901239F
:10AF800016E001361D46A368B34210D96369002B51
:10AF9000ECD02268616805FB0121384698470346DA
:10AFA00030B96B1E002DECD1A368013BE9E700230B
:10AFB0001846F8BD38B5C3680133C3608268934250
:10AFC00008D003694BB10268C468406800FB0420E4
:10AFD000984738BD0023C360F3E70468C56840683C
:10AFE000024600FB05400EF0E6FBF2E770B50E46A8
:10AFF000044648B141B12368B34209D0256865B918
:10B0000026600023336017E07846FBF74FFCF2E739
:10B010007846FBF74BFCF1E725462C682CB1B4428F
:10B02000FAD17846FBF742FCF6E735B12EB1B542CE
:10B0300002D02B6833602E6070BD7846FBF736FC7B
:10B04000F5E738B505460C4649B140B12A68BAB1B2
:10B05000A24209D123682B60002020600FE07846CF
:10B06000FBF724FCF2E71A4613680BB1A342FAD1AE
:10B0700042B1A34208D1236813600020206038BD8C
:10B080000520FCE70520FAE70520F8E730B583B096
:10B09000184606AC54F8045B00920B46024605497C
:10B0A000002006F033F922462946002006F042F837
:10B0B00003B030BD60A2030030B583B0044C2468F7
:10B0C00024B1079D0195069D0095A04703B030BDB2
:10B0D000302E002030B585B008AC54F8045B0394E2
:10B0E00001940095FFF7E8FF05B030BD00B583B0CF
:10B0F0000023019382B201A90548FDF7EAF820B9BF
:10B100000198043003B05DF804FB0020FAE700BFAB
:10B11000FC3A00202DE9F04F85B00F469146009390
:10B12000834650B10120FDF7D7FEFDF7C9F9019024
:10B130004FF0000AD04601259CE07846FBF7B6FBAD
:10B14000F0E7019901F5805102910AF10101914264
:10B1500013D0327816447288013A92B247F6FE61F3
:10B160008A420ED84EB1019A131D10797288029945
:10B17000184400F05BFD00B10290019B0433029E75
:10B1800089E003F50053344603951D4617E07846E1
:10B19000FBF78CFB16E024F47F6424F00F0404F525
:10B1A0008054237823449D421DD99E421ED25A8842
:10B1B000013A92B21C4647F6FE618A4210D92388B2
:10B1C000002BE4D0238804EB830323F47F6222F076
:10B1D0000F029342DFD06288B2F5FE4FE3D1DAE787
:10B1E000039D1E46BEE7039D0026BBE7039D002688
:10B1F000B8E7002343B108F10108B9F1000F03D00B
:10B2000000992046C8470546238823B3238804EBCA
:10B21000830323F47F6222F00F0293421FD06288DF
:10B22000B2F5FE4F1BD01C46B44221DA012D1FD1CE
:10B230006288531E9BB247F6FE618B42D9D837B164
:10B2400079883B884A40134203D00023D2E7012388
:10B25000D0E70123CEE77846FBF728FBD6E724F4B6
:10B260007F6424F00F0404F5805423782344DAE744
:10B270000AF1010ADBF8102052450FD9012D0DD13A
:10B28000DBF80C4004EB0A3303F58056019909689A
:10B2900099423FF456AF1C781C44C5E70020FDF7E7
:10B2A0001BFE404605B0BDE8F08F38B50D4604469C
:10B2B00030B100231A4629462046FFF72BFF38BD40
:10B2C0007846FBF7F3FAF4E770B50E4614460546E8
:10B2D00058B1731E9BB247F6FE6293420BD947F6F4
:10B2E000FF739E4205D0002306E07846FBF7DEFAA6
:10B2F000EFE7012300E00123A3B1802C16D82B78BF
:10B30000C3B104F11000FFF7F1FE034640B1002283
:10B310000271C6810334A4080134848143F80C5BB4
:10B32000184670BD7846FBF7C1FAE6E77846FBF7AA
:10B33000BDFAE4E70023F3E710B504460F4B98424B
:10B3400003D303F58273984202D97846FBF7AEFA2D
:10B350000C3C0A4B9C4203D303F582739C4202D9F6
:10B360007846FBF7A3FA34F8042C211F0448FCF7B5
:10B37000E9FF044B1868FEF7FBFD10BD083B0020F9
:10B38000FC3A00200C3C002070B50D46064658B132
:10B390006B1E9BB247F6FE6293420BD947F6FF73D2
:10B3A0009D4205D0002306E07846FBF77FFAEFE7E1
:10B3B000012300E001230BB31020FFF797FE0446A2
:10B3C00000B301230371C5814FF6FF7383810660CB
:10B3D0000D4B984203D303F58273984202D9784605
:10B3E000FBF764FA34F8042C211F0848FCF7AAFF85
:10B3F000074B1868FEF7BCFD002070BD7846FBF7D0
:10B4000055FAD9E70420F8E7083B0020FC3A002071
:10B410000C3C002046DF70472DE9F04707460E46FA
:10B420008589012404E0A5EB0905ADB20134A4B27D
:10B4300025B3230A43EA0423F3833046FFF7EAFFE8
:10B44000A946102D28BF4FF01009D7F81880601EAC
:10B450000001D7F808E006F1200C5FFA89F94B46A5
:10B46000002BE0D0013B9BB2C1181EF801201CF854
:10B4700003A082EA0A0208F80120F1E7BDE8F0879C
:10B480002DE9F04780460F461646994600F1100414
:10B4900000F1200510E05246394604EB09000EF099
:10B4A0008AF94E44B6B2103EB6B2574418E0404650
:10B4B000FFF7B0FF4FF00009E6B1C9F1100A564599
:10B4C000E9DA3246394604EB09000EF074F906EB6E
:10B4D0000900C0F11002002120440EF095F9002669
:10B4E0001023002BE3D0013B9BB2EA5CE15C4A40B5
:10B4F000E254F6E7BDE8F087F8B504460D46164677
:10B50000838A002B3BD0402294F82030023B03EB8F
:10B51000D3735B10DB0003F03803134343F00103E4
:10B520002B746268176850689168C5F81170C5F887
:10B530001500C5F81910127B6A77A289130A43EA2D
:10B540000223EB832846FFF765FFA38A6BB1B3F5AF
:10B550007F4F16D2A28A130A43EA02232B820223C8
:10B56000A28A21692846FFF78BFFA2896AB994F85D
:10B57000202005F1200130460EF01DF9F8BD002213
:10B58000C2E77846FBF792F9E4E70023A168284672
:10B59000FFF776FFEBE730B58DB0044603686D46E4
:10B5A000186859689A68DB680FC5E26969462046E1
:10B5B000FFF7A2FFE569636801228DF81020186883
:10B5C00059689A68CDF81100CDF81510CDF81920FA
:10B5D0001B7B8DF81D300023ADF81E306846FFF749
:10B5E00019FF94F820304BB1013B9BB2EA5C0CA9E7
:10B5F000194411F8101C4A40EA54F4E76946204601
:10B60000FFF70AFF0DB030BD70B590B004460E468E
:10B6100090F82030102B35D8236804AD186859688D
:10B620009A68DB680FC5A38983BBA568A369A3607B
:10B630006A4604A92046FFF75FFF636801228DF880
:10B640002020186859689A68CDF82100CDF8251097
:10B65000CDF829201B7B8DF82D300023ADF82E303E
:10B6600004A8FFF7D7FE94F820303BB3013B9BB210
:10B6700010AAD11811F8402C11F8101C4A400DF8EE
:10B680000320F2E77846FBF711F9C5E7636801226A
:10B690008DF82020186859689A68CDF82100CDF8F7
:10B6A0002510CDF829201B7B8DF82D300023ADF817
:10B6B0002E3004A92046FFF7AFFEB6E7A56094F848
:10B6C0002020E16968460EF03BF8B0FA80F04009AE
:10B6D000307010B070BD00002DE9F84300242F4DEC
:10B6E0002D68A54243D92E4D05EBC405AD88854292
:10B6F00001D00134F3E71E4615460F46284B03EBF5
:10B70000C408284BB3F80090B8F80630994503D028
:10B7100001339BB299451AD1B8F8063099451AD22F
:10B72000204A10680138000C00041844854215D0E6
:10B7300085421AD901232BB1194B03EBC402D580E2
:10B7400043F8347006B134600020BDE8F8837846D1
:10B75000FBF7ACF8E0E7134A1068E4E7104B53F846
:10B7600034309F42E4D90123E5E70023E3E7272DA6
:10B7700001D90420E9E70A4C04EBC506B080F28049
:10B7800044F83510084A4FF6FF7122F8151003B13E
:10B790001D600135014B1D600020D6E7143C0020E0
:10B7A000183C0020103C0020583D002008B5FDF753
:10B7B00039FA014B186008BD103C002008B5002381
:10B7C000FFF78AFF08BD00002DE9F04782B0074669
:10B7D0000C4616461D468B4218D801AB3246214610
:10B7E0003846FFF779FF074660B9DDF80480314B32
:10B7F00033F818204FF6FF739A420BD1019A2D4B64
:10B8000023F81250384602B0BDE8F0877846FBF7BF
:10B810004DF8E2E7284B03EBC809284BB3F800A02A
:10B82000B9F806309A4503D001339BB29A4534D11A
:10B83000B9F80620924534D2204B1B68013B1B0C03
:10B840001B0413441C4A52F838C01A4A32F8182014
:10B850004FEA13294FEA0368CCF30C03934223D237
:10B86000D21A6244A2F5005218EB020049F100011D
:10B870004FEA16294FEA0668C4F30C06AE4216D208
:10B88000AE1B3444A4F5005418EB040249F1000344
:10B89000994208BF9042B5D2B0E77846FBF706F868
:10B8A000C6E7064B1B68CAE7D21A6244DCE7AE1B48
:10B8B0003444E9E7583D0020183C0020103C0020AB
:10B8C0002DE9F04100241F4B1B68A34237D91E4BC2
:10B8D00003EBC4039B88834201D00134F3E7154690
:10B8E0000E46194F07EBC407184BB3F80080FB88CE
:10B8F000984503D001339BB2984510D1FA88904502
:10B9000011D2124B1B68013B1B0C1B0413449D42BC
:10B910000CD09D4211D9012080F0010010E0784642
:10B92000FAF7C4FFEAE7094B1B68EDE7064A52F84D
:10B9300034209642EDD90120EEE70020ECE700200C
:10B94000BDE8F081143C0020183C0020103C002091
:10B950002DE9F04705460F4690461E468B420CD80F
:10B960000024364B1B68A34265D9354B03EBC40357
:10B970009B88AB4205D00134F3E77846FAF796FF8F
:10B98000EEE7304B33F814204FF6FF739A4201D1A3
:10B99000002051E02A4D05EBC4052B4BB3F8009075
:10B9A000EB88994503D001339BB2994534D1EA889D
:10B9B000914535D2244B1B68013B1B0C1B041344DF
:10B9C0001F4A52F834501F4A32F814204FEA132A03
:10B9D0004FEA0369C5F30C03934224D2D31A2B44D4
:10B9E000A3F5005319EB03004AF100014FEA182AAE
:10B9F0004FEA0869C7F30C04B44217D2361B374428
:10BA0000A7F5005719EB07024AF10003994208BF56
:10BA100090420ED301200FE07846FAF747FFC6E7C1
:10BA2000094B1B68C9E7D31A2B44DBE7361B3744A5
:10BA3000E8E7002000E00020BDE8F087143C00208B
:10BA4000183C0020583D0020103C00202DE9F04714
:10BA500005460F4690461E468B420CD80024334BB9
:10BA60001B68A3425FD9324B03EBC4039B88AB42F4
:10BA700005D00134F3E77846FAF718FFEEE72C4DCE
:10BA800005EBC4052B4BB3F80090EB88994503D028
:10BA900001339BB2994535D1EA88914536D2254B81
:10BAA0001B68013B1B0C1B041344214A52F8342031
:10BAB000214931F81440190A1806C2F30C03A342B5
:10BAC00027D2E51A1544A5F50055421941F10003A6
:10BAD0004FEA182A4FEA0869C7F30C05AE421BD992
